{
  "address": "0x80821b27eb1e7C49ff3C63c495c2C0D917b85bd1",
  "abi": [
    {
      "inputs": [
        {
          "internalType": "address",
          "name": "_registry",
          "type": "address"
        },
        {
          "internalType": "address",
          "name": "_registrar",
          "type": "address"
        },
        {
          "internalType": "address",
          "name": "_publicResolver",
          "type": "address"
        },
        {
          "internalType": "bytes32",
          "name": "_baseNode",
          "type": "bytes32"
        },
        {
          "internalType": "address",
          "name": "_gateImplementation",
          "type": "address"
        },
        {
          "internalType": "address",
          "name": "_subscriptionImplementation",
          "type": "address"
        }
      ],
      "stateMutability": "nonpayable",
      "type": "constructor"
    },
    {
      "inputs": [
        {
          "internalType": "uint256",
          "name": "chainid",
          "type": "uint256"
        }
      ],
      "name": "ChainNotSupported",
      "type": "error"
    },
    {
      "inputs": [],
      "name": "InstanceAlreadyExists",
      "type": "error"
    },
    {
      "inputs": [],
      "name": "InvalidTokenAmount",
      "type": "error"
    },
    {
      "inputs": [],
      "name": "InvalidTokenSender",
      "type": "error"
    },
    {
      "inputs": [],
      "name": "NoCodeOwner",
      "type": "error"
    },
    {
      "inputs": [],
      "name": "NoInstanceAccess",
      "type": "error"
    },
    {
      "anonymous": false,
      "inputs": [
        {
          "indexed": true,
          "internalType": "address",
          "name": "previousOwner",
          "type": "address"
        },
        {
          "indexed": true,
          "internalType": "address",
          "name": "newOwner",
          "type": "address"
        }
      ],
      "name": "OwnershipTransferred",
      "type": "event"
    },
    {
      "inputs": [],
      "name": "DOMAIN_ID",
      "outputs": [
        {
          "internalType": "uint256",
          "name": "",
          "type": "uint256"
        }
      ],
      "stateMutability": "view",
      "type": "function"
    },
    {
      "inputs": [],
      "name": "PUBLIC_RESOLVER",
      "outputs": [
        {
          "internalType": "contract IFNSResolver",
          "name": "",
          "type": "address"
        }
      ],
      "stateMutability": "view",
      "type": "function"
    },
    {
      "inputs": [],
      "name": "QUADB_NODE",
      "outputs": [
        {
          "internalType": "bytes32",
          "name": "",
          "type": "bytes32"
        }
      ],
      "stateMutability": "view",
      "type": "function"
    },
    {
      "inputs": [],
      "name": "REGISTRAR",
      "outputs": [
        {
          "internalType": "contract IFNSRegistrar",
          "name": "",
          "type": "address"
        }
      ],
      "stateMutability": "view",
      "type": "function"
    },
    {
      "inputs": [],
      "name": "REGISTRY",
      "outputs": [
        {
          "internalType": "contract IFNS",
          "name": "",
          "type": "address"
        }
      ],
      "stateMutability": "view",
      "type": "function"
    },
    {
      "inputs": [],
      "name": "TABLELAND",
      "outputs": [
        {
          "internalType": "contract ITablelandTables",
          "name": "",
          "type": "address"
        }
      ],
      "stateMutability": "view",
      "type": "function"
    },
    {
      "inputs": [
        {
          "internalType": "bytes32",
          "name": "",
          "type": "bytes32"
        }
      ],
      "name": "codeOwner",
      "outputs": [
        {
          "internalType": "address",
          "name": "",
          "type": "address"
        }
      ],
      "stateMutability": "view",
      "type": "function"
    },
    {
      "inputs": [
        {
          "internalType": "string",
          "name": "_name",
          "type": "string"
        }
      ],
      "name": "createDBSpace",
      "outputs": [],
      "stateMutability": "nonpayable",
      "type": "function"
    },
    {
      "inputs": [
        {
          "internalType": "bytes32",
          "name": "_DBSpace",
          "type": "bytes32"
        },
        {
          "internalType": "string",
          "name": "_name",
          "type": "string"
        }
      ],
      "name": "createDBSubSpace",
      "outputs": [],
      "stateMutability": "nonpayable",
      "type": "function"
    },
    {
      "inputs": [
        {
          "internalType": "bytes32",
          "name": "_instance",
          "type": "bytes32"
        },
        {
          "internalType": "string",
          "name": "_name",
          "type": "string"
        },
        {
          "internalType": "string",
          "name": "_about",
          "type": "string"
        },
        {
          "internalType": "string",
          "name": "_codeIPNS",
          "type": "string"
        },
        {
          "internalType": "string",
          "name": "_IPNSEncryptedKey",
          "type": "string"
        }
      ],
      "name": "createInstanceCode",
      "outputs": [],
      "stateMutability": "nonpayable",
      "type": "function"
    },
    {
      "inputs": [
        {
          "internalType": "bytes32",
          "name": "_node",
          "type": "bytes32"
        },
        {
          "internalType": "uint256",
          "name": "_price",
          "type": "uint256"
        },
        {
          "internalType": "address[]",
          "name": "_members",
          "type": "address[]"
        },
        {
          "internalType": "string",
          "name": "_metadataCID",
          "type": "string"
        },
        {
          "internalType": "string",
          "name": "_IPNS",
          "type": "string"
        },
        {
          "internalType": "string",
          "name": "_IPNSEncryptedKey",
          "type": "string"
        }
      ],
      "name": "createSpaceInstance",
      "outputs": [],
      "stateMutability": "nonpayable",
      "type": "function"
    },
    {
      "inputs": [
        {
          "internalType": "bytes32",
          "name": "_instanceID",
          "type": "bytes32"
        }
      ],
      "name": "extendInstanceSubscription",
      "outputs": [],
      "stateMutability": "payable",
      "type": "function"
    },
    {
      "inputs": [
        {
          "internalType": "address",
          "name": "_sender",
          "type": "address"
        },
        {
          "internalType": "address",
          "name": "_gatedContract",
          "type": "address"
        }
      ],
      "name": "getAccess",
      "outputs": [
        {
          "internalType": "bool",
          "name": "",
          "type": "bool"
        }
      ],
      "stateMutability": "view",
      "type": "function"
    },
    {
      "inputs": [
        {
          "internalType": "bytes32",
          "name": "_salt",
          "type": "bytes32"
        }
      ],
      "name": "getDeterministicAddress",
      "outputs": [
        {
          "internalType": "address",
          "name": "",
          "type": "address"
        }
      ],
      "stateMutability": "view",
      "type": "function"
    },
    {
      "inputs": [
        {
          "internalType": "bytes32",
          "name": "_instanceID",
          "type": "bytes32"
        },
        {
          "internalType": "address",
          "name": "_owner",
          "type": "address"
        }
      ],
      "name": "getRemainingSubscriptionTime",
      "outputs": [
        {
          "internalType": "uint256",
          "name": "",
          "type": "uint256"
        }
      ],
      "stateMutability": "view",
      "type": "function"
    },
    {
      "inputs": [
        {
          "internalType": "bytes32",
          "name": "_salt",
          "type": "bytes32"
        }
      ],
      "name": "getSuscriptionDeterministicAddress",
      "outputs": [
        {
          "internalType": "address",
          "name": "",
          "type": "address"
        }
      ],
      "stateMutability": "view",
      "type": "function"
    },
    {
      "inputs": [],
      "name": "getTime",
      "outputs": [
        {
          "internalType": "uint256",
          "name": "",
          "type": "uint256"
        }
      ],
      "stateMutability": "view",
      "type": "function"
    },
    {
      "inputs": [
        {
          "internalType": "bytes32",
          "name": "_instanceID",
          "type": "bytes32"
        },
        {
          "internalType": "address",
          "name": "_subscriber",
          "type": "address"
        }
      ],
      "name": "hasActiveSubscription",
      "outputs": [
        {
          "internalType": "bool",
          "name": "",
          "type": "bool"
        }
      ],
      "stateMutability": "view",
      "type": "function"
    },
    {
      "inputs": [
        {
          "internalType": "bytes32",
          "name": "_instance",
          "type": "bytes32"
        },
        {
          "internalType": "address",
          "name": "_sender",
          "type": "address"
        }
      ],
      "name": "hasMutateAccess",
      "outputs": [
        {
          "internalType": "bool",
          "name": "access",
          "type": "bool"
        }
      ],
      "stateMutability": "view",
      "type": "function"
    },
    {
      "inputs": [
        {
          "internalType": "bytes32",
          "name": "_instance",
          "type": "bytes32"
        },
        {
          "internalType": "address",
          "name": "_sender",
          "type": "address"
        }
      ],
      "name": "hasViewAccess",
      "outputs": [
        {
          "internalType": "bool",
          "name": "",
          "type": "bool"
        }
      ],
      "stateMutability": "view",
      "type": "function"
    },
    {
      "inputs": [
        {
          "internalType": "bytes32",
          "name": "_instance",
          "type": "bytes32"
        },
        {
          "internalType": "address[]",
          "name": "_members",
          "type": "address[]"
        }
      ],
      "name": "insertNewMembers",
      "outputs": [],
      "stateMutability": "nonpayable",
      "type": "function"
    },
    {
      "inputs": [
        {
          "internalType": "bytes32",
          "name": "",
          "type": "bytes32"
        }
      ],
      "name": "instanceSubscription",
      "outputs": [
        {
          "internalType": "contract IGated",
          "name": "subscriptionContract",
          "type": "address"
        },
        {
          "internalType": "address",
          "name": "creator",
          "type": "address"
        },
        {
          "internalType": "uint256",
          "name": "prize",
          "type": "uint256"
        }
      ],
      "stateMutability": "view",
      "type": "function"
    },
    {
      "inputs": [
        {
          "internalType": "bytes32",
          "name": "",
          "type": "bytes32"
        }
      ],
      "name": "instances",
      "outputs": [
        {
          "internalType": "address",
          "name": "gatedContract",
          "type": "address"
        },
        {
          "internalType": "uint256",
          "name": "price",
          "type": "uint256"
        },
        {
          "internalType": "address",
          "name": "creator",
          "type": "address"
        }
      ],
      "stateMutability": "view",
      "type": "function"
    },
    {
      "inputs": [
        {
          "internalType": "bytes32",
          "name": "",
          "type": "bytes32"
        }
      ],
      "name": "isType",
      "outputs": [
        {
          "internalType": "enum Core.Types",
          "name": "",
          "type": "uint8"
        }
      ],
      "stateMutability": "view",
      "type": "function"
    },
    {
      "inputs": [
        {
          "internalType": "address",
          "name": "",
          "type": "address"
        },
        {
          "internalType": "address",
          "name": "",
          "type": "address"
        },
        {
          "internalType": "uint256",
          "name": "",
          "type": "uint256"
        },
        {
          "internalType": "bytes",
          "name": "",
          "type": "bytes"
        }
      ],
      "name": "onERC721Received",
      "outputs": [
        {
          "internalType": "bytes4",
          "name": "",
          "type": "bytes4"
        }
      ],
      "stateMutability": "view",
      "type": "function"
    },
    {
      "inputs": [],
      "name": "owner",
      "outputs": [
        {
          "internalType": "address",
          "name": "",
          "type": "address"
        }
      ],
      "stateMutability": "view",
      "type": "function"
    },
    {
      "inputs": [
        {
          "internalType": "bytes32",
          "name": "_instanceID",
          "type": "bytes32"
        }
      ],
      "name": "purchaseInstanceSubscription",
      "outputs": [],
      "stateMutability": "payable",
      "type": "function"
    },
    {
      "inputs": [
        {
          "internalType": "bytes32",
          "name": "_instance",
          "type": "bytes32"
        },
        {
          "internalType": "address[]",
          "name": "_members",
          "type": "address[]"
        }
      ],
      "name": "removeMembers",
      "outputs": [],
      "stateMutability": "nonpayable",
      "type": "function"
    },
    {
      "inputs": [],
      "name": "renounceOwnership",
      "outputs": [],
      "stateMutability": "nonpayable",
      "type": "function"
    },
    {
      "inputs": [
        {
          "internalType": "address",
          "name": "contractAddress",
          "type": "address"
        },
        {
          "internalType": "address",
          "name": "newOwner",
          "type": "address"
        }
      ],
      "name": "safeTransferDomainOwnership",
      "outputs": [],
      "stateMutability": "nonpayable",
      "type": "function"
    },
    {
      "inputs": [
        {
          "internalType": "uint256",
          "name": "tokenId",
          "type": "uint256"
        },
        {
          "internalType": "bytes32",
          "name": "baseNode",
          "type": "bytes32"
        },
        {
          "internalType": "bytes32",
          "name": "node",
          "type": "bytes32"
        }
      ],
      "name": "setQUADBNode",
      "outputs": [],
      "stateMutability": "nonpayable",
      "type": "function"
    },
    {
      "inputs": [
        {
          "internalType": "uint256",
          "name": "",
          "type": "uint256"
        }
      ],
      "name": "tableIDs",
      "outputs": [
        {
          "internalType": "uint256",
          "name": "",
          "type": "uint256"
        }
      ],
      "stateMutability": "view",
      "type": "function"
    },
    {
      "inputs": [
        {
          "internalType": "uint256",
          "name": "",
          "type": "uint256"
        }
      ],
      "name": "tables",
      "outputs": [
        {
          "internalType": "string",
          "name": "",
          "type": "string"
        }
      ],
      "stateMutability": "view",
      "type": "function"
    },
    {
      "inputs": [
        {
          "internalType": "address",
          "name": "contractAddress",
          "type": "address"
        },
        {
          "internalType": "address",
          "name": "newOwner",
          "type": "address"
        }
      ],
      "name": "transferDomainOwnership",
      "outputs": [],
      "stateMutability": "nonpayable",
      "type": "function"
    },
    {
      "inputs": [
        {
          "internalType": "address",
          "name": "newOwner",
          "type": "address"
        }
      ],
      "name": "transferOwnership",
      "outputs": [],
      "stateMutability": "nonpayable",
      "type": "function"
    },
    {
      "inputs": [
        {
          "internalType": "bytes32",
          "name": "_codeID",
          "type": "bytes32"
        },
        {
          "internalType": "string",
          "name": "_name",
          "type": "string"
        },
        {
          "internalType": "string",
          "name": "_about",
          "type": "string"
        }
      ],
      "name": "updateCode",
      "outputs": [],
      "stateMutability": "nonpayable",
      "type": "function"
    },
    {
      "inputs": [
        {
          "internalType": "bytes32",
          "name": "_instanceID",
          "type": "bytes32"
        },
        {
          "internalType": "string",
          "name": "_metadataCID",
          "type": "string"
        }
      ],
      "name": "updateInstance",
      "outputs": [],
      "stateMutability": "nonpayable",
      "type": "function"
    },
    {
      "stateMutability": "payable",
      "type": "receive"
    }
  ],
  "transactionHash": "0x47d80a14f2fcc44a613d9e4a60264ac5b6d14803459019f35c672a7676bc336c",
  "args": [
    "0x916915d0d41EaA8AAEd70b2A5Fb006FFc213961b",
    "0x45d9d6408d5159a379924cf423cb7e15C00fA81f",
    "0xed9bd04b1BB87Abe2EfF583A977514940c95699c",
    "0x78f6b1389af563cc5c91f234ea46b055e49658d8b999eeb9e0baef7dbbc93fdb",
    "0xC26343744c74cf342b18Ee6a2bA0D3D8bf780ca1",
    "0xC38db51d09E0C01B7d9d039F072d1393fba97476"
  ],
  "numDeployments": 1,
  "solcInputHash": "24c4f9eb73dae9f8f993ddb7e0fbccc0",
  "bytecode": "0x61010060409080825234620007875760c081620043938038038091620000268285620007da565b83398101031262000787576200003c81620007fe565b9060206200004c818301620007fe565b926200005a858401620007fe565b6060840151906200007c60a06200007460808801620007fe565b9601620007fe565b9160009384549260018060a01b0319933385821617875560018060a01b03998a80948193823391167f8be0079c531659141344cd1fd0a4f28419497f9722a3daafe3b4186f6b6457e08c80a3166080521660a0521660c05260025585600495168186541617855585600592169082541617815584620000fa62000eac565b1660e0526200017862000172875162000113816200078c565b603881527f44425370616365494420746578742c20444253756253706163654f6649442074868201527f6578742c20444253756253706163654e616d6520746578740000000000000000898201526200016b6200082f565b9062000e2f565b620008ac565b85516001600160401b03959060c081018781118282101762000774576200026a9162000172918a52609a81527f496e7374616e6365494420746578742c20696e7374616e63654f665370616365878201527f20746578742c20696e7374616e63655479706520746578742c206d65746164618a8201527f746143494420746578742c2049504e5320746578742c2049504e53456e63727960608201527f707465644b657920746578742c206761746564436f6e7472616374207465787460808201527f2c20707269636520746578742c2063726561746f72207465787400000000000060a08201526200016b62000b5e565b865160a08101818110888211176200077457620003129162000172918a52606381527f496e7374616e6365494420746578742c20636f6465494420746578742c206e61878201527f6d6520746578742c2061626f757420746578742c2049504e5320746578742c208a8201527f49504e53456e637279707465644b657920746578742c2063726561746f722074606082015262195e1d60ea1b60808201526200016b62000b99565b6200036f62000172885162000327816200078c565b602d81527f496e7374616e6365494420746578742c20737562736372696265722074657874878201526c0b08195b991cd05d081d195e1d609a1b8a8201526200016b62000bc6565b620003b76200017288516200038481620007be565b601c81527f496e7374616e6365494420746578742c206d656d626572207465787400000000878201526200016b62000bf1565b60e05116948651916361a23d0f60e01b83528383604481019830898301526024998b8b84015260075480915260648301606482871b85010191600786528a86209186905b828210620006c957505050508383809203925af1928315620006bf5784936200060d575b50508151908111620005fb57680100000000000000008111620005fb57836009928354838555808410620005de575b5001828452848420845b838110620005cb57505050506200046e6200082f565b815415620005b9576200048d6200049391838552858520549062000c43565b62000a34565b6200049d62000b5e565b815460011015620005b9576200048d620004c291838552600186862001549062000c43565b620004cc62000b99565b815460021015620005b9576200048d620004f191838552600286862001549062000c43565b620004fb62000bc6565b815460031015620005b9576200048d6200052091838552600386862001549062000c43565b6200052a62000bf1565b948154851015620005a8575081522001546200054c916200048d919062000c43565b5161333590816200105e8239608051818181611d68015261241d015260a0518181816108de01528181610b7b015281816115130152611b52015260c0518181816101d20152612472015260e051818181610534015261327e0152f35b634e487b7160e01b83526032855282fd5b634e487b7160e01b8352603285528583fd5b8251828201559186019160010162000458565b848652828620620005f491810190850162000893565b386200044e565b634e487b7160e01b8352604185528583fd5b909192503d8085833e620006228183620007da565b8101908581830312620006bb57805190848211620006a5570181601f82011215620006bb57805192848411620006a95783901b908951936200066788840186620007da565b84528680850192820101928311620006a55786809101915b8383106200069457505050509038806200041f565b82518152918101918791016200067f565b8580fd5b634e487b7160e01b8652604188528886fd5b8480fd5b88513d86823e3d90fd5b92955092909395506063198982030182528a8a865490620006ea8262000856565b8085526001928084169081156200075757506001146200071d575b506001935096019201920192899593899593620003fb565b888e52838e208e9592505b81861062000740575050600193839101013862000705565b805483870186015293909401938e93830162000728565b60ff191686860152506001949015158b1b01830190503862000705565b634e487b7160e01b855260418752602485fd5b600080fd5b606081019081106001600160401b03821117620007a857604052565b634e487b7160e01b600052604160045260246000fd5b604081019081106001600160401b03821117620007a857604052565b601f909101601f19168101906001600160401b03821190821017620007a857604052565b51906001600160a01b03821682036200078757565b6001600160401b038111620007a857601f01601f191660200190565b604051906200083e82620007be565b600982526864625f73706163657360b81b6020830152565b90600182811c9216801562000888575b60208310146200087257565b634e487b7160e01b600052602260045260246000fd5b91607f169162000866565b8181106200089f575050565b6000815560010162000893565b60075468010000000000000000811015620007a8576001918282018060075582101562000a1e576007600090815281517fa66cc928b5edb82af9bd49922954155ab7b0942694bea4ce44661d9a8736c68890930193602093929091906001600160401b03841162000a0a5762000923865462000856565b601f8111620009cc575b508491601f8511600114620009695793945084929190836200095d575b50501b916000199060031b1c1916179055565b0151925038806200094a565b86815285812093958591601f198316915b88838310620009b1575050501062000997575b505050811b019055565b015160001960f88460031b161c191690553880806200098d565b8587015188559096019594850194879350908101906200097a565b620009f890878452868420601f870160051c810191888810620009ff575b601f0160051c019062000893565b386200092d565b9091508190620009ea565b634e487b7160e01b82526041600452602482fd5b634e487b7160e01b600052603260045260246000fd5b60085468010000000000000000811015620007a8576001918282018060085582101562000a1e576008600090815281517ff3f7a9fe364faab93b216da50a3214154f22a0a2b415b23a84c8169e8b636ee390930193602093929091906001600160401b03841162000a0a5762000aab865462000856565b601f811162000b2c575b508491601f851160011462000ae45793945084929190836200095d5750501b916000199060031b1c1916179055565b86815285812093958591601f198316915b8883831062000b1157505050106200099757505050811b019055565b85870151885590960195948501948793509081019062000af5565b62000b5790878452868420601f870160051c810191888810620009ff57601f0160051c019062000893565b3862000ab5565b6040519062000b6d82620007be565b601382527f64625f7370616365735f696e7374616e636573000000000000000000000000006020830152565b6040519062000ba882620007be565b600f82526e696e7374616e6365735f636f64657360881b6020830152565b6040519062000bd582620007be565b600d82526c737562736372697074696f6e7360981b6020830152565b6040519062000c0082620007be565b60078252666d656d6265727360c81b6020830152565b9081519160005b83811062000c2f575050016000815290565b806020809284010151818501520162000c1d565b62000cac9062000c9d62000c7f93600162000c6962000c624662000caf565b9262000caf565b9162000c92604051978896602088019062000c16565b9183605f60f81b93848152019062000c16565b908152019062000c16565b03601f198101835282620007da565b90565b806000917a184f03e93ff9f4daa797ed6e38ed64bf6a1f0100000000000000008082101562000e20575b506d04ee2d6d415b85acef81000000008083101562000e10575b50662386f26fc100008083101562000e00575b506305f5e1008083101562000df0575b506127108083101562000de0575b50606482101562000dcf575b600a8092101562000dc4575b6001908160218186019562000d518762000813565b9662000d616040519889620007da565b80885262000d72601f199162000813565b01366020890137860101905b62000d8b575b5050505090565b600019019083906f181899199a1a9b1b9c1cb0b131b232b360811b8282061a83530491821562000dbe5791908262000d7e565b62000d84565b916001019162000d3c565b919060646002910491019162000d30565b6004919392049101913862000d24565b6008919392049101913862000d16565b6010919392049101913862000d06565b6020919392049101913862000cf3565b60409350810491503862000cd9565b600162000e779262000e9562000cac938362000e8662000e4f4662000caf565b82604051998a976c021a922a0aa22902a20a126229609d1b60208a0152602d89019062000c16565b605f60f81b8152019062000c16565b600560fb1b8152019062000c16565b602960f81b815203601e19810184520182620007da565b4660010362000ecd5773012969f7e3439a9b04025b5a049eb9bad82a8c1290565b46600a0362000eee5773fad44bf5b843de943a09d4f3e84949a11d3aa3e690565b4661a4b10362000f1057739abd75e8640871a5a20d3b4ee6330a04c962affd90565b4661a4ba0362000f3257731a22854c5b1642760a827f20137a67930ae108d290565b4660890362000f5357735c4e6a9e5c1e1bf445a062006faf19ea6c49afea90565b4661013a0362000f75577359ef8bf2d6c102b4c42aef9189e1a9f0abfd652d90565b4662aa36a70362000f985773c50c62498448acc8dbde43da77f8d5d2e2c7597d90565b466101a40362000fba5773c72e8a7be04f2469f8c2db3f1bdf69a7d516abba90565b4662066eee0362000fdd5773223a74b8323914afdc3ff1e5005564dc17231d6e90565b4662013881036200100057734b48841d4b32c4650e4abc117a03fe8b51f38f6890565b466204cb2f03620010235773030bcf3d50cad04c2e57391b12740982a930862190565b46617a6903620010455773e7f1725e7734ce288f8367e1bb143e90bb3f051290565b60405163264e42cf60e01b8152466004820152602490fdfe608080604052600436101561001d575b50361561001b57600080fd5b005b600090813560e01c90816306433b1b14611d54575080630c9ddf6d14611bd757806311ad2f3414611ba4578063150b7a0214611b0b5780632711447f14611abe578063284e82e8146118e45780633e203835146118b55780633ec29e721461176357806347d121c51461173c578063557ed1ba14611721578063606410db14611703578063715018a6146116a957806371671bf21461157d57806379e63e10146114e25780637a9b777414611471578063820cc5571461145357806384ec96531461142657806388975383146113ff5780638a8fd250146113ad5780638da5cb5b1461138657806396d565cb14610d9d5780639ad66a2314610c0b5780639da308a414610b4a578063a58dcc9514610b1f578063a5df63d614610aee578063b35b8e7414610aba578063ba0d18aa14610a6d578063bfc51b7e146109e1578063c91f6694146109b2578063ca16ac801461090d578063cb609077146108c8578063d0ed111014610563578063d68d087c1461051e578063e0cf1e4c14610317578063e2b1e4ed146102ca578063f2fde38b146102045763ffeb4a300361000f57346102015780600319360112610201576040517f00000000000000000000000000000000000000000000000000000000000000006001600160a01b03168152602090f35b80fd5b50346102015760203660031901126102015761021e611dc9565b6102266120a9565b6001600160a01b0390811690811561027657600054826001600160601b0360a01b821617600055167f8be0079c531659141344cd1fd0a4f28419497f9722a3daafe3b4186f6b6457e0600080a380f35b60405162461bcd60e51b815260206004820152602660248201527f4f776e61626c653a206e6577206f776e657220697320746865207a65726f206160448201526564647265737360d01b6064820152608490fd5b5034610201576020366003190112610201576004358152600c60205260ff60408220541660405190600781101561030357602092508152f35b634e487b7160e01b83526021600452602483fd5b50346102015761032636612066565b8183929352602090600a8252604083209360018060a01b03946103548660028184541693015416331461238f565b806104b8575b5061036490613158565b91835b82518110156104b4576104af906104aa660102ba422a922960cd1b8861044d886104a3896103c88a610397611ee3565b969054978b6103d46103cf6103aa61302b565b936103b3611ee3565b989054946103c260039d612d37565b9a61304e565b5116612da6565b612d37565b946104446040519687878101996c024b739ba30b731b2a4a2101e9609d1b8b526d01020a7221036b2b6b132b9101e960951b815161041a81602d948d8688019101611fb8565b83019182015282519061043582603b958c8785019101611fb8565b0103601b810189520187611f97565b881b1c90612b52565b916040519889936b02222a622aa2290232927a6960a51b8486015261047c81518092602c968789019101611fb8565b84019283015251906104948260339586840190611fb8565b01036013810187520185611f97565b1b1c61327c565b613006565b610367565b8480f35b803b1561051a5784604051809263362eb0ab60e11b82528183816104df89600483016123c7565b03925af1801561050f579085916104f7575b5061035a565b61050090611f4e565b61050b5783386104f1565b8380fd5b6040513d87823e3d90fd5b8480fd5b50346102015780600319360112610201576040517f00000000000000000000000000000000000000000000000000000000000000006001600160a01b03168152602090f35b50346102015760a0366003190112610201576004356001600160401b0360243581811161050b57610598903690600401611d97565b926044358381116108c4576105b1903690600401611d97565b9290916064358581116108c0576105cc903690600401611d97565b9390956084359081116108bc576105e7903690600401611d97565b9690916105f4338561228c565b156108aa57604051948a6020966106296040828a8101948a86528c89848401378c82019083820152038a810184520182611f97565b519020998a8c52600c875260ff60408d205416600781101561089657610884578a8c52600b875260408c20336001600160601b0360a01b825416179055600c875260408c2060ff19815416600617905536906106849261211c565b9636906106909261211c565b94369061069c9261211c565b9536906106a89261211c565b6106b0611e28565b979054966106bc612ebe565b966106c5611e28565b949054956106d290613158565b6106db90612d37565b936106e590613158565b6106ee90612d37565b916106f890612d37565b9761070290612d37565b9261070c90612d37565b9061071690612d37565b9061072033612da6565b61072990612d37565b9360405199868b975190818c808b0192019161074492611fb8565b870194600b60fa1b95868c820152815191828d6021840192019161076792611fb8565b01856021820152815191828c6022840192019161078392611fb8565b01846022820152815191828b6023840192019161079f92611fb8565b01836023820152815191828a602484019201916107bb92611fb8565b018260248201528151918289602584019201916107d792611fb8565b019060258201528151918287602684019201916107f392611fb8565b01036006810185526026016108089085611f97565b6040519261081584611f61565b6040845283017f496e7374616e636549442c20636f646549442c206e616d652c2061626f75742c9052604083017f2049504e532c2049504e53456e637279707465644b65792c2063726561746f72905260031b1c61087293612ab2565b9160031b1c906108819161327c565b80f35b604051631144626f60e01b8152600490fd5b634e487b7160e01b8d52602160045260248dfd5b6040516346627df160e01b8152600490fd5b8880fd5b8780fd5b8580fd5b50346102015780600319360112610201576040517f00000000000000000000000000000000000000000000000000000000000000006001600160a01b03168152602090f35b50346102015761091c36612066565b818352600a602052826040812061094460018060a01b0360028184541693015416331461238f565b80610955575b505061088191613062565b803b156109ae57816040518092632f41d6e160e21b825281838161097c89600483016123c7565b03925af180156109a3571561094a5761099490611f4e565b61099f57823861094a565b8280fd5b6040513d84823e3d90fd5b5080fd5b5034610201576060366003190112610201576109cc6120a9565b60043560035560243560025560443560015580f35b5034610201576109f036611df5565b909291808352600c60205260ff6040842054166007811015610a59576108819394610a206005610a539314612153565b610a34610a2e36868461211c565b8461240b565b808752600c60205260408720805460ff1916600517905593369161211c565b916129fb565b634e487b7160e01b84526021600452602484fd5b5034610201576020366003190112610201576040606091600435815260066020522060018060a01b0390600282825416926001830154169101549060405192835260208301526040820152f35b503461020157602036600319011261020157602060018060a01b03610ae560043582600554166126a2565b60405191168152f35b5034610201576040366003190112610201576020610b15610b0d611ddf565b600435612808565b6040519015158152f35b503461020157602036600319011261020157602060018060a01b03610ae560043582600454166126a2565b50346102015760403660031901126102015780610b65611dc9565b610b6d611ddf565b90610b766120a9565b6003547f00000000000000000000000000000000000000000000000000000000000000006001600160a01b0316803b1561051a576040516323b872dd60e01b81526001600160a01b039384166004820152939092166024840152604483015282908290818381606481015b03925af180156109a357610bf7575b5060015580f35b610c0090611f4e565b610201578038610bf0565b506020366003190112610201576004358082526006602052610c3560026040842001543414612856565b808252600660205260408220546001600160a01b039083908216803b156109ae578180916024604051809481936320d3b93560e11b83523360048401525af180156109a357610d89575b5082905260066020526001604084200154166063340234810460631434151715610d7557906064610cb19204906128b0565b62278d00420190814211610d615761088191610d576103cf92610cd2611e75565b94905493610d15610ce1612fdd565b91610cf6610ced611e75565b95905496613158565b90610d0f6103cf610d096103cf33612da6565b92612bcf565b9161298b565b9260405192610d2384611f7c565b601e84527f496e7374616e636549442c20737562736372696265722c20656e647341740000602085015260031b1c90612ab2565b9160031b1c61327c565b634e487b7160e01b83526011600452602483fd5b634e487b7160e01b84526011600452602484fd5b610d9290611f4e565b61099f578238610c7f565b50346102015760c0366003190112610201576001600160401b036044351161020157366023604435011215610201576001600160401b036044356004013511610201573660246044356004013560051b604435010111610201576064356001600160401b0381116109ae57610e16903690600401611d97565b6084929192356001600160401b03811161099f57610e38903690600401611d97565b939060a4356001600160401b03811161051a57610e59903690600401611d97565b92906004358652600c60205260ff6040872054166007811015611372576005610e829114612153565b6040516020810190600435825288856040830137610eb26040828b81018b83820152036020810184520182611f97565b51902092838752600c60205260ff604088205416600781101561135e57610884578692604435600401356112c3575b604051610eed81611f61565b6001600160a01b0385811680835260243560208085019182523360408087019182528b8f52600a909252908d20945185549085166001600160a01b031991821617865591516001860155516002909401805494909316931692909217905515801590806112b8575b1561123e5750848852600c60205260408820805460ff19166003179055610f7e856024356124e9565b848852600c60205260ff60408920541696600788101561122a5793610fca6103cf999a94610fc261115895610fba60289661106a9a369161211c565b97369161211c565b98369161211c565b93610fd3611eac565b99905498610fdf612d77565b96610ff4610feb611eac565b9e90549b613158565b946110366103cf61103061102a61102461101e6103cf6110186103cf600435613158565b9a612bcf565b99612d37565b96612d37565b94612d37565b92612da6565b916110456103cf602435612bcf565b936110526103cf33612da6565b9660206040519d8e8b83829d51948593019101611fb8565b890196600b60fa1b9788602082015261108d825180936020602185019101611fb8565b018760218201526110a8825180936020602285019101611fb8565b018660228201526110c3825180936020602385019101611fb8565b018560238201526110de825180936020602485019101611fb8565b018460248201526110f9825180936020602585019101611fb8565b01836025820152611114825180936020602685019101611fb8565b0182602682015261112f825180936020602785019101611fb8565b019060278201526111498251809360208785019101611fb8565b01036008810185520183611f97565b6040519060a08201938285106001600160401b038611176112145761088197610d5795604052606d84527f496e7374616e636549442c20696e7374616e63654f6653706163652c20696e7360208501527f74616e6365547970652c206d657461646174614349442c2049504e532c20495060408501527f4e53456e637279707465644b65792c206761746564436f6e74726163742c207060608501526c3934b1b2961031b932b0ba37b960991b608085015260031b1c90612ab2565b634e487b7160e01b600052604160045260246000fd5b634e487b7160e01b89526021600452602489fd5b80806112ad575b156112735750848852600c60205260408820805460ff1916600117905561126e856024356124e9565b610f7e565b1561129457848852600c60205260408820805460ff19166002179055610f7e565b600c60205260408820805460ff19166004179055610f7e565b506024351515611245565b506024351515610f55565b92506112db3660443560040135602460443501612000565b61133988806112f48860018060a01b0360045416612607565b9360405161132581611317602082019463a224cee760e01b8652602483016123c7565b03601f198101835282611f97565b519082865af1611333612599565b506125c9565b926113596113533660443560040135602460443501612000565b86613062565b610ee1565b634e487b7160e01b88526021600452602488fd5b634e487b7160e01b87526021600452602487fd5b5034610201578060031936011261020157546040516001600160a01b039091168152602090f35b5034610201576020366003190112610201576004356009548110156109ae5760209060096000527f6e1540171b6c0c960b71a7020d9f60077f6af931a8bbf590da0223dacf75c7af0154604051908152f35b5034610201576040366003190112610201576020610b1561141e611ddf565b60043561228c565b5034610201576040366003190112610201576020610b15611445611dc9565b61144d611ddf565b906126fa565b50346102015780600319360112610201576020600354604051908152f35b5034610201576020366003190112610201576004356001600160401b0381116109ae576114a5610881913690600401611d97565b610a536114bf6001546114b936858761211c565b9061240b565b92838652600c60205260408620600560ff1982541617905560015492369161211c565b503461020157604036600319011261020157806114fd611dc9565b611505611ddf565b9061150e6120a9565b6003547f00000000000000000000000000000000000000000000000000000000000000006001600160a01b0316803b1561051a57604051632142170760e11b81526001600160a01b03938416600482015293909216602484015260448301528290829081838160648101610be1565b5034610201576020806003193601126109ae5760043560085481101561099f5760086000527ff3f7a9fe364faab93b216da50a3214154f22a0a2b415b23a84c8169e8b636ee30190604051918381549460019086821c9382881697881561169f575b868610891461168b57868899878a98999a52918260001461166757505060011461162b575b50505061161392500383611f97565b611627604051928284938452830190611fdb565b0390f35b869350819291528282205b85831061164f5750506116139350820101388080611604565b80548389018501528794508693909201918101611636565b93509450505061161394915060ff191682840152151560051b820101388080611604565b634e487b7160e01b83526022600452602483fd5b94607f16946115df565b50346102015780600319360112610201576116c26120a9565b600080546001600160a01b0319811682556001600160a01b03167f8be0079c531659141344cd1fd0a4f28419497f9722a3daafe3b4186f6b6457e08280a380f35b50346102015780600319360112610201576020600154604051908152f35b50346102015780600319360112610201576020604051428152f35b5034610201576040366003190112610201576020610b1561175b611ddf565b60043561219f565b50346102015761177236611df5565b828452600a6020908152604085206002015490939291906001600160a01b03163303611870576118566117af610881959493610d5793369161211c565b926117b8611eac565b959054946117e4611866602d6117cc612d77565b9461182c6103cf6117db611eac565b96905497612d37565b98611827602e604051809c6d036b2ba30b230ba30a1a4a2101e960951b88830152611817815180928a8686019101611fb8565b810103600e81018d52018b611f97565b613158565b60405198826c024b739ba30b731b2a4a2101e9609d1b8b9485015282519283918686019101611fb8565b810103600d810188520186611f97565b60031b1c90612ee9565b60405162461bcd60e51b815260048101859052601960248201527f51554144423a204e6f20696e7374616e636520616363657373000000000000006044820152606490fd5b50346102015760403660031901126102015760206118dc6118d4611ddf565b60043561278c565b604051908152f35b50602090816003193601126102015760043591611901338461278c565b8383526006825261191a60026040852001543414612856565b8383526006825260408320546001600160a01b03908116803b1561051a57848091602460405180948193630684c62560e11b83523360048401525af1801561050f57611aab575b50848452600683526001604085200154166063340234810460631434151715611a97579060646119929204906128b0565b62278d008101809111610d6157610d57611a8861088194956119b2611e75565b959054946103cf611866603f6119c6612fdd565b94611a1f6103cf6119e16119d8611e75565b97905498612bcf565b986118276029604051809c68032b73239a0ba101e960bd1b88830152611a0f815180928a8686019101611fb8565b810103600981018d52018b611f97565b90611a2c6103cf33612da6565b90604051998a936c024b739ba30b731b2a4a2101e9609d1b83860152611a5b8151809285602d89019101611fb8565b8401917101020a7221039bab139b1b934b132b9101e960751b602d84015283519384918785019101611fb8565b0103601f810188520186611f97565b634e487b7160e01b85526011600452602485fd5b611ab790949194611f4e565b9238611961565b50346102015760203660031901126102015760406060916004358152600a6020522060018060a01b0390818154169160026001830154920154169060405192835260208301526040820152f35b503461020157608036600319011261020157611b25611dc9565b50611b2e611ddf565b506064356001600160401b0381116109ae57611b4e903690600401611d97565b50507f00000000000000000000000000000000000000000000000000000000000000006001600160a01b03163303611b9257604051630a85bd0160e11b8152602090f35b604051634a93b62160e11b8152600490fd5b5034610201576020366003190112610201576020906004358152600b8252604060018060a01b0391205416604051908152f35b5034610201576060366003190112610201576004356001600160401b0360243581811161050b57611c0c903690600401611d97565b909160443590811161051a57611c26903690600401611d97565b848652600b60209081526040872054909391906001600160a01b03163303611d425761088195611c6c610d5794611c64602998611d3296369161211c565b93369161211c565b91611ca7611866611c7b611e28565b99905498611d0c6103cf611c8d612ebe565b976118276031611cad611c9e611e28565b9a90549b612d37565b9c612d37565b9b6040519c8d916603730b6b2901e960cd1b89840152611cd6815180928b602787019101611fb8565b8201690161030b137baba101e960b51b6027820152611cfd825180938b8785019101611fb8565b0103601181018d52018b611f97565b604051988268031b7b232a4a2101e960bd1b8b9485015282519283918686019101611fb8565b8101036009810188520186611f97565b6040516306815cbd60e41b8152600490fd5b9050346109ae57816003193601126109ae577f00000000000000000000000000000000000000000000000000000000000000006001600160a01b03168152602090f35b9181601f84011215611dc4578235916001600160401b038311611dc45760208381860195010111611dc457565b600080fd5b600435906001600160a01b0382168203611dc457565b602435906001600160a01b0382168203611dc457565b906040600319830112611dc45760043591602435906001600160401b038211611dc457611e2491600401611d97565b9091565b60095460021015611e5f5760096000527f6e1540171b6c0c960b71a7020d9f60077f6af931a8bbf590da0223dacf75c7b190600090565b634e487b7160e01b600052603260045260246000fd5b60095460031015611e5f5760096000527f6e1540171b6c0c960b71a7020d9f60077f6af931a8bbf590da0223dacf75c7b290600090565b60095460011015611e5f5760096000527f6e1540171b6c0c960b71a7020d9f60077f6af931a8bbf590da0223dacf75c7b090600090565b60095460041015611e5f5760096000527f6e1540171b6c0c960b71a7020d9f60077f6af931a8bbf590da0223dacf75c7b390600090565b60095415611e5f5760096000527f6e1540171b6c0c960b71a7020d9f60077f6af931a8bbf590da0223dacf75c7af90600090565b6001600160401b03811161121457604052565b606081019081106001600160401b0382111761121457604052565b604081019081106001600160401b0382111761121457604052565b90601f801991011681019081106001600160401b0382111761121457604052565b60005b838110611fcb5750506000910152565b8181015183820152602001611fbb565b90602091611ff481518092818552858086019101611fb8565b601f01601f1916010190565b9092916001600160401b038411611214578360051b604051926020809461202982850182611f97565b8097815201918101928311611dc457905b8282106120475750505050565b81356001600160a01b0381168103611dc457815290830190830161203a565b906040600319830112611dc45760043591602435906001600160401b038211611dc45780602383011215611dc4578160246120a693600401359101612000565b90565b6000546001600160a01b031633036120bd57565b606460405162461bcd60e51b815260206004820152602060248201527f4f776e61626c653a2063616c6c6572206973206e6f7420746865206f776e65726044820152fd5b6001600160401b03811161121457601f01601f191660200190565b92919261212882612101565b916121366040519384611f97565b829481845281830111611dc4578281602093846000960137010152565b1561215a57565b60405162461bcd60e51b815260206004820152601c60248201527f51554144423a204e6f6465206973206e6f742061207375626e6f6465000000006044820152606490fd5b906000828152600a60205260018060a01b0360408220541690600c60205260ff6040822054166007811015612278576003036121e05750506120a691612808565b838152600c60205260ff604082205416600781101561227857600103612221575061220b90826126fa565b91821561221757505090565b6120a69250612808565b8392508093915052600c60205260ff604083205416600781101561030357600214908115612256575b50156120a65750600190565b825250600c602052604081205460ff166007811015612278576004143861224a565b634e487b7160e01b82526021600452602482fd5b919060008091848352600a60205260018060a01b038060408520541695600c60205260ff604086205416936007851015978861137257600386036123075750508452600a60205280600260408620015416911614935b61227857600481119081156122fe575b506122fa5750565b9150565b905015386122f2565b90975085939291939760018614600014612356575061232690836126fa565b928315612338575b505050935b6122e2565b8552600a60205260408520600201548116911614905038808061232e565b9750925050839560028414600014612379575090612373916126fa565b936122e2565b95505050816004820361233357600194506122e2565b1561239657565b60405162461bcd60e51b81526020600482015260096024820152684e6f2061636365737360b81b6044820152606490fd5b6020908160408183019282815285518094520193019160005b8281106123ee575050505090565b83516001600160a01b0316855293810193928101926001016123e0565b906020815191012060018060a01b03807f00000000000000000000000000000000000000000000000000000000000000001690813b15611dc45760009160a4839260405194859384926305ef2c7f60e41b84528960048501528860248501523060448501527f00000000000000000000000000000000000000000000000000000000000000001660648401528160848401525af180156124dd576124ce575b5060405190602082019283526040820152604081526124c881611f61565b51902090565b6124d790611f4e565b386124aa565b6040513d6000823e3d90fd5b6005546001600160a01b0392600292916125069082908616612607565b93612540600080604051602081019063189acdbd60e31b82523060248201526024815261253281611f61565b5190828a5af1611333612599565b806040519561254e87611f61565b1685526020850191338352604086019384526000526006602052806040600020955116906001600160601b0360a01b9182875416178655600186019251169082541617905551910155565b3d156125c4573d906125aa82612101565b916125b86040519384611f97565b82523d6000602084013e565b606090565b156125d057565b60405162461bcd60e51b815260206004820152600f60248201526e6572726f72206465706c6f79696e6760881b6044820152606490fd5b6e5af43d82803e903d91602b57fd5bf390763d602d80600a3d3981f3363d3d373d3d3d363d7300000062ffffff8260881c161760005260781b17602052603760096000f5906001600160a01b0382161561265d57565b60405162461bcd60e51b815260206004820152601760248201527f455243313136373a2063726561746532206661696c65640000000000000000006044820152606490fd5b604390605592604051913060388401526f5af43d82803e903d91602b57fd5bf3ff60248401526014830152733d602d80600a3d3981f3363d3d373d3d3d363d73825260588201526037600c8201206078820152012090565b6000916001600160a01b039081169190826127185750505050600090565b602460209260405194859384926370a0823160e01b84521660048301525afa91821561278057809261274c575b5050151590565b9091506020823d8211612778575b8161276760209383611f97565b810103126102015750513880612745565b3d915061275a565b604051903d90823e3d90fd5b600090815260066020908152604080832054905163074288bd60e11b81526001600160a01b039485166004820152929383916024918391165afa9182156127805780926127d857505090565b9091506020823d8211612800575b816127f360209383611f97565b8101031261020157505190565b3d91506127e6565b60009081526006602090815260408083205490516370a0823160e01b81526001600160a01b039485166004820152929383916024918391165afa91821561278057809261274c575050151590565b1561285d57565b60405162461bcd60e51b815260206004820152602560248201527f51554144423a204e6f2070726963652073657420666f72207468697320696e7360448201526474616e636560d81b6064820152608490fd5b814710612946576000918291829182916001600160a01b03165af16128d3612599565b50156128db57565b60405162461bcd60e51b815260206004820152603a60248201527f416464726573733a20756e61626c6520746f2073656e642076616c75652c207260448201527f6563697069656e74206d617920686176652072657665727465640000000000006064820152608490fd5b60405162461bcd60e51b815260206004820152601d60248201527f416464726573733a20696e73756666696369656e742062616c616e63650000006044820152606490fd5b6022906129f992949360405195826129ad889451809260208088019101611fb8565b830190600b60fa1b918260208201526129d0825180936020602185019101611fb8565b019060218201526129ea8251809360208785019101611fb8565b01036002810185520183611f97565b565b90610d57612a62926103cf6129f995612a12611f1a565b9690549560405192612a2384611f7c565b600984526864625f73706163657360b81b6020850152610d0f612a5c6103cf612a56612a4d611f1a565b9990549a613158565b94613158565b91612d37565b9260405192612a7084611f61565b602984527f4442537061636549442c20444253756253706163654f6649442c20444253756260208501526853706163654e616d6560b81b604085015260031b1c905b92612ac36036926120a69495612b52565b906040519485926b024a729a2a92a1024a72a27960a51b6020850152612af3815180926020602c88019101611fb8565b8301600560fb1b602c820152612b13825180936020602d85019101611fb8565b0167052ac8298aa8aa6560c31b602d820152612b39825180936020603585019101611fb8565b01602960f81b6035820152036016810184520182611f97565b60226120a691612b6a612b6446612bcf565b94612bcf565b6040519482612b83879451809260208088019101611fb8565b830190605f60f81b91826020820152612ba6825180936020602185019101611fb8565b01906021820152612bc08251809360208785019101611fb8565b01036002810184520182611f97565b806000917a184f03e93ff9f4daa797ed6e38ed64bf6a1f01000000000000000080821015612d29575b506d04ee2d6d415b85acef810000000080831015612d1a575b50662386f26fc1000080831015612d0b575b506305f5e10080831015612cfc575b5061271080831015612ced575b506064821015612cdd575b600a80921015612cd3575b60019081602181860195612c6887612101565b96612c766040519889611f97565b808852612c85601f1991612101565b01366020890137860101905b612c9d575b5050505090565b600019019083906f181899199a1a9b1b9c1cb0b131b232b360811b8282061a835304918215612cce57919082612c91565b612c96565b9160010191612c55565b9190606460029104910191612c4a565b60049193920491019138612c3f565b60089193920491019138612c32565b60109193920491019138612c23565b60209193920491019138612c11565b604093508104915038612bf8565b6120a660226040518093602760f81b90816020840152612d61815180926020602187019101611fb8565b8201906021820152036002810184520182611f97565b60405190612d8482611f7c565b601382527264625f7370616365735f696e7374616e63657360681b6020830152565b604051906001600160a01b0316612dbc82611f61565b602a8252602082016040368237825115611e5f57603090538151600190811015611e5f57607860218401536029905b808211612e3f575050612dfb5790565b606460405162461bcd60e51b815260206004820152602060248201527f537472696e67733a20686578206c656e67746820696e73756666696369656e746044820152fd5b9091600f81166010811015612e98576f181899199a1a9b1b9c1cb0b131b232b360811b901a612e6e8486612ead565b5360041c918015612e83576000190190612deb565b60246000634e487b7160e01b81526011600452fd5b60246000634e487b7160e01b81526032600452fd5b908151811015611e5f570160200190565b60405190612ecb82611f7c565b600f82526e696e7374616e6365735f636f64657360881b6020830152565b90612ef691939293612b52565b9060405191602091828401928484106001600160401b03851117611214576120a694602c9460405260008152918051612f98575b50612f896040519687946602aa82220aa22960cd1b84870152612f56815180928660278a019101611fb8565b85016401029a2aa160dd1b6027820152612f7882518093868a85019101611fb8565b019183519384918785019101611fb8565b0103600c810184520182611f97565b909150612fd660276040518093660102ba422a922960cd1b86830152612fc681518092888686019101611fb8565b8101036007810184520182611f97565b9038612f2a565b60405190612fea82611f7c565b600d82526c737562736372697074696f6e7360981b6020830152565b60001981146130155760010190565b634e487b7160e01b600052601160045260246000fd5b6040519061303882611f7c565b60078252666d656d6265727360c81b6020830152565b8051821015611e5f5760209160051b010190565b61306e90929192613158565b9160005b81518110156131525761314d906104aa61308a611ee3565b905461309461302b565b916131456130a0611ee3565b90546003956130ae8d612d37565b916130c76103cf8d6103c88d60018060a01b039261304e565b937124b739ba30b731b2a4a2161036b2b6b132b960711b604061312a8151978888516130fb8160209b8c8086019101611fb8565b8101600b60fa1b8a82015282519061311b826021958d8785019101611fb8565b0103600181018a520188611f97565b519461313586611f7c565b60128652850152881b1c90612ab2565b921b1c61327c565b613072565b50509050565b6040519061316582611f61565b604082526020918281019160403684376040519061318282611f7c565b601082526f181899199a1a9b1b9c1cb0b131b232b360811b8583015260005b8581106131e15750505061060f60f31b926120a6926131d160229360405196879485015251809285850190611fb8565b8101036002810184520182611f97565b81811a9083518015613266576001600160f81b031990819061320590850487612ead565b51169060019383851b92848404600214851517156130155760001a61322a848a612ead565b53865180156132665761323e910687612ead565b51169281018091116130155761325b6132619360001a9187612ead565b53613006565b6131a1565b634e487b7160e01b600052601260045260246000fd5b7f00000000000000000000000000000000000000000000000000000000000000006001600160a01b031691823b15611dc4576132e59260009283604051809681958294631bbd786d60e11b84523060048501526024840152606060448401526064830190611fdb565b03925af180156124dd576132f65750565b6129f990611f4e56fea2646970667358221220d06b06cea68278ea2a248e8c0fcba07e677e69b682b957f746b62fa410b22e4a64736f6c63430008140033",
  "devdoc": {
    "details": "Create a decentralized Database NameSpaces Where space and subSpaces can get created and anyone can create instances inside a space and contribute to the public this is possible by integrating tableland SQL in solidity FNS system to support a decentralized Namespace of Database spaces IPNS and Push protocol for code and space discussions",
    "kind": "dev",
    "methods": {
      "createDBSpace(string)": {
        "details": "Create a new space under the given node",
        "params": {
          "_name": "The name of the new space"
        }
      },
      "createDBSubSpace(bytes32,string)": {
        "details": "Create a new subnode under the given node",
        "params": {
          "_DBSpace": "The parent node",
          "_name": "The name of the new subnode"
        }
      },
      "createInstanceCode(bytes32,string,string,string,string)": {
        "details": "Create a new instance under the given node",
        "params": {
          "_about": "The about of the new instance",
          "_codeIPNS": "The IPNS of the new instance",
          "_instance": "The parent node",
          "_name": "The name of the new instance"
        }
      },
      "createSpaceInstance(bytes32,uint256,address[],string,string,string)": {
        "details": "Create a new instance under the given node",
        "params": {
          "_IPNS": "The IPNS of the new instance",
          "_members": "The hatID of the new instance",
          "_metadataCID": "The name of the new instance",
          "_node": "The parent node"
        }
      },
      "hasViewAccess(bytes32,address)": {
        "details": "Check if the sender has access to the given instance",
        "params": {
          "_instance": "The instance to check",
          "_sender": "The sender to check"
        },
        "returns": {
          "_0": "bool"
        }
      },
      "owner()": {
        "details": "Returns the address of the current owner."
      },
      "renounceOwnership()": {
        "details": "Leaves the contract without owner. It will not be possible to call `onlyOwner` functions. Can only be called by the current owner. NOTE: Renouncing ownership will leave the contract without an owner, thereby disabling any functionality that is only available to the owner."
      },
      "transferOwnership(address)": {
        "details": "Transfers ownership of the contract to a new account (`newOwner`). Can only be called by the current owner."
      }
    },
    "title": "QUADB",
    "version": 1
  },
  "userdoc": {
    "errors": {
      "ChainNotSupported(uint256)": [
        {
          "notice": "Current chain does not have a TablelandTables deployment."
        }
      ]
    },
    "kind": "user",
    "methods": {},
    "version": 1
  },
  "storageLayout": {
    "storage": [
      {
        "astId": 7,
        "contract": "contracts/QUADB.sol:QUADB",
        "label": "_owner",
        "offset": 0,
        "slot": "0",
        "type": "t_address"
      },
      {
        "astId": 3555,
        "contract": "contracts/QUADB.sol:QUADB",
        "label": "QUADB_NODE",
        "offset": 0,
        "slot": "1",
        "type": "t_bytes32"
      },
      {
        "astId": 3557,
        "contract": "contracts/QUADB.sol:QUADB",
        "label": "BASE_NODE",
        "offset": 0,
        "slot": "2",
        "type": "t_bytes32"
      },
      {
        "astId": 3559,
        "contract": "contracts/QUADB.sol:QUADB",
        "label": "DOMAIN_ID",
        "offset": 0,
        "slot": "3",
        "type": "t_uint256"
      },
      {
        "astId": 3811,
        "contract": "contracts/QUADB.sol:QUADB",
        "label": "gatedImplementation",
        "offset": 0,
        "slot": "4",
        "type": "t_address"
      },
      {
        "astId": 3813,
        "contract": "contracts/QUADB.sol:QUADB",
        "label": "subscriptionImplementation",
        "offset": 0,
        "slot": "5",
        "type": "t_address"
      },
      {
        "astId": 3829,
        "contract": "contracts/QUADB.sol:QUADB",
        "label": "instanceSubscription",
        "offset": 0,
        "slot": "6",
        "type": "t_mapping(t_bytes32,t_struct(SubscriptionStruct)3824_storage)"
      },
      {
        "astId": 4160,
        "contract": "contracts/QUADB.sol:QUADB",
        "label": "createTableStatements",
        "offset": 0,
        "slot": "7",
        "type": "t_array(t_string_storage)dyn_storage"
      },
      {
        "astId": 4163,
        "contract": "contracts/QUADB.sol:QUADB",
        "label": "tables",
        "offset": 0,
        "slot": "8",
        "type": "t_array(t_string_storage)dyn_storage"
      },
      {
        "astId": 4166,
        "contract": "contracts/QUADB.sol:QUADB",
        "label": "tableIDs",
        "offset": 0,
        "slot": "9",
        "type": "t_array(t_uint256)dyn_storage"
      },
      {
        "astId": 3134,
        "contract": "contracts/QUADB.sol:QUADB",
        "label": "instances",
        "offset": 0,
        "slot": "10",
        "type": "t_mapping(t_bytes32,t_struct(SpaceInstance)3129_storage)"
      },
      {
        "astId": 3138,
        "contract": "contracts/QUADB.sol:QUADB",
        "label": "codeOwner",
        "offset": 0,
        "slot": "11",
        "type": "t_mapping(t_bytes32,t_address)"
      },
      {
        "astId": 3143,
        "contract": "contracts/QUADB.sol:QUADB",
        "label": "isType",
        "offset": 0,
        "slot": "12",
        "type": "t_mapping(t_bytes32,t_enum(Types)3122)"
      }
    ],
    "types": {
      "t_address": {
        "encoding": "inplace",
        "label": "address",
        "numberOfBytes": "20"
      },
      "t_array(t_string_storage)dyn_storage": {
        "base": "t_string_storage",
        "encoding": "dynamic_array",
        "label": "string[]",
        "numberOfBytes": "32"
      },
      "t_array(t_uint256)dyn_storage": {
        "base": "t_uint256",
        "encoding": "dynamic_array",
        "label": "uint256[]",
        "numberOfBytes": "32"
      },
      "t_bytes32": {
        "encoding": "inplace",
        "label": "bytes32",
        "numberOfBytes": "32"
      },
      "t_contract(IGated)3809": {
        "encoding": "inplace",
        "label": "contract IGated",
        "numberOfBytes": "20"
      },
      "t_enum(Types)3122": {
        "encoding": "inplace",
        "label": "enum Core.Types",
        "numberOfBytes": "1"
      },
      "t_mapping(t_bytes32,t_address)": {
        "encoding": "mapping",
        "key": "t_bytes32",
        "label": "mapping(bytes32 => address)",
        "numberOfBytes": "32",
        "value": "t_address"
      },
      "t_mapping(t_bytes32,t_enum(Types)3122)": {
        "encoding": "mapping",
        "key": "t_bytes32",
        "label": "mapping(bytes32 => enum Core.Types)",
        "numberOfBytes": "32",
        "value": "t_enum(Types)3122"
      },
      "t_mapping(t_bytes32,t_struct(SpaceInstance)3129_storage)": {
        "encoding": "mapping",
        "key": "t_bytes32",
        "label": "mapping(bytes32 => struct Core.SpaceInstance)",
        "numberOfBytes": "32",
        "value": "t_struct(SpaceInstance)3129_storage"
      },
      "t_mapping(t_bytes32,t_struct(SubscriptionStruct)3824_storage)": {
        "encoding": "mapping",
        "key": "t_bytes32",
        "label": "mapping(bytes32 => struct Gated.SubscriptionStruct)",
        "numberOfBytes": "32",
        "value": "t_struct(SubscriptionStruct)3824_storage"
      },
      "t_string_storage": {
        "encoding": "bytes",
        "label": "string",
        "numberOfBytes": "32"
      },
      "t_struct(SpaceInstance)3129_storage": {
        "encoding": "inplace",
        "label": "struct Core.SpaceInstance",
        "members": [
          {
            "astId": 3124,
            "contract": "contracts/QUADB.sol:QUADB",
            "label": "gatedContract",
            "offset": 0,
            "slot": "0",
            "type": "t_address"
          },
          {
            "astId": 3126,
            "contract": "contracts/QUADB.sol:QUADB",
            "label": "price",
            "offset": 0,
            "slot": "1",
            "type": "t_uint256"
          },
          {
            "astId": 3128,
            "contract": "contracts/QUADB.sol:QUADB",
            "label": "creator",
            "offset": 0,
            "slot": "2",
            "type": "t_address"
          }
        ],
        "numberOfBytes": "96"
      },
      "t_struct(SubscriptionStruct)3824_storage": {
        "encoding": "inplace",
        "label": "struct Gated.SubscriptionStruct",
        "members": [
          {
            "astId": 3819,
            "contract": "contracts/QUADB.sol:QUADB",
            "label": "subscriptionContract",
            "offset": 0,
            "slot": "0",
            "type": "t_contract(IGated)3809"
          },
          {
            "astId": 3821,
            "contract": "contracts/QUADB.sol:QUADB",
            "label": "creator",
            "offset": 0,
            "slot": "1",
            "type": "t_address"
          },
          {
            "astId": 3823,
            "contract": "contracts/QUADB.sol:QUADB",
            "label": "prize",
            "offset": 0,
            "slot": "2",
            "type": "t_uint256"
          }
        ],
        "numberOfBytes": "96"
      },
      "t_uint256": {
        "encoding": "inplace",
        "label": "uint256",
        "numberOfBytes": "32"
      }
    }
  }
}