{
  "address": "0x480B9364C0f8Cb53872a70e7e5CfF372FBc1090a",
  "abi": [
    {
      "inputs": [
        {
          "internalType": "address",
          "name": "_registry",
          "type": "address"
        },
        {
          "internalType": "address",
          "name": "_registrar",
          "type": "address"
        },
        {
          "internalType": "address",
          "name": "_publicResolver",
          "type": "address"
        },
        {
          "internalType": "bytes32",
          "name": "_baseNode",
          "type": "bytes32"
        },
        {
          "internalType": "address",
          "name": "_gateImplementation",
          "type": "address"
        },
        {
          "internalType": "address",
          "name": "_subscriptionImplementation",
          "type": "address"
        }
      ],
      "stateMutability": "nonpayable",
      "type": "constructor"
    },
    {
      "inputs": [
        {
          "internalType": "uint256",
          "name": "chainid",
          "type": "uint256"
        }
      ],
      "name": "ChainNotSupported",
      "type": "error"
    },
    {
      "inputs": [],
      "name": "InstanceAlreadyExists",
      "type": "error"
    },
    {
      "inputs": [],
      "name": "InvalidTokenAmount",
      "type": "error"
    },
    {
      "inputs": [],
      "name": "InvalidTokenSender",
      "type": "error"
    },
    {
      "inputs": [],
      "name": "NoCodeOwner",
      "type": "error"
    },
    {
      "inputs": [],
      "name": "NoInstanceAccess",
      "type": "error"
    },
    {
      "inputs": [],
      "name": "SubNodeAlreadyExists",
      "type": "error"
    },
    {
      "anonymous": false,
      "inputs": [
        {
          "indexed": true,
          "internalType": "address",
          "name": "previousOwner",
          "type": "address"
        },
        {
          "indexed": true,
          "internalType": "address",
          "name": "newOwner",
          "type": "address"
        }
      ],
      "name": "OwnershipTransferred",
      "type": "event"
    },
    {
      "inputs": [],
      "name": "DOMAIN_ID",
      "outputs": [
        {
          "internalType": "uint256",
          "name": "",
          "type": "uint256"
        }
      ],
      "stateMutability": "view",
      "type": "function"
    },
    {
      "inputs": [],
      "name": "PUBLIC_RESOLVER",
      "outputs": [
        {
          "internalType": "contract IFNSResolver",
          "name": "",
          "type": "address"
        }
      ],
      "stateMutability": "view",
      "type": "function"
    },
    {
      "inputs": [],
      "name": "QUADB_NODE",
      "outputs": [
        {
          "internalType": "bytes32",
          "name": "",
          "type": "bytes32"
        }
      ],
      "stateMutability": "view",
      "type": "function"
    },
    {
      "inputs": [],
      "name": "REGISTRAR",
      "outputs": [
        {
          "internalType": "contract IFNSRegistrar",
          "name": "",
          "type": "address"
        }
      ],
      "stateMutability": "view",
      "type": "function"
    },
    {
      "inputs": [],
      "name": "REGISTRY",
      "outputs": [
        {
          "internalType": "contract IFNS",
          "name": "",
          "type": "address"
        }
      ],
      "stateMutability": "view",
      "type": "function"
    },
    {
      "inputs": [],
      "name": "TABLELAND",
      "outputs": [
        {
          "internalType": "contract ITablelandTables",
          "name": "",
          "type": "address"
        }
      ],
      "stateMutability": "view",
      "type": "function"
    },
    {
      "inputs": [
        {
          "internalType": "bytes32",
          "name": "",
          "type": "bytes32"
        }
      ],
      "name": "codeOwner",
      "outputs": [
        {
          "internalType": "address",
          "name": "",
          "type": "address"
        }
      ],
      "stateMutability": "view",
      "type": "function"
    },
    {
      "inputs": [
        {
          "internalType": "string",
          "name": "_name",
          "type": "string"
        }
      ],
      "name": "createDBSpace",
      "outputs": [],
      "stateMutability": "nonpayable",
      "type": "function"
    },
    {
      "inputs": [
        {
          "internalType": "bytes32",
          "name": "_DBSpace",
          "type": "bytes32"
        },
        {
          "internalType": "string",
          "name": "_name",
          "type": "string"
        }
      ],
      "name": "createDBSubSpace",
      "outputs": [],
      "stateMutability": "nonpayable",
      "type": "function"
    },
    {
      "inputs": [
        {
          "internalType": "bytes32",
          "name": "_instance",
          "type": "bytes32"
        },
        {
          "internalType": "string",
          "name": "_name",
          "type": "string"
        },
        {
          "internalType": "string",
          "name": "_about",
          "type": "string"
        },
        {
          "internalType": "string",
          "name": "_codeIPNS",
          "type": "string"
        },
        {
          "internalType": "string",
          "name": "_IPNSEncryptedKey",
          "type": "string"
        }
      ],
      "name": "createInstanceCode",
      "outputs": [],
      "stateMutability": "nonpayable",
      "type": "function"
    },
    {
      "inputs": [
        {
          "internalType": "bytes32",
          "name": "_node",
          "type": "bytes32"
        },
        {
          "internalType": "uint256",
          "name": "_price",
          "type": "uint256"
        },
        {
          "internalType": "address[]",
          "name": "_members",
          "type": "address[]"
        },
        {
          "internalType": "uint256",
          "name": "_threshold",
          "type": "uint256"
        },
        {
          "internalType": "string",
          "name": "_metadataCID",
          "type": "string"
        },
        {
          "internalType": "string",
          "name": "_IPNS",
          "type": "string"
        },
        {
          "internalType": "string",
          "name": "_IPNSEncryptedKey",
          "type": "string"
        }
      ],
      "name": "createSpaceInstance",
      "outputs": [],
      "stateMutability": "nonpayable",
      "type": "function"
    },
    {
      "inputs": [
        {
          "internalType": "bytes32",
          "name": "_instanceID",
          "type": "bytes32"
        }
      ],
      "name": "extendInstanceSubscription",
      "outputs": [],
      "stateMutability": "payable",
      "type": "function"
    },
    {
      "inputs": [
        {
          "internalType": "address",
          "name": "_sender",
          "type": "address"
        },
        {
          "internalType": "address",
          "name": "_gatedContract",
          "type": "address"
        }
      ],
      "name": "getAccess",
      "outputs": [
        {
          "internalType": "bool",
          "name": "",
          "type": "bool"
        }
      ],
      "stateMutability": "view",
      "type": "function"
    },
    {
      "inputs": [
        {
          "internalType": "bytes32",
          "name": "_salt",
          "type": "bytes32"
        }
      ],
      "name": "getDeterministicAddress",
      "outputs": [
        {
          "internalType": "address",
          "name": "",
          "type": "address"
        }
      ],
      "stateMutability": "view",
      "type": "function"
    },
    {
      "inputs": [
        {
          "internalType": "bytes32",
          "name": "_instanceID",
          "type": "bytes32"
        },
        {
          "internalType": "address",
          "name": "_owner",
          "type": "address"
        }
      ],
      "name": "getRemainingSubscriptionTime",
      "outputs": [
        {
          "internalType": "uint256",
          "name": "",
          "type": "uint256"
        }
      ],
      "stateMutability": "view",
      "type": "function"
    },
    {
      "inputs": [
        {
          "internalType": "bytes32",
          "name": "_salt",
          "type": "bytes32"
        }
      ],
      "name": "getSuscriptionDeterministicAddress",
      "outputs": [
        {
          "internalType": "address",
          "name": "",
          "type": "address"
        }
      ],
      "stateMutability": "view",
      "type": "function"
    },
    {
      "inputs": [],
      "name": "getTime",
      "outputs": [
        {
          "internalType": "uint256",
          "name": "",
          "type": "uint256"
        }
      ],
      "stateMutability": "view",
      "type": "function"
    },
    {
      "inputs": [
        {
          "internalType": "bytes32",
          "name": "_instanceID",
          "type": "bytes32"
        },
        {
          "internalType": "address",
          "name": "_subscriber",
          "type": "address"
        }
      ],
      "name": "hasActiveSubscription",
      "outputs": [
        {
          "internalType": "bool",
          "name": "",
          "type": "bool"
        }
      ],
      "stateMutability": "view",
      "type": "function"
    },
    {
      "inputs": [
        {
          "internalType": "bytes32",
          "name": "_instance",
          "type": "bytes32"
        },
        {
          "internalType": "address",
          "name": "_sender",
          "type": "address"
        }
      ],
      "name": "hasMutateAccess",
      "outputs": [
        {
          "internalType": "bool",
          "name": "access",
          "type": "bool"
        }
      ],
      "stateMutability": "view",
      "type": "function"
    },
    {
      "inputs": [
        {
          "internalType": "bytes32",
          "name": "_instance",
          "type": "bytes32"
        },
        {
          "internalType": "address",
          "name": "_sender",
          "type": "address"
        }
      ],
      "name": "hasViewAccess",
      "outputs": [
        {
          "internalType": "bool",
          "name": "",
          "type": "bool"
        }
      ],
      "stateMutability": "view",
      "type": "function"
    },
    {
      "inputs": [
        {
          "internalType": "bytes32",
          "name": "_instance",
          "type": "bytes32"
        },
        {
          "internalType": "address[]",
          "name": "_members",
          "type": "address[]"
        }
      ],
      "name": "insertNewMembers",
      "outputs": [],
      "stateMutability": "nonpayable",
      "type": "function"
    },
    {
      "inputs": [
        {
          "internalType": "bytes32",
          "name": "",
          "type": "bytes32"
        }
      ],
      "name": "instanceSubscription",
      "outputs": [
        {
          "internalType": "contract IGated",
          "name": "subscriptionContract",
          "type": "address"
        },
        {
          "internalType": "address",
          "name": "creator",
          "type": "address"
        },
        {
          "internalType": "uint256",
          "name": "prize",
          "type": "uint256"
        }
      ],
      "stateMutability": "view",
      "type": "function"
    },
    {
      "inputs": [
        {
          "internalType": "bytes32",
          "name": "",
          "type": "bytes32"
        }
      ],
      "name": "instances",
      "outputs": [
        {
          "internalType": "address",
          "name": "gatedContract",
          "type": "address"
        },
        {
          "internalType": "uint256",
          "name": "price",
          "type": "uint256"
        },
        {
          "internalType": "address",
          "name": "creator",
          "type": "address"
        }
      ],
      "stateMutability": "view",
      "type": "function"
    },
    {
      "inputs": [
        {
          "internalType": "bytes32",
          "name": "",
          "type": "bytes32"
        }
      ],
      "name": "isType",
      "outputs": [
        {
          "internalType": "enum Core.Types",
          "name": "",
          "type": "uint8"
        }
      ],
      "stateMutability": "view",
      "type": "function"
    },
    {
      "inputs": [
        {
          "internalType": "address",
          "name": "",
          "type": "address"
        },
        {
          "internalType": "address",
          "name": "",
          "type": "address"
        },
        {
          "internalType": "uint256",
          "name": "",
          "type": "uint256"
        },
        {
          "internalType": "bytes",
          "name": "",
          "type": "bytes"
        }
      ],
      "name": "onERC721Received",
      "outputs": [
        {
          "internalType": "bytes4",
          "name": "",
          "type": "bytes4"
        }
      ],
      "stateMutability": "view",
      "type": "function"
    },
    {
      "inputs": [],
      "name": "owner",
      "outputs": [
        {
          "internalType": "address",
          "name": "",
          "type": "address"
        }
      ],
      "stateMutability": "view",
      "type": "function"
    },
    {
      "inputs": [
        {
          "internalType": "bytes32",
          "name": "_instanceID",
          "type": "bytes32"
        }
      ],
      "name": "purchaseInstanceSubscription",
      "outputs": [],
      "stateMutability": "payable",
      "type": "function"
    },
    {
      "inputs": [
        {
          "internalType": "bytes32",
          "name": "_instance",
          "type": "bytes32"
        },
        {
          "internalType": "address[]",
          "name": "_members",
          "type": "address[]"
        }
      ],
      "name": "removeMembers",
      "outputs": [],
      "stateMutability": "nonpayable",
      "type": "function"
    },
    {
      "inputs": [],
      "name": "renounceOwnership",
      "outputs": [],
      "stateMutability": "nonpayable",
      "type": "function"
    },
    {
      "inputs": [
        {
          "internalType": "address",
          "name": "contractAddress",
          "type": "address"
        },
        {
          "internalType": "address",
          "name": "newOwner",
          "type": "address"
        }
      ],
      "name": "safeTransferDomainOwnership",
      "outputs": [],
      "stateMutability": "nonpayable",
      "type": "function"
    },
    {
      "inputs": [
        {
          "internalType": "uint256",
          "name": "tokenId",
          "type": "uint256"
        },
        {
          "internalType": "bytes32",
          "name": "baseNode",
          "type": "bytes32"
        },
        {
          "internalType": "bytes32",
          "name": "node",
          "type": "bytes32"
        }
      ],
      "name": "setQUADBNode",
      "outputs": [],
      "stateMutability": "nonpayable",
      "type": "function"
    },
    {
      "inputs": [
        {
          "internalType": "bytes32",
          "name": "",
          "type": "bytes32"
        },
        {
          "internalType": "string",
          "name": "",
          "type": "string"
        }
      ],
      "name": "subNodes",
      "outputs": [
        {
          "internalType": "bool",
          "name": "",
          "type": "bool"
        }
      ],
      "stateMutability": "view",
      "type": "function"
    },
    {
      "inputs": [
        {
          "internalType": "uint256",
          "name": "",
          "type": "uint256"
        }
      ],
      "name": "tableIDs",
      "outputs": [
        {
          "internalType": "uint256",
          "name": "",
          "type": "uint256"
        }
      ],
      "stateMutability": "view",
      "type": "function"
    },
    {
      "inputs": [
        {
          "internalType": "uint256",
          "name": "",
          "type": "uint256"
        }
      ],
      "name": "tables",
      "outputs": [
        {
          "internalType": "string",
          "name": "",
          "type": "string"
        }
      ],
      "stateMutability": "view",
      "type": "function"
    },
    {
      "inputs": [
        {
          "internalType": "address",
          "name": "contractAddress",
          "type": "address"
        },
        {
          "internalType": "address",
          "name": "newOwner",
          "type": "address"
        }
      ],
      "name": "transferDomainOwnership",
      "outputs": [],
      "stateMutability": "nonpayable",
      "type": "function"
    },
    {
      "inputs": [
        {
          "internalType": "address",
          "name": "newOwner",
          "type": "address"
        }
      ],
      "name": "transferOwnership",
      "outputs": [],
      "stateMutability": "nonpayable",
      "type": "function"
    },
    {
      "inputs": [
        {
          "internalType": "bytes32",
          "name": "_codeID",
          "type": "bytes32"
        },
        {
          "internalType": "string",
          "name": "_name",
          "type": "string"
        },
        {
          "internalType": "string",
          "name": "_about",
          "type": "string"
        }
      ],
      "name": "updateCode",
      "outputs": [],
      "stateMutability": "nonpayable",
      "type": "function"
    },
    {
      "inputs": [
        {
          "internalType": "bytes32",
          "name": "_instanceID",
          "type": "bytes32"
        },
        {
          "internalType": "string",
          "name": "_metadataCID",
          "type": "string"
        }
      ],
      "name": "updateInstance",
      "outputs": [],
      "stateMutability": "nonpayable",
      "type": "function"
    },
    {
      "inputs": [
        {
          "internalType": "bytes32",
          "name": "_instance",
          "type": "bytes32"
        },
        {
          "internalType": "uint256",
          "name": "_threshold",
          "type": "uint256"
        }
      ],
      "name": "updateInstanceThreshold",
      "outputs": [],
      "stateMutability": "nonpayable",
      "type": "function"
    },
    {
      "stateMutability": "payable",
      "type": "receive"
    }
  ],
  "transactionHash": "0xd354868fbe233e289e5ace317e7c29f1d629f386f6d5294ad38f4e56f1ba61b8",
  "args": [
    "0x916915d0d41EaA8AAEd70b2A5Fb006FFc213961b",
    "0x45d9d6408d5159a379924cf423cb7e15C00fA81f",
    "0xed9bd04b1BB87Abe2EfF583A977514940c95699c",
    "0x78f6b1389af563cc5c91f234ea46b055e49658d8b999eeb9e0baef7dbbc93fdb",
    "0xC26343744c74cf342b18Ee6a2bA0D3D8bf780ca1",
    "0xC38db51d09E0C01B7d9d039F072d1393fba97476"
  ],
  "numDeployments": 2,
  "solcInputHash": "16702a04043f9186fa54337d24f5da3c",
  "bytecode": "0x610100604090808252346200092a5760c0816200476880380380916200002682856200097d565b8339810103126200092a576200003c81620009a1565b60206200004b818401620009a1565b9162000059858501620009a1565b6060850151916200007b60a06200007360808901620009a1565b9701620009a1565b600093845460018060a01b0319943386831617875560018060a01b0380998180978195823391167f8be0079c531659141344cd1fd0a4f28419497f9722a3daafe3b4186f6b6457e08d80a3166080521660a0521660c0526002558160059716838854161787551690600654161760065582620000f662001064565b1660e052620001746200016e86516200010f816200092f565b603881527f44425370616365494420746578742c20444253756253706163654f6649442074858201527f6578742c20444253756253706163654e616d65207465787400000000000000008882015262000167620009d2565b9062000fe7565b62000a81565b84516001600160401b03939060e0810185811182821017620009165762000279916200016e91895260aa81527f496e7374616e6365494420746578742c20696e7374616e63654f665370616365868201527f20746578742c20696e7374616e63655479706520746578742c206d6574616461898201527f746143494420746578742c2049504e5320746578742c2049504e53456e63727960608201527f707465644b657920746578742c206761746564436f6e7472616374207465787460808201527f2c20707269636520746578742c2063726561746f7220746578742c207468726560a0820152691cda1bdb19081d195e1d60b21b60c08201526200016762000d16565b855160a0810181811086821117620009165762000321916200016e918952606381527f496e7374616e6365494420746578742c20636f6465494420746578742c206e61868201527f6d6520746578742c2061626f757420746578742c2049504e5320746578742c20898201527f49504e53456e637279707465644b657920746578742c2063726561746f722074606082015262195e1d60ea1b60808201526200016762000d51565b6200037e6200016e875162000336816200092f565b602d81527f496e7374616e6365494420746578742c20737562736372696265722074657874868201526c0b08195b991cd05d081d195e1d609a1b898201526200016762000d7e565b620003c286516200038f8162000961565b601c81527f496e7374616e6365494420746578742c206d656d626572207465787400000000858201526200016762000da9565b90600854906801000000000000000092838310156200090257620003ee600193848101600855620009f9565b919091620008ee57805190888211620008da5781906200040f845462000a2b565b601f81116200089d575b508890601f8311600114620008395788926200082d575b5050600019600383901b1c191690841b1790555b60e05116948751926361a23d0f60e01b845260448401978585600499308b83015260249b8d8d84015260085480915260648301606482871b85010191600886528c808720928b88925b84841062000778575050505050508383809203925af19485156200076e578695620006bc575b50508351918211620006aa578111620006985784600a9384548386558084106200067b575b500183855285852083865b84811062000668575050505050620004fa620009d2565b8254156200065657620005196200051f91848652868620549062000dfb565b62000bd8565b6200052962000d16565b90825481101562000656576200054d91620005199184865286862001549062000dfb565b6200055762000d51565b8154600210156200064457620005196200057c91838552600286862001549062000dfb565b6200058662000d7e565b815460031015620006445762000519620005ab91838552600386862001549062000dfb565b620005b562000da9565b9481548510156200063357508152200154620005d79162000519919062000dfb565b516135529081620012168239608051818181611ebb01526125d6015260a0518181816108f401528181610b9101528181610f400152611ca5015260c0518181816101e80152612633015260e05181818161054a015261348f0152f35b634e487b7160e01b83526032855282fd5b634e487b7160e01b8352603285528583fd5b634e487b7160e01b8452603286528684fd5b88845194019381840155018490620004e3565b8587528287206200069191810190850162000a68565b38620004d8565b634e487b7160e01b8452604186528684fd5b634e487b7160e01b8552604187528785fd5b909194503d8087833e620006d181836200097d565b81019087818303126200076a5780519084821162000754570181601f820112156200076a57805192848411620007585783901b908b5193620007168a8401866200097d565b84528880850192820101928311620007545788809101915b838310620007435750505050923880620004b3565b82518152918101918991016200072e565b8780fd5b634e487b7160e01b885260418a528a88fd5b8680fd5b8a513d88823e3d90fd5b929591949750929597506063198d82030184528d908754906200079b8262000a2b565b91828252858581831692836000146200081157505050600114620007d3575b50508290960192019201928b95938b95938b8f6200048d565b908f92508883528383205b818410620007f35750500181018238620007ba565b80959193959492945483878701015201930190918f928d94620007de565b91955093915060ff19168383015215158b1b01019038620007ba565b01519050388062000430565b8489528989208794509190601f1984168a5b8c8282106200088657505084116200086c575b505050811b01905562000444565b015160001960f88460031b161c191690553880806200085e565b8385015186558a979095019493840193016200084b565b620008c890858a528a8a208d601f8601811c8201928d8710620008cf575b601f01901c019062000a68565b3862000419565b9192508291620008bb565b634e487b7160e01b87526041600452602487fd5b634e487b7160e01b86526004869052602486fd5b634e487b7160e01b85526041600452602485fd5b634e487b7160e01b84526041600452602484fd5b600080fd5b606081019081106001600160401b038211176200094b57604052565b634e487b7160e01b600052604160045260246000fd5b604081019081106001600160401b038211176200094b57604052565b601f909101601f19168101906001600160401b038211908210176200094b57604052565b51906001600160a01b03821682036200092a57565b6001600160401b0381116200094b57601f01601f191660200190565b60405190620009e18262000961565b600982526864625f73706163657360b81b6020830152565b60085481101562000a1557600860005260206000200190600090565b634e487b7160e01b600052603260045260246000fd5b90600182811c9216801562000a5d575b602083101462000a4757565b634e487b7160e01b600052602260045260246000fd5b91607f169162000a3b565b81811062000a74575050565b6000815560010162000a68565b600854680100000000000000008110156200094b5762000aa9600191828101600855620009f9565b92909262000bc2578051906001600160401b0382116200094b5762000acf845462000a2b565b601f811162000b80575b5060209081601f841160011462000b19575092829391839260009462000b0d575b50501b916000199060031b1c1916179055565b01519250388062000afa565b919083601f1981168760005284600020946000905b8883831062000b65575050501062000b4b575b505050811b019055565b015160001960f88460031b161c1916905538808062000b41565b85870151885590960195948501948793509081019062000b2e565b62000bb090856000526020600020601f850160051c8101916020861062000bb7575b601f0160051c019062000a68565b3862000ad9565b909150819062000ba2565b634e487b7160e01b600052600060045260246000fd5b600954680100000000000000008110156200094b576001918282018060095582101562000a15576009600090815281517f6e1540171b6c0c960b71a7020d9f60077f6af931a8bbf590da0223dacf75c7af90930193602093929091906001600160401b03841162000d025762000c4f865462000a2b565b601f811162000cd0575b508491601f851160011462000c8857939450849291908362000b0d5750501b916000199060031b1c1916179055565b86815285812093958591601f198316915b8883831062000cb5575050501062000b4b57505050811b019055565b85870151885590960195948501948793509081019062000c99565b62000cfb90878452868420601f870160051c81019188881062000bb757601f0160051c019062000a68565b3862000c59565b634e487b7160e01b82526041600452602482fd5b6040519062000d258262000961565b601382527f64625f7370616365735f696e7374616e636573000000000000000000000000006020830152565b6040519062000d608262000961565b600f82526e696e7374616e6365735f636f64657360881b6020830152565b6040519062000d8d8262000961565b600d82526c737562736372697074696f6e7360981b6020830152565b6040519062000db88262000961565b60078252666d656d6265727360c81b6020830152565b9081519160005b83811062000de7575050016000815290565b806020809284010151818501520162000dd5565b62000e649062000e5562000e3793600162000e2162000e1a4662000e67565b9262000e67565b9162000e4a604051978896602088019062000dce565b9183605f60f81b93848152019062000dce565b908152019062000dce565b03601f1981018352826200097d565b90565b806000917a184f03e93ff9f4daa797ed6e38ed64bf6a1f0100000000000000008082101562000fd8575b506d04ee2d6d415b85acef81000000008083101562000fc8575b50662386f26fc100008083101562000fb8575b506305f5e1008083101562000fa8575b506127108083101562000f98575b50606482101562000f87575b600a8092101562000f7c575b6001908160218186019562000f0987620009b6565b9662000f1960405198896200097d565b80885262000f2a601f1991620009b6565b01366020890137860101905b62000f43575b5050505090565b600019019083906f181899199a1a9b1b9c1cb0b131b232b360811b8282061a83530491821562000f765791908262000f36565b62000f3c565b916001019162000ef4565b919060646002910491019162000ee8565b6004919392049101913862000edc565b6008919392049101913862000ece565b6010919392049101913862000ebe565b6020919392049101913862000eab565b60409350810491503862000e91565b60016200102f926200104d62000e6493836200103e620010074662000e67565b82604051998a976c021a922a0aa22902a20a126229609d1b60208a0152602d89019062000dce565b605f60f81b8152019062000dce565b600560fb1b8152019062000dce565b602960f81b815203601e198101845201826200097d565b46600103620010855773012969f7e3439a9b04025b5a049eb9bad82a8c1290565b46600a03620010a65773fad44bf5b843de943a09d4f3e84949a11d3aa3e690565b4661a4b103620010c857739abd75e8640871a5a20d3b4ee6330a04c962affd90565b4661a4ba03620010ea57731a22854c5b1642760a827f20137a67930ae108d290565b466089036200110b57735c4e6a9e5c1e1bf445a062006faf19ea6c49afea90565b4661013a036200112d577359ef8bf2d6c102b4c42aef9189e1a9f0abfd652d90565b4662aa36a703620011505773c50c62498448acc8dbde43da77f8d5d2e2c7597d90565b466101a403620011725773c72e8a7be04f2469f8c2db3f1bdf69a7d516abba90565b4662066eee03620011955773223a74b8323914afdc3ff1e5005564dc17231d6e90565b466201388103620011b857734b48841d4b32c4650e4abc117a03fe8b51f38f6890565b466204cb2f03620011db5773030bcf3d50cad04c2e57391b12740982a930862190565b46617a6903620011fd5773e7f1725e7734ce288f8367e1bb143e90bb3f051290565b60405163264e42cf60e01b8152466004820152602490fdfe608080604052600436101561001d575b50361561001b57600080fd5b005b600090813560e01c90816306433b1b14611ea7575080630c9ddf6d14611d2a57806311ad2f3414611cf7578063150b7a0214611c5e578063248a5b1914611ba75780632711447f14611b5a578063284e82e8146119765780632ed76119146113535780633e203835146113245780633ec29e721461121057806347d121c5146111e9578063557ed1ba146111ce578063606410db146111b05780636120161214611130578063715018a6146110d657806371671bf214610faa57806379e63e1014610f0f5780637a9b777414610e9e578063820cc55714610e8057806384ec965314610e535780638897538314610e2c5780638a8fd25014610dda5780638da5cb5b14610db35780639ad66a2314610c215780639da308a414610b60578063a58dcc9514610b35578063a5df63d614610b04578063b35b8e7414610ad0578063ba0d18aa14610a83578063bfc51b7e146109f7578063c91f6694146109c8578063ca16ac8014610923578063cb609077146108de578063d0ed111014610579578063d68d087c14610534578063e0cf1e4c1461032d578063e2b1e4ed146102e0578063f2fde38b1461021a5763ffeb4a300361000f57346102175780600319360112610217576040517f00000000000000000000000000000000000000000000000000000000000000006001600160a01b03168152602090f35b80fd5b503461021757602036600319011261021757610234611f1c565b61023c61224e565b6001600160a01b0390811690811561028c57600054826001600160601b0360a01b821617600055167f8be0079c531659141344cd1fd0a4f28419497f9722a3daafe3b4186f6b6457e0600080a380f35b60405162461bcd60e51b815260206004820152602660248201527f4f776e61626c653a206e6577206f776e657220697320746865207a65726f206160448201526564647265737360d01b6064820152608490fd5b5034610217576020366003190112610217576004358152600d60205260ff60408220541660405190600781101561031957602092508152f35b634e487b7160e01b83526021600452602483fd5b50346102175761033c3661220b565b8183929352602090600b8252604083209360018060a01b039461036a866002818454169301541633146124e2565b806104ce575b5061037a90613369565b91835b82518110156104ca576104c5906104c0660102ba422a922960cd1b88610463886104b9896103de8a6103ad612115565b969054978b6103ea6103e56103c061323c565b936103c9612115565b989054946103d860039d612f04565b9a61325f565b5116612f73565b612f04565b9461045a6040519687878101996c024b739ba30b731b2a4a2101e9609d1b8b526d01020a7221036b2b6b132b9101e960951b815161043081602d948d8688019101612037565b83019182015282519061044b82603b958c8785019101612037565b0103601b810189520187611fc4565b881b1c90612d1f565b916040519889936b02222a622aa2290232927a6960a51b8486015261049281518092602c968789019101612037565b84019283015251906104aa8260339586840190612037565b01036013810187520185611fc4565b1b1c61348d565b613217565b61037d565b8480f35b803b156105305784604051809263362eb0ab60e11b82528183816104f5896004830161251a565b03925af180156105255790859161050d575b50610370565b61051690611f7b565b610521578338610507565b8380fd5b6040513d87823e3d90fd5b8480fd5b50346102175780600319360112610217576040517f00000000000000000000000000000000000000000000000000000000000000006001600160a01b03168152602090f35b50346102175760a0366003190112610217576004356001600160401b03602435818111610521576105ae903690600401611eea565b926044358381116108da576105c7903690600401611eea565b9290916064358581116108d6576105e2903690600401611eea565b9390956084359081116108d2576105fd903690600401611eea565b96909161060a33856123df565b156108c057604051948a60209661063f6040828a8101948a86528c89848401378c82019083820152038a810184520182611fc4565b519020998a8c52600d875260ff60408d20541660078110156108ac5761089a578a8c52600c875260408c20336001600160601b0360a01b825416179055600d875260408c2060ff198154166006179055369061069a92612000565b9636906106a692612000565b9436906106b292612000565b9536906106be92612000565b6106c661205a565b979054966106d261308b565b966106db61205a565b949054956106e890613369565b6106f190612f04565b936106fb90613369565b61070490612f04565b9161070e90612f04565b9761071890612f04565b9261072290612f04565b9061072c90612f04565b9061073633612f73565b61073f90612f04565b9360405199868b975190818c808b0192019161075a92612037565b870194600b60fa1b95868c820152815191828d6021840192019161077d92612037565b01856021820152815191828c6022840192019161079992612037565b01846022820152815191828b602384019201916107b592612037565b01836023820152815191828a602484019201916107d192612037565b018260248201528151918289602584019201916107ed92612037565b0190602582015281519182876026840192019161080992612037565b010360068101855260260161081e9085611fc4565b6040519261082b84611f8e565b6040845283017f496e7374616e636549442c20636f646549442c206e616d652c2061626f75742c9052604083017f2049504e532c2049504e53456e637279707465644b65792c2063726561746f72905260031b1c61088893612c7f565b9160031b1c906108979161348d565b80f35b604051631144626f60e01b8152600490fd5b634e487b7160e01b8d52602160045260248dfd5b6040516346627df160e01b8152600490fd5b8880fd5b8780fd5b8580fd5b50346102175780600319360112610217576040517f00000000000000000000000000000000000000000000000000000000000000006001600160a01b03168152602090f35b5034610217576109323661220b565b818352600b602052826040812061095a60018060a01b036002818454169301541633146124e2565b8061096b575b505061089791613273565b803b156109c457816040518092632f41d6e160e21b8252818381610992896004830161251a565b03925af180156109b95715610960576109aa90611f7b565b6109b5578238610960565b8280fd5b6040513d84823e3d90fd5b5080fd5b5034610217576060366003190112610217576109e261224e565b60043560035560243560025560443560015580f35b503461021757610a0636611f48565b909291808352600d60205260ff6040842054166007811015610a6f576108979394610a366005610a6993146122a6565b610a4a610a44368684612000565b8461255e565b808752600d60205260408720805460ff19166005179055933691612000565b91612bc8565b634e487b7160e01b84526021600452602484fd5b5034610217576020366003190112610217576040606091600435815260076020522060018060a01b0390600282825416926001830154169101549060405192835260208301526040820152f35b503461021757602036600319011261021757602060018060a01b03610afb600435826006541661286f565b60405191168152f35b5034610217576040366003190112610217576020610b2b610b23611f32565b6004356129d5565b6040519015158152f35b503461021757602036600319011261021757602060018060a01b03610afb600435826005541661286f565b50346102175760403660031901126102175780610b7b611f1c565b610b83611f32565b90610b8c61224e565b6003547f00000000000000000000000000000000000000000000000000000000000000006001600160a01b0316803b15610530576040516323b872dd60e01b81526001600160a01b039384166004820152939092166024840152604483015282908290818381606481015b03925af180156109b957610c0d575b5060015580f35b610c1690611f7b565b610217578038610c06565b506020366003190112610217576004358082526007602052610c4b60026040842001543414612a23565b808252600760205260408220546001600160a01b039083908216803b156109c4578180916024604051809481936320d3b93560e11b83523360048401525af180156109b957610d9f575b5082905260076020526001604084200154166063340234810460631434151715610d8b57906064610cc7920490612a7d565b62278d00420190814211610d775761089791610d6d6103e592610ce86120de565b94905493610d2b610cf76131ee565b91610d0c610d036120de565b95905496613369565b90610d256103e5610d1f6103e533612f73565b92612d9c565b91612b58565b9260405192610d3984611fa9565b601e84527f496e7374616e636549442c20737562736372696265722c20656e647341740000602085015260031b1c90612c7f565b9160031b1c61348d565b634e487b7160e01b83526011600452602483fd5b634e487b7160e01b84526011600452602484fd5b610da890611f7b565b6109b5578238610c95565b5034610217578060031936011261021757546040516001600160a01b039091168152602090f35b503461021757602036600319011261021757600435600a548110156109c457602090600a6000527fc65a7bb8d6351c1cf70c95a316cc6a92839c986682d98bc35f958f4883f9d2a80154604051908152f35b5034610217576040366003190112610217576020610b2b610e4b611f32565b6004356123df565b5034610217576040366003190112610217576020610b2b610e72611f1c565b610e7a611f32565b906128c7565b50346102175780600319360112610217576020600354604051908152f35b5034610217576020366003190112610217576004356001600160401b0381116109c457610ed2610897913690600401611eea565b610a69610eec600154610ee6368587612000565b9061255e565b92838652600d60205260408620600560ff19825416179055600154923691612000565b50346102175760403660031901126102175780610f2a611f1c565b610f32611f32565b90610f3b61224e565b6003547f00000000000000000000000000000000000000000000000000000000000000006001600160a01b0316803b1561053057604051632142170760e11b81526001600160a01b03938416600482015293909216602484015260448301528290829081838160648101610bf7565b5034610217576020806003193601126109c4576004356009548110156109b55760096000527f6e1540171b6c0c960b71a7020d9f60077f6af931a8bbf590da0223dacf75c7af0190604051918381549460019086821c938288169788156110cc575b86861089146110b857868899878a98999a529182600014611094575050600114611058575b50505061104092500383611fc4565b611054604051928284938452830190612180565b0390f35b869350819291528282205b85831061107c5750506110409350820101388080611031565b80548389018501528794508693909201918101611063565b93509450505061104094915060ff191682840152151560051b820101388080611031565b634e487b7160e01b83526022600452602483fd5b94607f169461100c565b50346102175780600319360112610217576110ef61224e565b600080546001600160a01b0319811682556001600160a01b03167f8be0079c531659141344cd1fd0a4f28419497f9722a3daafe3b4186f6b6457e08280a380f35b5034610217576040366003190112610217576024356001600160401b0381116109c457366023820112156109c45761119b60208093604061117d60ff953690602481600401359101612000565b91600435815260048452208260405194838680955193849201612037565b82019081520301902054166040519015158152f35b50346102175780600319360112610217576020600154604051908152f35b50346102175780600319360112610217576020604051428152f35b5034610217576040366003190112610217576020610b2b611208611f32565b6004356122f2565b50346102175761121f36611f48565b828452600b60205260408420600201549192916001600160a01b031633036112df5761089792611250913691612000565b610d6d61128561125e6120a7565b9490549361126a612f44565b906112d46112cf6103e561127c6120a7565b97905494612f04565b956112ca602e60405180996d036b2ba30b230ba30a1a4a2101e960951b60208301526112ba8151809260208686019101612037565b810103600e81018a520188611fc4565b613369565b6130b6565b9360031b1c906130fa565b60405162461bcd60e51b815260206004820152601960248201527f51554144423a204e6f20696e7374616e636520616363657373000000000000006044820152606490fd5b503461021757604036600319011261021757602061134b611343611f32565b600435612959565b604051908152f35b50346102175760e0366003190112610217576001600160401b036044351161021757366023604435011215610217576001600160401b036044356004013511610217573660246044356004013560051b604435010111610217576084356001600160401b0381116109c4576113cc903690600401611eea565b60a4929192356001600160401b0381116109b5576113ee903690600401611eea565b939060c4356001600160401b0381116105305761140f903690600401611eea565b92906004358652600d60205260ff604087205416600781101561196257600561143891146122a6565b60405160208101906004358252888560408301376114686040828b81018b83820152036020810184520182611fc4565b51902092838752600d60205260ff604088205416600781101561194e5761089a578692604435600401356118b3575b6040516114a381611f8e565b6001600160a01b0385811680835260243560208085019182523360408087019182528b8f52600b909252908d20945185549085166001600160a01b031991821617865591516001860155516002909401805494909316931692909217905515801590806118a8575b1561182e5750848852600d60205260408820805460ff19166003179055611534856024356126b6565b848852600d60205260ff60408920541696600788101561181a57936115806103e5999a946115786117389561157060299661162f9a3691612000565b973691612000565b983691612000565b936115896120a7565b99905498611595612f44565b966115aa6115a16120a7565b9e90549b613369565b946115ec6103e56115e66115e06115da6115d46103e56115ce6103e5600435613369565b9a612d9c565b99612f04565b96612f04565b94612f04565b92612f73565b906115fb6103e5602435612d9c565b926116086103e533612f73565b946116176103e5606435612d9c565b9760206040519e8f8c83829e51948593019101612037565b8a0197600b60fa1b98896020820152611652825180936020602185019101612037565b0188602182015261166d825180936020602285019101612037565b01876022820152611688825180936020602385019101612037565b018660238201526116a3825180936020602485019101612037565b018560248201526116be825180936020602585019101612037565b018460258201526116d9825180936020602685019101612037565b018360268201526116f4825180936020602785019101612037565b0182602782015261170f825180936020602885019101612037565b019060288201526117298251809360208785019101612037565b01036009810185520183611fc4565b6040519060a08201938285106001600160401b038611176118045761089797610d6d95604052607884527f496e7374616e636549442c20696e7374616e63654f6653706163652c20696e7360208501527f74616e6365547970652c206d657461646174614349442c2049504e532c20495060408501527f4e53456e637279707465644b65792c206761746564436f6e74726163742c207060608501527f726963652c2063726561746f722c207468726573686f6c640000000000000000608085015260031b1c90612c7f565b634e487b7160e01b600052604160045260246000fd5b634e487b7160e01b89526021600452602489fd5b808061189d575b156118635750848852600d60205260408820805460ff1916600117905561185e856024356126b6565b611534565b1561188457848852600d60205260408820805460ff19166002179055611534565b600d60205260408820805460ff19166004179055611534565b506024351515611835565b50602435151561150b565b92506118cb36604435600401356024604435016121a5565b61192988806118e48860018060a01b03600554166127d4565b9360405161191581611907602082019463a224cee760e01b86526024830161251a565b03601f198101835282611fc4565b519082865af1611923612766565b50612796565b9261194961194336604435600401356024604435016121a5565b86613273565b611497565b634e487b7160e01b88526021600452602488fd5b634e487b7160e01b87526021600452602487fd5b506020908160031936011261021757600435916119933384612959565b838352600782526119ac60026040852001543414612a23565b8383526007825260408320546001600160a01b03908116803b1561053057848091602460405180948193630684c62560e11b83523360048401525af1801561052557611b47575b50848452600783526001604085200154166063340234810460631434151715611b3357906064611a24920490612a7d565b62278d008101809111610d7757610d6d611b1a6108979495611a446120de565b959054946103e5611b29603f611a586131ee565b94611ab16103e5611a73611a6a6120de565b97905498612d9c565b986112ca6029604051809c68032b73239a0ba101e960bd1b88830152611aa1815180928a8686019101612037565b810103600981018d52018b611fc4565b90611abe6103e533612f73565b90604051998a936c024b739ba30b731b2a4a2101e9609d1b83860152611aed8151809285602d89019101612037565b8401917101020a7221039bab139b1b934b132b9101e960751b602d84015283519384918785019101612037565b0103601f810188520186611fc4565b60031b1c906130fa565b634e487b7160e01b85526011600452602485fd5b611b5390949194611f7b565b92386119f3565b50346102175760203660031901126102175760406060916004358152600b6020522060018060a01b0390818154169160026001830154920154169060405192835260208301526040820152f35b503461021757604036600319011261021757610897610d6d600435808452600b602052611be460018060a01b0360026040872001541633146124e2565b611bec6120a7565b92905491611bf8612f44565b90611c016120a7565b9290546112d46112cf6103e5611c1b6103e5602435612d9c565b956112ca602c60405180996b03a343932b9b437b632101e960a51b6020830152611c4e8151809260208686019101612037565b810103600c81018a520188611fc4565b503461021757608036600319011261021757611c78611f1c565b50611c81611f32565b506064356001600160401b0381116109c457611ca1903690600401611eea565b50507f00000000000000000000000000000000000000000000000000000000000000006001600160a01b03163303611ce557604051630a85bd0160e11b8152602090f35b604051634a93b62160e11b8152600490fd5b5034610217576020366003190112610217576020906004358152600c8252604060018060a01b0391205416604051908152f35b5034610217576060366003190112610217576004356001600160401b0360243581811161052157611d5f903690600401611eea565b909160443590811161053057611d79903690600401611eea565b848652600c60209081526040872054909391906001600160a01b03163303611e955761089795611dbf610d6d94611db7602998611e85963691612000565b933691612000565b91611dfa611b29611dce61205a565b99905498611e5f6103e5611de061308b565b976112ca6031611e00611df161205a565b9a90549b612f04565b9c612f04565b9b6040519c8d916603730b6b2901e960cd1b89840152611e29815180928b602787019101612037565b8201690161030b137baba101e960b51b6027820152611e50825180938b8785019101612037565b0103601181018d52018b611fc4565b604051988268031b7b232a4a2101e960bd1b8b9485015282519283918686019101612037565b8101036009810188520186611fc4565b6040516306815cbd60e41b8152600490fd5b9050346109c457816003193601126109c4577f00000000000000000000000000000000000000000000000000000000000000006001600160a01b03168152602090f35b9181601f84011215611f17578235916001600160401b038311611f175760208381860195010111611f1757565b600080fd5b600435906001600160a01b0382168203611f1757565b602435906001600160a01b0382168203611f1757565b906040600319830112611f175760043591602435906001600160401b038211611f1757611f7791600401611eea565b9091565b6001600160401b03811161180457604052565b606081019081106001600160401b0382111761180457604052565b604081019081106001600160401b0382111761180457604052565b90601f801991011681019081106001600160401b0382111761180457604052565b6001600160401b03811161180457601f01601f191660200190565b92919261200c82611fe5565b9161201a6040519384611fc4565b829481845281830111611f17578281602093846000960137010152565b60005b83811061204a5750506000910152565b818101518382015260200161203a565b600a546002101561209157600a6000527fc65a7bb8d6351c1cf70c95a316cc6a92839c986682d98bc35f958f4883f9d2aa90600090565b634e487b7160e01b600052603260045260246000fd5b600a546001101561209157600a6000527fc65a7bb8d6351c1cf70c95a316cc6a92839c986682d98bc35f958f4883f9d2a990600090565b600a546003101561209157600a6000527fc65a7bb8d6351c1cf70c95a316cc6a92839c986682d98bc35f958f4883f9d2ab90600090565b600a546004101561209157600a6000527fc65a7bb8d6351c1cf70c95a316cc6a92839c986682d98bc35f958f4883f9d2ac90600090565b600a541561209157600a6000527fc65a7bb8d6351c1cf70c95a316cc6a92839c986682d98bc35f958f4883f9d2a890600090565b9060209161219981518092818552858086019101612037565b601f01601f1916010190565b9092916001600160401b038411611804578360051b60405192602080946121ce82850182611fc4565b8097815201918101928311611f1757905b8282106121ec5750505050565b81356001600160a01b0381168103611f175781529083019083016121df565b906040600319830112611f175760043591602435906001600160401b038211611f175780602383011215611f175781602461224b936004013591016121a5565b90565b6000546001600160a01b0316330361226257565b606460405162461bcd60e51b815260206004820152602060248201527f4f776e61626c653a2063616c6c6572206973206e6f7420746865206f776e65726044820152fd5b156122ad57565b60405162461bcd60e51b815260206004820152601c60248201527f51554144423a204e6f6465206973206e6f742061207375626e6f6465000000006044820152606490fd5b906000828152600b60205260018060a01b0360408220541690600d60205260ff60408220541660078110156123cb5760030361233357505061224b916129d5565b838152600d60205260ff60408220541660078110156123cb57600103612374575061235e90826128c7565b91821561236a57505090565b61224b92506129d5565b8392508093915052600d60205260ff6040832054166007811015610319576002149081156123a9575b501561224b5750600190565b825250600d602052604081205460ff1660078110156123cb576004143861239d565b634e487b7160e01b82526021600452602482fd5b919060008091848352600b60205260018060a01b038060408520541695600d60205260ff6040862054169360078510159788611962576003860361245a5750508452600b60205280600260408620015416911614935b6123cb5760048111908115612451575b5061244d5750565b9150565b90501538612445565b909750859392919397600186146000146124a9575061247990836128c7565b92831561248b575b505050935b612435565b8552600b602052604085206002015481169116149050388080612481565b97509250508395600284146000146124cc5750906124c6916128c7565b93612435565b9550505081600482036124865760019450612435565b156124e957565b60405162461bcd60e51b81526020600482015260096024820152684e6f2061636365737360b81b6044820152606490fd5b6020908160408183019282815285518094520193019160005b828110612541575050505090565b83516001600160a01b031685529381019392810192600101612533565b90805190602091828201908120906000908582526004855260409360ff8584208787518092855161259081848a612037565b82019081520301902054166126a5576125c091869188855260048352868520908751948593849251928391612037565b820190815203019020805460ff191660011790557f00000000000000000000000000000000000000000000000000000000000000006001600160a01b0390811690813b156109b557829160a48392875195869384926305ef2c7f60e41b84528c60048501528960248501523060448501527f00000000000000000000000000000000000000000000000000000000000000001660648401528160848401525af190811561269a575061268b575b50815192830193845281830152815261268581611f8e565b51902090565b61269490611f7b565b3861266d565b8451903d90823e3d90fd5b845163cde9fa4b60e01b8152600490fd5b6006546001600160a01b0392600292916126d390829086166127d4565b9361270d600080604051602081019063189acdbd60e31b8252306024820152602481526126ff81611f8e565b5190828a5af1611923612766565b806040519561271b87611f8e565b1685526020850191338352604086019384526000526007602052806040600020955116906001600160601b0360a01b9182875416178655600186019251169082541617905551910155565b3d15612791573d9061277782611fe5565b916127856040519384611fc4565b82523d6000602084013e565b606090565b1561279d57565b60405162461bcd60e51b815260206004820152600f60248201526e6572726f72206465706c6f79696e6760881b6044820152606490fd5b6e5af43d82803e903d91602b57fd5bf390763d602d80600a3d3981f3363d3d373d3d3d363d7300000062ffffff8260881c161760005260781b17602052603760096000f5906001600160a01b0382161561282a57565b60405162461bcd60e51b815260206004820152601760248201527f455243313136373a2063726561746532206661696c65640000000000000000006044820152606490fd5b604390605592604051913060388401526f5af43d82803e903d91602b57fd5bf3ff60248401526014830152733d602d80600a3d3981f3363d3d373d3d3d363d73825260588201526037600c8201206078820152012090565b6000916001600160a01b039081169190826128e55750505050600090565b602460209260405194859384926370a0823160e01b84521660048301525afa91821561294d578092612919575b5050151590565b9091506020823d8211612945575b8161293460209383611fc4565b810103126102175750513880612912565b3d9150612927565b604051903d90823e3d90fd5b600090815260076020908152604080832054905163074288bd60e11b81526001600160a01b039485166004820152929383916024918391165afa91821561294d5780926129a557505090565b9091506020823d82116129cd575b816129c060209383611fc4565b8101031261021757505190565b3d91506129b3565b60009081526007602090815260408083205490516370a0823160e01b81526001600160a01b039485166004820152929383916024918391165afa91821561294d578092612919575050151590565b15612a2a57565b60405162461bcd60e51b815260206004820152602560248201527f51554144423a204e6f2070726963652073657420666f72207468697320696e7360448201526474616e636560d81b6064820152608490fd5b814710612b13576000918291829182916001600160a01b03165af1612aa0612766565b5015612aa857565b60405162461bcd60e51b815260206004820152603a60248201527f416464726573733a20756e61626c6520746f2073656e642076616c75652c207260448201527f6563697069656e74206d617920686176652072657665727465640000000000006064820152608490fd5b60405162461bcd60e51b815260206004820152601d60248201527f416464726573733a20696e73756666696369656e742062616c616e63650000006044820152606490fd5b602290612bc69294936040519582612b7a889451809260208088019101612037565b830190600b60fa1b91826020820152612b9d825180936020602185019101612037565b01906021820152612bb78251809360208785019101612037565b01036002810185520183611fc4565b565b90610d6d612c2f926103e5612bc695612bdf61214c565b9690549560405192612bf084611fa9565b600984526864625f73706163657360b81b6020850152610d25612c296103e5612c23612c1a61214c565b9990549a613369565b94613369565b91612f04565b9260405192612c3d84611f8e565b602984527f4442537061636549442c20444253756253706163654f6649442c20444253756260208501526853706163654e616d6560b81b604085015260031b1c905b92612c9060369261224b9495612d1f565b906040519485926b024a729a2a92a1024a72a27960a51b6020850152612cc0815180926020602c88019101612037565b8301600560fb1b602c820152612ce0825180936020602d85019101612037565b0167052ac8298aa8aa6560c31b602d820152612d06825180936020603585019101612037565b01602960f81b6035820152036016810184520182611fc4565b602261224b91612d37612d3146612d9c565b94612d9c565b6040519482612d50879451809260208088019101612037565b830190605f60f81b91826020820152612d73825180936020602185019101612037565b01906021820152612d8d8251809360208785019101612037565b01036002810184520182611fc4565b806000917a184f03e93ff9f4daa797ed6e38ed64bf6a1f01000000000000000080821015612ef6575b506d04ee2d6d415b85acef810000000080831015612ee7575b50662386f26fc1000080831015612ed8575b506305f5e10080831015612ec9575b5061271080831015612eba575b506064821015612eaa575b600a80921015612ea0575b60019081602181860195612e3587611fe5565b96612e436040519889611fc4565b808852612e52601f1991611fe5565b01366020890137860101905b612e6a575b5050505090565b600019019083906f181899199a1a9b1b9c1cb0b131b232b360811b8282061a835304918215612e9b57919082612e5e565b612e63565b9160010191612e22565b9190606460029104910191612e17565b60049193920491019138612e0c565b60089193920491019138612dff565b60109193920491019138612df0565b60209193920491019138612dde565b604093508104915038612dc5565b61224b60226040518093602760f81b90816020840152612f2e815180926020602187019101612037565b8201906021820152036002810184520182611fc4565b60405190612f5182611fa9565b601382527264625f7370616365735f696e7374616e63657360681b6020830152565b604051906001600160a01b0316612f8982611f8e565b602a82526020820160403682378251156120915760309053815160019081101561209157607860218401536029905b80821161300c575050612fc85790565b606460405162461bcd60e51b815260206004820152602060248201527f537472696e67733a20686578206c656e67746820696e73756666696369656e746044820152fd5b9091600f81166010811015613065576f181899199a1a9b1b9c1cb0b131b232b360811b901a61303b848661307a565b5360041c918015613050576000190190612fb8565b60246000634e487b7160e01b81526011600452fd5b60246000634e487b7160e01b81526032600452fd5b908151811015612091570160200190565b6040519061309882611fa9565b600f82526e696e7374616e6365735f636f64657360881b6020830152565b90612bc6602d60405180946c024b739ba30b731b2a4a2101e9609d1b60208301526130ea8151809260208686019101612037565b810103600d810185520183611fc4565b9061310791939293612d1f565b9060405191602091828401928484106001600160401b038511176118045761224b94602c94604052600081529180516131a9575b5061319a6040519687946602aa82220aa22960cd1b84870152613167815180928660278a019101612037565b85016401029a2aa160dd1b602782015261318982518093868a85019101612037565b019183519384918785019101612037565b0103600c810184520182611fc4565b9091506131e760276040518093660102ba422a922960cd1b868301526131d781518092888686019101612037565b8101036007810184520182611fc4565b903861313b565b604051906131fb82611fa9565b600d82526c737562736372697074696f6e7360981b6020830152565b60001981146132265760010190565b634e487b7160e01b600052601160045260246000fd5b6040519061324982611fa9565b60078252666d656d6265727360c81b6020830152565b80518210156120915760209160051b010190565b61327f90929192613369565b9160005b81518110156133635761335e906104c061329b612115565b90546132a561323c565b916133566132b1612115565b90546003956132bf8d612f04565b916132d86103e58d6103de8d60018060a01b039261325f565b937124b739ba30b731b2a4a2161036b2b6b132b960711b604061333b81519788885161330c8160209b8c8086019101612037565b8101600b60fa1b8a82015282519061332c826021958d8785019101612037565b0103600181018a520188611fc4565b519461334686611fa9565b60128652850152881b1c90612c7f565b921b1c61348d565b613283565b50509050565b6040519061337682611f8e565b604082526020918281019160403684376040519061339382611fa9565b601082526f181899199a1a9b1b9c1cb0b131b232b360811b8583015260005b8581106133f25750505061060f60f31b9261224b926133e260229360405196879485015251809285850190612037565b8101036002810184520182611fc4565b81811a9083518015613477576001600160f81b03199081906134169085048761307a565b51169060019383851b92848404600214851517156132265760001a61343b848a61307a565b53865180156134775761344f91068761307a565b51169281018091116132265761346c6134729360001a918761307a565b53613217565b6133b2565b634e487b7160e01b600052601260045260246000fd5b7f00000000000000000000000000000000000000000000000000000000000000006001600160a01b031691823b15611f17576134f69260009283604051809681958294631bbd786d60e11b84523060048501526024840152606060448401526064830190612180565b03925af18015613510576135075750565b612bc690611f7b565b6040513d6000823e3d90fdfea26469706673582212205102770fc264997c0b93fc5f9351733dddddcd4650c95a588047a432d6934d3164736f6c63430008140033",
  "devdoc": {
    "details": "Create a decentralized Database NameSpaces Where space and subSpaces can get created and anyone can create instances inside a space and contribute to the public this is possible by integrating tableland SQL in solidity FNS system to support a decentralized Namespace of Database spaces IPNS and Push protocol for code and space discussions",
    "kind": "dev",
    "methods": {
      "createDBSpace(string)": {
        "details": "Create a new space under the given node",
        "params": {
          "_name": "The name of the new space"
        }
      },
      "createDBSubSpace(bytes32,string)": {
        "details": "Create a new subnode under the given node",
        "params": {
          "_DBSpace": "The parent node",
          "_name": "The name of the new subnode"
        }
      },
      "createInstanceCode(bytes32,string,string,string,string)": {
        "details": "Create a new instance under the given node",
        "params": {
          "_about": "The about of the new instance",
          "_codeIPNS": "The IPNS of the new instance",
          "_instance": "The parent node",
          "_name": "The name of the new instance"
        }
      },
      "createSpaceInstance(bytes32,uint256,address[],uint256,string,string,string)": {
        "details": "Create a new instance under the given node",
        "params": {
          "_IPNS": "The IPNS of the new instance",
          "_IPNSEncryptedKey": "The IPNSEncryptedKey of the new instance",
          "_members": "The hatID of the new instance",
          "_metadataCID": "The metadataCID of the new instance",
          "_node": "The parent node",
          "_threshold": "The threshold of the new instance"
        }
      },
      "hasViewAccess(bytes32,address)": {
        "details": "Check if the sender has access to the given instance",
        "params": {
          "_instance": "The instance to check",
          "_sender": "The sender to check"
        },
        "returns": {
          "_0": "bool"
        }
      },
      "owner()": {
        "details": "Returns the address of the current owner."
      },
      "renounceOwnership()": {
        "details": "Leaves the contract without owner. It will not be possible to call `onlyOwner` functions. Can only be called by the current owner. NOTE: Renouncing ownership will leave the contract without an owner, thereby disabling any functionality that is only available to the owner."
      },
      "transferOwnership(address)": {
        "details": "Transfers ownership of the contract to a new account (`newOwner`). Can only be called by the current owner."
      }
    },
    "title": "QUADB",
    "version": 1
  },
  "userdoc": {
    "errors": {
      "ChainNotSupported(uint256)": [
        {
          "notice": "Current chain does not have a TablelandTables deployment."
        }
      ]
    },
    "kind": "user",
    "methods": {},
    "version": 1
  },
  "storageLayout": {
    "storage": [
      {
        "astId": 7,
        "contract": "contracts/QUADB.sol:QUADB",
        "label": "_owner",
        "offset": 0,
        "slot": "0",
        "type": "t_address"
      },
      {
        "astId": 3586,
        "contract": "contracts/QUADB.sol:QUADB",
        "label": "QUADB_NODE",
        "offset": 0,
        "slot": "1",
        "type": "t_bytes32"
      },
      {
        "astId": 3588,
        "contract": "contracts/QUADB.sol:QUADB",
        "label": "BASE_NODE",
        "offset": 0,
        "slot": "2",
        "type": "t_bytes32"
      },
      {
        "astId": 3590,
        "contract": "contracts/QUADB.sol:QUADB",
        "label": "DOMAIN_ID",
        "offset": 0,
        "slot": "3",
        "type": "t_uint256"
      },
      {
        "astId": 3596,
        "contract": "contracts/QUADB.sol:QUADB",
        "label": "subNodes",
        "offset": 0,
        "slot": "4",
        "type": "t_mapping(t_bytes32,t_mapping(t_string_memory_ptr,t_bool))"
      },
      {
        "astId": 3868,
        "contract": "contracts/QUADB.sol:QUADB",
        "label": "gatedImplementation",
        "offset": 0,
        "slot": "5",
        "type": "t_address"
      },
      {
        "astId": 3870,
        "contract": "contracts/QUADB.sol:QUADB",
        "label": "subscriptionImplementation",
        "offset": 0,
        "slot": "6",
        "type": "t_address"
      },
      {
        "astId": 3886,
        "contract": "contracts/QUADB.sol:QUADB",
        "label": "instanceSubscription",
        "offset": 0,
        "slot": "7",
        "type": "t_mapping(t_bytes32,t_struct(SubscriptionStruct)3881_storage)"
      },
      {
        "astId": 4217,
        "contract": "contracts/QUADB.sol:QUADB",
        "label": "createTableStatements",
        "offset": 0,
        "slot": "8",
        "type": "t_array(t_string_storage)dyn_storage"
      },
      {
        "astId": 4220,
        "contract": "contracts/QUADB.sol:QUADB",
        "label": "tables",
        "offset": 0,
        "slot": "9",
        "type": "t_array(t_string_storage)dyn_storage"
      },
      {
        "astId": 4223,
        "contract": "contracts/QUADB.sol:QUADB",
        "label": "tableIDs",
        "offset": 0,
        "slot": "10",
        "type": "t_array(t_uint256)dyn_storage"
      },
      {
        "astId": 3137,
        "contract": "contracts/QUADB.sol:QUADB",
        "label": "instances",
        "offset": 0,
        "slot": "11",
        "type": "t_mapping(t_bytes32,t_struct(SpaceInstance)3132_storage)"
      },
      {
        "astId": 3141,
        "contract": "contracts/QUADB.sol:QUADB",
        "label": "codeOwner",
        "offset": 0,
        "slot": "12",
        "type": "t_mapping(t_bytes32,t_address)"
      },
      {
        "astId": 3146,
        "contract": "contracts/QUADB.sol:QUADB",
        "label": "isType",
        "offset": 0,
        "slot": "13",
        "type": "t_mapping(t_bytes32,t_enum(Types)3125)"
      }
    ],
    "types": {
      "t_address": {
        "encoding": "inplace",
        "label": "address",
        "numberOfBytes": "20"
      },
      "t_array(t_string_storage)dyn_storage": {
        "base": "t_string_storage",
        "encoding": "dynamic_array",
        "label": "string[]",
        "numberOfBytes": "32"
      },
      "t_array(t_uint256)dyn_storage": {
        "base": "t_uint256",
        "encoding": "dynamic_array",
        "label": "uint256[]",
        "numberOfBytes": "32"
      },
      "t_bool": {
        "encoding": "inplace",
        "label": "bool",
        "numberOfBytes": "1"
      },
      "t_bytes32": {
        "encoding": "inplace",
        "label": "bytes32",
        "numberOfBytes": "32"
      },
      "t_contract(IGated)3866": {
        "encoding": "inplace",
        "label": "contract IGated",
        "numberOfBytes": "20"
      },
      "t_enum(Types)3125": {
        "encoding": "inplace",
        "label": "enum Core.Types",
        "numberOfBytes": "1"
      },
      "t_mapping(t_bytes32,t_address)": {
        "encoding": "mapping",
        "key": "t_bytes32",
        "label": "mapping(bytes32 => address)",
        "numberOfBytes": "32",
        "value": "t_address"
      },
      "t_mapping(t_bytes32,t_enum(Types)3125)": {
        "encoding": "mapping",
        "key": "t_bytes32",
        "label": "mapping(bytes32 => enum Core.Types)",
        "numberOfBytes": "32",
        "value": "t_enum(Types)3125"
      },
      "t_mapping(t_bytes32,t_mapping(t_string_memory_ptr,t_bool))": {
        "encoding": "mapping",
        "key": "t_bytes32",
        "label": "mapping(bytes32 => mapping(string => bool))",
        "numberOfBytes": "32",
        "value": "t_mapping(t_string_memory_ptr,t_bool)"
      },
      "t_mapping(t_bytes32,t_struct(SpaceInstance)3132_storage)": {
        "encoding": "mapping",
        "key": "t_bytes32",
        "label": "mapping(bytes32 => struct Core.SpaceInstance)",
        "numberOfBytes": "32",
        "value": "t_struct(SpaceInstance)3132_storage"
      },
      "t_mapping(t_bytes32,t_struct(SubscriptionStruct)3881_storage)": {
        "encoding": "mapping",
        "key": "t_bytes32",
        "label": "mapping(bytes32 => struct Gated.SubscriptionStruct)",
        "numberOfBytes": "32",
        "value": "t_struct(SubscriptionStruct)3881_storage"
      },
      "t_mapping(t_string_memory_ptr,t_bool)": {
        "encoding": "mapping",
        "key": "t_string_memory_ptr",
        "label": "mapping(string => bool)",
        "numberOfBytes": "32",
        "value": "t_bool"
      },
      "t_string_memory_ptr": {
        "encoding": "bytes",
        "label": "string",
        "numberOfBytes": "32"
      },
      "t_string_storage": {
        "encoding": "bytes",
        "label": "string",
        "numberOfBytes": "32"
      },
      "t_struct(SpaceInstance)3132_storage": {
        "encoding": "inplace",
        "label": "struct Core.SpaceInstance",
        "members": [
          {
            "astId": 3127,
            "contract": "contracts/QUADB.sol:QUADB",
            "label": "gatedContract",
            "offset": 0,
            "slot": "0",
            "type": "t_address"
          },
          {
            "astId": 3129,
            "contract": "contracts/QUADB.sol:QUADB",
            "label": "price",
            "offset": 0,
            "slot": "1",
            "type": "t_uint256"
          },
          {
            "astId": 3131,
            "contract": "contracts/QUADB.sol:QUADB",
            "label": "creator",
            "offset": 0,
            "slot": "2",
            "type": "t_address"
          }
        ],
        "numberOfBytes": "96"
      },
      "t_struct(SubscriptionStruct)3881_storage": {
        "encoding": "inplace",
        "label": "struct Gated.SubscriptionStruct",
        "members": [
          {
            "astId": 3876,
            "contract": "contracts/QUADB.sol:QUADB",
            "label": "subscriptionContract",
            "offset": 0,
            "slot": "0",
            "type": "t_contract(IGated)3866"
          },
          {
            "astId": 3878,
            "contract": "contracts/QUADB.sol:QUADB",
            "label": "creator",
            "offset": 0,
            "slot": "1",
            "type": "t_address"
          },
          {
            "astId": 3880,
            "contract": "contracts/QUADB.sol:QUADB",
            "label": "prize",
            "offset": 0,
            "slot": "2",
            "type": "t_uint256"
          }
        ],
        "numberOfBytes": "96"
      },
      "t_uint256": {
        "encoding": "inplace",
        "label": "uint256",
        "numberOfBytes": "32"
      }
    }
  }
}