{
  "address": "0x120948a3df0eae291ac71c5d7297c3c710075c0f",
  "abi": [
    {
      "inputs": [
        {
          "internalType": "address",
          "name": "_registry",
          "type": "address"
        },
        {
          "internalType": "address",
          "name": "_registrar",
          "type": "address"
        },
        {
          "internalType": "address",
          "name": "_publicResolver",
          "type": "address"
        },
        {
          "internalType": "bytes32",
          "name": "_baseNode",
          "type": "bytes32"
        },
        {
          "internalType": "address",
          "name": "_gateImplementation",
          "type": "address"
        },
        {
          "internalType": "address",
          "name": "_subscriptionImplementation",
          "type": "address"
        }
      ],
      "stateMutability": "nonpayable",
      "type": "constructor"
    },
    {
      "inputs": [
        {
          "internalType": "uint256",
          "name": "chainid",
          "type": "uint256"
        }
      ],
      "name": "ChainNotSupported",
      "type": "error"
    },
    {
      "inputs": [],
      "name": "InstanceAlreadyExists",
      "type": "error"
    },
    {
      "inputs": [],
      "name": "InvalidTokenAmount",
      "type": "error"
    },
    {
      "inputs": [],
      "name": "InvalidTokenSender",
      "type": "error"
    },
    {
      "inputs": [],
      "name": "NoCodeOwner",
      "type": "error"
    },
    {
      "inputs": [],
      "name": "NoInstanceAccess",
      "type": "error"
    },
    {
      "anonymous": false,
      "inputs": [
        {
          "indexed": true,
          "internalType": "address",
          "name": "previousOwner",
          "type": "address"
        },
        {
          "indexed": true,
          "internalType": "address",
          "name": "newOwner",
          "type": "address"
        }
      ],
      "name": "OwnershipTransferred",
      "type": "event"
    },
    {
      "inputs": [],
      "name": "DOMAIN_ID",
      "outputs": [
        {
          "internalType": "uint256",
          "name": "",
          "type": "uint256"
        }
      ],
      "stateMutability": "view",
      "type": "function"
    },
    {
      "inputs": [],
      "name": "PUBLIC_RESOLVER",
      "outputs": [
        {
          "internalType": "contract IFNSResolver",
          "name": "",
          "type": "address"
        }
      ],
      "stateMutability": "view",
      "type": "function"
    },
    {
      "inputs": [],
      "name": "QUADB_NODE",
      "outputs": [
        {
          "internalType": "bytes32",
          "name": "",
          "type": "bytes32"
        }
      ],
      "stateMutability": "view",
      "type": "function"
    },
    {
      "inputs": [],
      "name": "REGISTRAR",
      "outputs": [
        {
          "internalType": "contract IFNSRegistrar",
          "name": "",
          "type": "address"
        }
      ],
      "stateMutability": "view",
      "type": "function"
    },
    {
      "inputs": [],
      "name": "REGISTRY",
      "outputs": [
        {
          "internalType": "contract IFNS",
          "name": "",
          "type": "address"
        }
      ],
      "stateMutability": "view",
      "type": "function"
    },
    {
      "inputs": [],
      "name": "TABLELAND",
      "outputs": [
        {
          "internalType": "contract ITablelandTables",
          "name": "",
          "type": "address"
        }
      ],
      "stateMutability": "view",
      "type": "function"
    },
    {
      "inputs": [
        {
          "internalType": "bytes32",
          "name": "",
          "type": "bytes32"
        }
      ],
      "name": "codeOwner",
      "outputs": [
        {
          "internalType": "address",
          "name": "",
          "type": "address"
        }
      ],
      "stateMutability": "view",
      "type": "function"
    },
    {
      "inputs": [
        {
          "internalType": "string",
          "name": "_name",
          "type": "string"
        }
      ],
      "name": "createDBSpace",
      "outputs": [],
      "stateMutability": "nonpayable",
      "type": "function"
    },
    {
      "inputs": [
        {
          "internalType": "bytes32",
          "name": "_DBSpace",
          "type": "bytes32"
        },
        {
          "internalType": "string",
          "name": "_name",
          "type": "string"
        }
      ],
      "name": "createDBSubSpace",
      "outputs": [],
      "stateMutability": "nonpayable",
      "type": "function"
    },
    {
      "inputs": [
        {
          "internalType": "bytes32",
          "name": "_instance",
          "type": "bytes32"
        },
        {
          "internalType": "string",
          "name": "_name",
          "type": "string"
        },
        {
          "internalType": "string",
          "name": "_about",
          "type": "string"
        },
        {
          "internalType": "string",
          "name": "_chatID",
          "type": "string"
        },
        {
          "internalType": "string",
          "name": "_codeIPNS",
          "type": "string"
        },
        {
          "internalType": "string",
          "name": "_IPNSEncryptedKey",
          "type": "string"
        }
      ],
      "name": "createInstanceCode",
      "outputs": [],
      "stateMutability": "nonpayable",
      "type": "function"
    },
    {
      "inputs": [
        {
          "internalType": "bytes32",
          "name": "_node",
          "type": "bytes32"
        },
        {
          "internalType": "uint256",
          "name": "_price",
          "type": "uint256"
        },
        {
          "internalType": "address[]",
          "name": "_members",
          "type": "address[]"
        },
        {
          "internalType": "string",
          "name": "_metadataCID",
          "type": "string"
        },
        {
          "internalType": "string",
          "name": "_chatID",
          "type": "string"
        },
        {
          "internalType": "string",
          "name": "_IPNS",
          "type": "string"
        },
        {
          "internalType": "string",
          "name": "_IPNSEncryptedKey",
          "type": "string"
        }
      ],
      "name": "createSpaceInstance",
      "outputs": [],
      "stateMutability": "nonpayable",
      "type": "function"
    },
    {
      "inputs": [
        {
          "internalType": "bytes32",
          "name": "_instanceID",
          "type": "bytes32"
        }
      ],
      "name": "extendInstanceSubscription",
      "outputs": [],
      "stateMutability": "payable",
      "type": "function"
    },
    {
      "inputs": [
        {
          "internalType": "address",
          "name": "_sender",
          "type": "address"
        },
        {
          "internalType": "address",
          "name": "_gatedContract",
          "type": "address"
        }
      ],
      "name": "getAccess",
      "outputs": [
        {
          "internalType": "bool",
          "name": "",
          "type": "bool"
        }
      ],
      "stateMutability": "view",
      "type": "function"
    },
    {
      "inputs": [
        {
          "internalType": "bytes32",
          "name": "_salt",
          "type": "bytes32"
        }
      ],
      "name": "getDeterministicAddress",
      "outputs": [
        {
          "internalType": "address",
          "name": "",
          "type": "address"
        }
      ],
      "stateMutability": "view",
      "type": "function"
    },
    {
      "inputs": [
        {
          "internalType": "bytes32",
          "name": "_instanceID",
          "type": "bytes32"
        },
        {
          "internalType": "address",
          "name": "_owner",
          "type": "address"
        }
      ],
      "name": "getRemainingSubscriptionTime",
      "outputs": [
        {
          "internalType": "uint256",
          "name": "",
          "type": "uint256"
        }
      ],
      "stateMutability": "view",
      "type": "function"
    },
    {
      "inputs": [
        {
          "internalType": "bytes32",
          "name": "_salt",
          "type": "bytes32"
        }
      ],
      "name": "getSuscriptionDeterministicAddress",
      "outputs": [
        {
          "internalType": "address",
          "name": "",
          "type": "address"
        }
      ],
      "stateMutability": "view",
      "type": "function"
    },
    {
      "inputs": [],
      "name": "getTime",
      "outputs": [
        {
          "internalType": "uint256",
          "name": "",
          "type": "uint256"
        }
      ],
      "stateMutability": "view",
      "type": "function"
    },
    {
      "inputs": [
        {
          "internalType": "bytes32",
          "name": "_instanceID",
          "type": "bytes32"
        },
        {
          "internalType": "address",
          "name": "_subscriber",
          "type": "address"
        }
      ],
      "name": "hasActiveSubscription",
      "outputs": [
        {
          "internalType": "bool",
          "name": "",
          "type": "bool"
        }
      ],
      "stateMutability": "view",
      "type": "function"
    },
    {
      "inputs": [
        {
          "internalType": "bytes32",
          "name": "_instance",
          "type": "bytes32"
        },
        {
          "internalType": "address",
          "name": "_sender",
          "type": "address"
        }
      ],
      "name": "hasMutateAccess",
      "outputs": [
        {
          "internalType": "bool",
          "name": "access",
          "type": "bool"
        }
      ],
      "stateMutability": "view",
      "type": "function"
    },
    {
      "inputs": [
        {
          "internalType": "bytes32",
          "name": "_instance",
          "type": "bytes32"
        },
        {
          "internalType": "address",
          "name": "_sender",
          "type": "address"
        }
      ],
      "name": "hasViewAccess",
      "outputs": [
        {
          "internalType": "bool",
          "name": "",
          "type": "bool"
        }
      ],
      "stateMutability": "view",
      "type": "function"
    },
    {
      "inputs": [
        {
          "internalType": "bytes32",
          "name": "_instance",
          "type": "bytes32"
        },
        {
          "internalType": "address[]",
          "name": "_members",
          "type": "address[]"
        }
      ],
      "name": "insertNewMembers",
      "outputs": [],
      "stateMutability": "nonpayable",
      "type": "function"
    },
    {
      "inputs": [
        {
          "internalType": "bytes32",
          "name": "",
          "type": "bytes32"
        }
      ],
      "name": "instanceSubscription",
      "outputs": [
        {
          "internalType": "contract IGated",
          "name": "subscriptionContract",
          "type": "address"
        },
        {
          "internalType": "address",
          "name": "creator",
          "type": "address"
        },
        {
          "internalType": "uint256",
          "name": "prize",
          "type": "uint256"
        }
      ],
      "stateMutability": "view",
      "type": "function"
    },
    {
      "inputs": [
        {
          "internalType": "bytes32",
          "name": "",
          "type": "bytes32"
        }
      ],
      "name": "instances",
      "outputs": [
        {
          "internalType": "address",
          "name": "gatedContract",
          "type": "address"
        },
        {
          "internalType": "uint256",
          "name": "price",
          "type": "uint256"
        },
        {
          "internalType": "address",
          "name": "creator",
          "type": "address"
        }
      ],
      "stateMutability": "view",
      "type": "function"
    },
    {
      "inputs": [
        {
          "internalType": "bytes32",
          "name": "",
          "type": "bytes32"
        }
      ],
      "name": "isType",
      "outputs": [
        {
          "internalType": "enum Core.Types",
          "name": "",
          "type": "uint8"
        }
      ],
      "stateMutability": "view",
      "type": "function"
    },
    {
      "inputs": [
        {
          "internalType": "address",
          "name": "",
          "type": "address"
        },
        {
          "internalType": "address",
          "name": "",
          "type": "address"
        },
        {
          "internalType": "uint256",
          "name": "",
          "type": "uint256"
        },
        {
          "internalType": "bytes",
          "name": "",
          "type": "bytes"
        }
      ],
      "name": "onERC721Received",
      "outputs": [
        {
          "internalType": "bytes4",
          "name": "",
          "type": "bytes4"
        }
      ],
      "stateMutability": "view",
      "type": "function"
    },
    {
      "inputs": [],
      "name": "owner",
      "outputs": [
        {
          "internalType": "address",
          "name": "",
          "type": "address"
        }
      ],
      "stateMutability": "view",
      "type": "function"
    },
    {
      "inputs": [
        {
          "internalType": "bytes32",
          "name": "_instanceID",
          "type": "bytes32"
        }
      ],
      "name": "purchaseInstanceSubscription",
      "outputs": [],
      "stateMutability": "payable",
      "type": "function"
    },
    {
      "inputs": [
        {
          "internalType": "bytes32",
          "name": "_instance",
          "type": "bytes32"
        },
        {
          "internalType": "address[]",
          "name": "_members",
          "type": "address[]"
        }
      ],
      "name": "removeMembers",
      "outputs": [],
      "stateMutability": "nonpayable",
      "type": "function"
    },
    {
      "inputs": [],
      "name": "renounceOwnership",
      "outputs": [],
      "stateMutability": "nonpayable",
      "type": "function"
    },
    {
      "inputs": [
        {
          "internalType": "address",
          "name": "newOwner",
          "type": "address"
        }
      ],
      "name": "safeTransferDomainOwnership",
      "outputs": [],
      "stateMutability": "nonpayable",
      "type": "function"
    },
    {
      "inputs": [
        {
          "internalType": "uint256",
          "name": "tokenId",
          "type": "uint256"
        },
        {
          "internalType": "bytes32",
          "name": "baseNode",
          "type": "bytes32"
        },
        {
          "internalType": "bytes32",
          "name": "node",
          "type": "bytes32"
        }
      ],
      "name": "setQUADBNode",
      "outputs": [],
      "stateMutability": "nonpayable",
      "type": "function"
    },
    {
      "inputs": [
        {
          "internalType": "uint256",
          "name": "",
          "type": "uint256"
        }
      ],
      "name": "tableIDs",
      "outputs": [
        {
          "internalType": "uint256",
          "name": "",
          "type": "uint256"
        }
      ],
      "stateMutability": "view",
      "type": "function"
    },
    {
      "inputs": [
        {
          "internalType": "uint256",
          "name": "",
          "type": "uint256"
        }
      ],
      "name": "tables",
      "outputs": [
        {
          "internalType": "string",
          "name": "",
          "type": "string"
        }
      ],
      "stateMutability": "view",
      "type": "function"
    },
    {
      "inputs": [
        {
          "internalType": "address",
          "name": "newOwner",
          "type": "address"
        }
      ],
      "name": "transferDomainOwnership",
      "outputs": [],
      "stateMutability": "nonpayable",
      "type": "function"
    },
    {
      "inputs": [
        {
          "internalType": "address",
          "name": "newOwner",
          "type": "address"
        }
      ],
      "name": "transferOwnership",
      "outputs": [],
      "stateMutability": "nonpayable",
      "type": "function"
    },
    {
      "inputs": [
        {
          "internalType": "bytes32",
          "name": "_codeID",
          "type": "bytes32"
        },
        {
          "internalType": "string",
          "name": "_name",
          "type": "string"
        },
        {
          "internalType": "string",
          "name": "_about",
          "type": "string"
        }
      ],
      "name": "updateCode",
      "outputs": [],
      "stateMutability": "nonpayable",
      "type": "function"
    },
    {
      "inputs": [
        {
          "internalType": "bytes32",
          "name": "_instanceID",
          "type": "bytes32"
        },
        {
          "internalType": "string",
          "name": "_metadataCID",
          "type": "string"
        }
      ],
      "name": "updateInstance",
      "outputs": [],
      "stateMutability": "nonpayable",
      "type": "function"
    },
    {
      "stateMutability": "payable",
      "type": "receive"
    }
  ],
  "transactionHash": "0x8930292f7e2c1a24292aed4b5b3240539ced54ef1d6bee78dba1a06c2c684e9e",
  "args": [
    "0x916915d0d41EaA8AAEd70b2A5Fb006FFc213961b",
    "0x45d9d6408d5159a379924cf423cb7e15C00fA81f",
    "0xed9bd04b1BB87Abe2EfF583A977514940c95699c",
    "0x78f6b1389af563cc5c91f234ea46b055e49658d8b999eeb9e0baef7dbbc93fdb",
    "0xC26343744c74cf342b18Ee6a2bA0D3D8bf780ca1",
    "0xC38db51d09E0C01B7d9d039F072d1393fba97476"
  ],
  "numDeployments": 2,
  "solcInputHash": "90357ea1ebfabe1fd8ca1c9259888a0b",
  "bytecode": "0x610100604090808252346200092f5760c08162004642803803809162000026828562000982565b8339810103126200092f576200003c81620009a6565b9060206200004c818301620009a6565b926200005a858401620009a6565b6060840151906200007c60a06200007460808801620009a6565b9601620009a6565b9160009384549260018060a01b0319933385821617875560018060a01b03998a80948193823391167f8be0079c531659141344cd1fd0a4f28419497f9722a3daafe3b4186f6b6457e08c80a3166080521660a0521660c05260025585600495168186541617855585600592169082541617815584620000fa62001069565b1660e05262000178620001728751620001138162000934565b603881527f44425370616365494420746578742c20444253756253706163654f6649442074868201527f6578742c20444253756253706163654e616d6520746578740000000000000000898201526200016b620009d7565b9062000fec565b62000a86565b85516001600160401b03959060e08101878111828210176200091c576200027a9162000172918a5260a781527f496e7374616e6365494420746578742c20696e7374616e63654f665370616365878201527f20746578742c20696e7374616e63655479706520746578742c206d65746164618a8201527f746143494420746578742c2063686174494420746578742c2049504e5320746560608201527f78742c2049504e53456e637279707465644b657920746578742c20676174656460808201527f436f6e747261637420746578742c20707269636520746578742c20637265617460a0820152661bdc881d195e1d60ca1b60c08201526200016b62000d1b565b865160a08101818110888211176200091c576200032f9162000172918a52607081527f496e7374616e6365494420746578742c20636f6465494420746578742c206e61878201527f6d6520746578742c2061626f757420746578742c2063686174494420746578748a8201527f2c2049504e5320746578742c2049504e53456e637279707465644b657920746560608201526f1e1d0b0818dc99585d1bdc881d195e1d60821b60808201526200016b62000d56565b6200038c620001728851620003448162000934565b602d81527f496e7374616e6365494420746578742c20737562736372696265722074657874878201526c0b08195b991cd05d081d195e1d609a1b8a8201526200016b62000d83565b620003d087516200039d8162000966565b601c81527f496e7374616e6365494420746578742c206d656d626572207465787400000000868201526200016b62000dae565b95600754916801000000000000000097888410156200090957620003fc600194858101600755620009fe565b919091620008f757805190848211620008e45781906200041d845462000a30565b601f8111620008a8575b508990601f83116001146200084457899262000838575b5050600019600383901b1c191690851b1790555b60e05116968851936361a23d0f60e01b85528585604481019a308b83015260249b8d8d84015260075480915260648301606482871b85010191600786528c808720928b88925b84841062000783575050505050508383809203925af194851562000779578695620006c7575b50508351918211620006b5578111620006a35784600993845483865580841062000686575b500183855285852083865b8481106200067357505050505062000505620009d7565b8254156200066157620005246200052a91848652868620549062000e00565b62000bdd565b6200053462000d1b565b90825481101562000661576200055891620005249184865286862001549062000e00565b6200056262000d56565b8154600210156200064f57620005246200058791838552600286862001549062000e00565b6200059162000d83565b8154600310156200064f5762000524620005b691838552600386862001549062000e00565b620005c062000dae565b9481548510156200063e57508152200154620005e29162000524919062000e00565b5161342790816200121b8239608051818181611e46015261250f015260a05181818161057901528181611081015281816111770152611c30015260c0518181816101d20152612564015260e05181818161053401526133700152f35b634e487b7160e01b83526032855282fd5b634e487b7160e01b8352603285528583fd5b634e487b7160e01b8452603286528684fd5b88845194019381840155018490620004ee565b8587528287206200069c91810190850162000a6d565b38620004e3565b634e487b7160e01b8452604186528684fd5b634e487b7160e01b8552604187528785fd5b909194503d8087833e620006dc818362000982565b810190878183031262000775578051908482116200075f570181601f820112156200077557805192848411620007635783901b908b5193620007218a84018662000982565b845288808501928201019283116200075f5788809101915b8383106200074e5750505050923880620004be565b825181529181019189910162000739565b8780fd5b634e487b7160e01b885260418a528a88fd5b8680fd5b8a513d88823e3d90fd5b929591949750929597506063198d82030184528d90875490620007a68262000a30565b91828252858581831692836000146200081c57505050600114620007de575b50508290960192019201928b95938b95938b8f62000498565b908f92508883528383205b818410620007fe5750500181018238620007c5565b80959193959492945483878701015201930190918f928d94620007e9565b91955093915060ff19168383015215158b1b01019038620007c5565b0151905038806200043e565b848a528a8a208894509190601f1984168b5b8d82821062000891575050841162000877575b505050811b01905562000452565b015160001960f88460031b161c1916905538808062000869565b8385015186558b9790950194938401930162000856565b620008d290858b528b8b20601f85018b1c8101918d8610620008d9575b601f018b1c019062000a6d565b3862000427565b9091508190620008c5565b634e487b7160e01b885260418a52602488fd5b634e487b7160e01b8752868952602487fd5b634e487b7160e01b865260418852602486fd5b634e487b7160e01b855260418752602485fd5b600080fd5b606081019081106001600160401b038211176200095057604052565b634e487b7160e01b600052604160045260246000fd5b604081019081106001600160401b038211176200095057604052565b601f909101601f19168101906001600160401b038211908210176200095057604052565b51906001600160a01b03821682036200092f57565b6001600160401b0381116200095057601f01601f191660200190565b60405190620009e68262000966565b600982526864625f73706163657360b81b6020830152565b60075481101562000a1a57600760005260206000200190600090565b634e487b7160e01b600052603260045260246000fd5b90600182811c9216801562000a62575b602083101462000a4c57565b634e487b7160e01b600052602260045260246000fd5b91607f169162000a40565b81811062000a79575050565b6000815560010162000a6d565b60075468010000000000000000811015620009505762000aae600191828101600755620009fe565b92909262000bc7578051906001600160401b038211620009505762000ad4845462000a30565b601f811162000b85575b5060209081601f841160011462000b1e575092829391839260009462000b12575b50501b916000199060031b1c1916179055565b01519250388062000aff565b919083601f1981168760005284600020946000905b8883831062000b6a575050501062000b50575b505050811b019055565b015160001960f88460031b161c1916905538808062000b46565b85870151885590960195948501948793509081019062000b33565b62000bb590856000526020600020601f850160051c8101916020861062000bbc575b601f0160051c019062000a6d565b3862000ade565b909150819062000ba7565b634e487b7160e01b600052600060045260246000fd5b6008546801000000000000000081101562000950576001918282018060085582101562000a1a576008600090815281517ff3f7a9fe364faab93b216da50a3214154f22a0a2b415b23a84c8169e8b636ee390930193602093929091906001600160401b03841162000d075762000c54865462000a30565b601f811162000cd5575b508491601f851160011462000c8d57939450849291908362000b125750501b916000199060031b1c1916179055565b86815285812093958591601f198316915b8883831062000cba575050501062000b5057505050811b019055565b85870151885590960195948501948793509081019062000c9e565b62000d0090878452868420601f870160051c81019188881062000bbc57601f0160051c019062000a6d565b3862000c5e565b634e487b7160e01b82526041600452602482fd5b6040519062000d2a8262000966565b601382527f64625f7370616365735f696e7374616e636573000000000000000000000000006020830152565b6040519062000d658262000966565b600f82526e696e7374616e6365735f636f64657360881b6020830152565b6040519062000d928262000966565b600d82526c737562736372697074696f6e7360981b6020830152565b6040519062000dbd8262000966565b60078252666d656d6265727360c81b6020830152565b9081519160005b83811062000dec575050016000815290565b806020809284010151818501520162000dda565b62000e699062000e5a62000e3c93600162000e2662000e1f4662000e6c565b9262000e6c565b9162000e4f604051978896602088019062000dd3565b9183605f60f81b93848152019062000dd3565b908152019062000dd3565b03601f19810183528262000982565b90565b806000917a184f03e93ff9f4daa797ed6e38ed64bf6a1f0100000000000000008082101562000fdd575b506d04ee2d6d415b85acef81000000008083101562000fcd575b50662386f26fc100008083101562000fbd575b506305f5e1008083101562000fad575b506127108083101562000f9d575b50606482101562000f8c575b600a8092101562000f81575b6001908160218186019562000f0e87620009bb565b9662000f1e604051988962000982565b80885262000f2f601f1991620009bb565b01366020890137860101905b62000f48575b5050505090565b600019019083906f181899199a1a9b1b9c1cb0b131b232b360811b8282061a83530491821562000f7b5791908262000f3b565b62000f41565b916001019162000ef9565b919060646002910491019162000eed565b6004919392049101913862000ee1565b6008919392049101913862000ed3565b6010919392049101913862000ec3565b6020919392049101913862000eb0565b60409350810491503862000e96565b600162001034926200105262000e699383620010436200100c4662000e6c565b82604051998a976c021a922a0aa22902a20a126229609d1b60208a0152602d89019062000dd3565b605f60f81b8152019062000dd3565b600560fb1b8152019062000dd3565b602960f81b815203601e1981018452018262000982565b466001036200108a5773012969f7e3439a9b04025b5a049eb9bad82a8c1290565b46600a03620010ab5773fad44bf5b843de943a09d4f3e84949a11d3aa3e690565b4661a4b103620010cd57739abd75e8640871a5a20d3b4ee6330a04c962affd90565b4661a4ba03620010ef57731a22854c5b1642760a827f20137a67930ae108d290565b466089036200111057735c4e6a9e5c1e1bf445a062006faf19ea6c49afea90565b4661013a0362001132577359ef8bf2d6c102b4c42aef9189e1a9f0abfd652d90565b4662aa36a703620011555773c50c62498448acc8dbde43da77f8d5d2e2c7597d90565b466101a403620011775773c72e8a7be04f2469f8c2db3f1bdf69a7d516abba90565b4662066eee036200119a5773223a74b8323914afdc3ff1e5005564dc17231d6e90565b466201388103620011bd57734b48841d4b32c4650e4abc117a03fe8b51f38f6890565b466204cb2f03620011e05773030bcf3d50cad04c2e57391b12740982a930862190565b46617a6903620012025773e7f1725e7734ce288f8367e1bb143e90bb3f051290565b60405163264e42cf60e01b8152466004820152602490fdfe608080604052600436101561001d575b50361561001b57600080fd5b005b600090813560e01c90816306433b1b14611e32575080630c9ddf6d14611cb557806311ad2f3414611c82578063150b7a0214611be95780632711447f14611b9c578063284e82e8146119c25780633ac27522146113895780633e2038351461135a5780633ec29e721461120857806347d121c5146111e157806354bfc7e51461114f578063557ed1ba14611134578063606410db146111165780636d8243e514611059578063715018a614610fff57806371671bf214610ed35780637a9b777414610e62578063820cc55714610e4457806383a8b3d014610a4757806384ec965314610a1a57806388975383146109f35780638a8fd250146109a15780638da5cb5b1461097a5780639ad66a23146107e8578063a58dcc95146107bd578063a5df63d61461078c578063b35b8e7414610758578063ba0d18aa1461070b578063bfc51b7e1461067f578063c91f669414610650578063ca16ac80146105a8578063cb60907714610563578063d68d087c1461051e578063e0cf1e4c14610317578063e2b1e4ed146102ca578063f2fde38b146102045763ffeb4a300361000f57346102015780600319360112610201576040517f00000000000000000000000000000000000000000000000000000000000000006001600160a01b03168152602090f35b80fd5b50346102015760203660031901126102015761021e611ea7565b610226612187565b6001600160a01b0390811690811561027657600054826001600160601b0360a01b821617600055167f8be0079c531659141344cd1fd0a4f28419497f9722a3daafe3b4186f6b6457e0600080a380f35b60405162461bcd60e51b815260206004820152602660248201527f4f776e61626c653a206e6577206f776e657220697320746865207a65726f206160448201526564647265737360d01b6064820152608490fd5b5034610201576020366003190112610201576004358152600c60205260ff60408220541660405190600781101561030357602092508152f35b634e487b7160e01b83526021600452602483fd5b50346102015761032636612144565b8183929352602090600a8252604083209360018060a01b039461035486600281845416930154163314612481565b806104b8575b506103649061324a565b91835b82518110156104b4576104af906104aa660102ba422a922960cd1b8861044d886104a3896103c88a610397611fc1565b969054978b6103d46103cf6103aa61311d565b936103b3611fc1565b989054946103c260039d612e29565b9a613140565b5116612e98565b612e29565b946104446040519687878101996c024b739ba30b731b2a4a2101e9609d1b8b526d01020a7221036b2b6b132b9101e960951b815161041a81602d948d8688019101612096565b83019182015282519061043582603b958c8785019101612096565b0103601b810189520187612075565b881b1c90612c44565b916040519889936b02222a622aa2290232927a6960a51b8486015261047c81518092602c968789019101612096565b84019283015251906104948260339586840190612096565b01036013810187520185612075565b1b1c61336e565b6130f8565b610367565b8480f35b803b1561051a5784604051809263362eb0ab60e11b82528183816104df89600483016124b9565b03925af1801561050f579085916104f7575b5061035a565b6105009061202c565b61050b5783386104f1565b8380fd5b6040513d87823e3d90fd5b8480fd5b50346102015780600319360112610201576040517f00000000000000000000000000000000000000000000000000000000000000006001600160a01b03168152602090f35b50346102015780600319360112610201576040517f00000000000000000000000000000000000000000000000000000000000000006001600160a01b03168152602090f35b5034610201576105b736612144565b818352600a60205282604081206105df60018060a01b03600281845416930154163314612481565b806105f3575b50506105f091613154565b80f35b803b1561064c57816040518092632f41d6e160e21b825281838161061a89600483016124b9565b03925af1801561064157156105e5576106329061202c565b61063d5782386105e5565b8280fd5b6040513d84823e3d90fd5b5080fd5b50346102015760603660031901126102015761066a612187565b60043560035560243560025560443560015580f35b50346102015761068e36611ed3565b909291808352600c60205260ff60408420541660078110156106f7576105f093946106be60056106f19314612231565b6106d26106cc3686846121fa565b846124fd565b808752600c60205260408720805460ff191660051790559336916121fa565b91612aed565b634e487b7160e01b84526021600452602484fd5b5034610201576020366003190112610201576040606091600435815260066020522060018060a01b0390600282825416926001830154169101549060405192835260208301526040820152f35b503461020157602036600319011261020157602060018060a01b036107836004358260055416612794565b60405191168152f35b50346102015760403660031901126102015760206107b36107ab611ebd565b6004356128fa565b6040519015158152f35b503461020157602036600319011261020157602060018060a01b036107836004358260045416612794565b50602036600319011261020157600435808252600660205261081260026040842001543414612948565b808252600660205260408220546001600160a01b039083908216803b1561064c578180916024604051809481936320d3b93560e11b83523360048401525af1801561064157610966575b50829052600660205260016040842001541660633402348104606314341517156109525790606461088e9204906129a2565b62278d0042019081421161093e576105f0916109346103cf926108af611f53565b949054936108f26108be6130cf565b916108d36108ca611f53565b9590549661324a565b906108ec6103cf6108e66103cf33612e98565b92612cc1565b91612a7d565b92604051926109008461205a565b601e84527f496e7374616e636549442c20737562736372696265722c20656e647341740000602085015260031b1c90612ba4565b9160031b1c61336e565b634e487b7160e01b83526011600452602483fd5b634e487b7160e01b84526011600452602484fd5b61096f9061202c565b61063d57823861085c565b5034610201578060031936011261020157546040516001600160a01b039091168152602090f35b50346102015760203660031901126102015760043560095481101561064c5760209060096000527f6e1540171b6c0c960b71a7020d9f60077f6af931a8bbf590da0223dacf75c7af0154604051908152f35b50346102015760403660031901126102015760206107b3610a12611ebd565b60043561236a565b50346102015760403660031901126102015760206107b3610a39611ea7565b610a41611ebd565b906127ec565b50346102015760c0366003190112610201576004356024356001600160401b03811161063d57610a7b903690600401611e75565b6044929192356001600160401b03811161051a57610a9d903690600401611e75565b9190926064356001600160401b038111610e4057610abf903690600401611e75565b91906084356001600160401b038111610e3c57610ae0903690600401611e75565b969060a4356001600160401b038111610e3857610b01903690600401611e75565b939092610b0e338761236a565b15610e26578b9a8b988b6040518060209c8d8201938c8552808a60408501378201906040820152038c81018252604001610b489082612075565b519020809d528d600c8b52604090205460ff166007811015610e1257610e00578c8e52600b8a526040808f208054336001600160a01b0319909116179055600c8b528e20805460ff19166006179055610ba3913691906121fa565b983690610baf926121fa565b953690610bbb926121fa565b973690610bc7926121fa565b913690610bd3926121fa565b96610bdc611f06565b97905496610be8612fb0565b93610bf1611f06565b9b905496610bfe9061324a565b610c0790612e29565b94610c119061324a565b610c1a90612e29565b92610c2490612e29565b97610c2e90612e29565b93610c3890612e29565b91610c4290612e29565b90610c4c90612e29565b91610c5633612e98565b610c5f90612e29565b948a6040519a888c9951908184808d01920191610c7b92612096565b890196600b60fa1b978884820152815191828560218401920191610c9e92612096565b01908760218301528051809360228401920191610cba92612096565b01856022820152815191828d60238401920191610cd692612096565b01846023820152815191828c60248401920191610cf292612096565b01836024820152815191828b60258401920191610d0e92612096565b01826025820152815191828a60268401920191610d2a92612096565b01906026820152815191828860278401920191610d4692612096565b0103600781018452602701610d5b9084612075565b6040519160808301978389106001600160401b038a1117610dea577f496e7374616e636549442c20636f646549442c206e616d652c2061626f75742c610934966105f09a604052604886528501527f206368617449442c2049504e532c2049504e53456e637279707465644b65792c6040850152671031b932b0ba37b960c11b606085015260031b1c90612ba4565b634e487b7160e01b600052604160045260246000fd5b604051631144626f60e01b8152600490fd5b634e487b7160e01b8f52602160045260248ffd5b6040516346627df160e01b8152600490fd5b8a80fd5b8880fd5b8680fd5b50346102015780600319360112610201576020600354604051908152f35b5034610201576020366003190112610201576004356001600160401b03811161064c57610e966105f0913690600401611e75565b6106f1610eb0600154610eaa3685876121fa565b906124fd565b92838652600c60205260408620600560ff198254161790556001549236916121fa565b50346102015760208060031936011261064c5760043560085481101561063d5760086000527ff3f7a9fe364faab93b216da50a3214154f22a0a2b415b23a84c8169e8b636ee30190604051918381549460019086821c93828816978815610ff5575b8686108914610fe157868899878a98999a529182600014610fbd575050600114610f81575b505050610f6992500383612075565b610f7d6040519282849384528301906120b9565b0390f35b869350819291528282205b858310610fa5575050610f699350820101388080610f5a565b80548389018501528794508693909201918101610f8c565b935094505050610f6994915060ff191682840152151560051b820101388080610f5a565b634e487b7160e01b83526022600452602483fd5b94607f1694610f35565b5034610201578060031936011261020157611018612187565b600080546001600160a01b0319811682556001600160a01b03167f8be0079c531659141344cd1fd0a4f28419497f9722a3daafe3b4186f6b6457e08280a380f35b50346102015760203660031901126102015780611074611ea7565b61107c612187565b6003547f00000000000000000000000000000000000000000000000000000000000000006001600160a01b03169190823b1561111157604051632142170760e11b81523060048201526001600160a01b03909216602483015260448201529082908290818381606481015b03925af18015610641576110fd575b5060015580f35b6111069061202c565b6102015780386110f6565b505050fd5b50346102015780600319360112610201576020600154604051908152f35b50346102015780600319360112610201576020604051428152f35b5034610201576020366003190112610201578061116a611ea7565b611172612187565b6003547f00000000000000000000000000000000000000000000000000000000000000006001600160a01b03169190823b15611111576040516323b872dd60e01b81523060048201526001600160a01b03909216602483015260448201529082908290818381606481016110e7565b50346102015760403660031901126102015760206107b3611200611ebd565b60043561227d565b50346102015761121736611ed3565b828452600a6020908152604085206002015490939291906001600160a01b03163303611315576112fb6112546105f09594936109349336916121fa565b9261125d611f8a565b9590549461128961130b602d611271612e69565b946112d16103cf611280611f8a565b96905497612e29565b986112cc602e604051809c6d036b2ba30b230ba30a1a4a2101e960951b888301526112bc815180928a8686019101612096565b810103600e81018d52018b612075565b61324a565b60405198826c024b739ba30b731b2a4a2101e9609d1b8b9485015282519283918686019101612096565b810103600d810188520186612075565b60031b1c90612fdb565b60405162461bcd60e51b815260048101859052601960248201527f51554144423a204e6f20696e7374616e636520616363657373000000000000006044820152606490fd5b5034610201576040366003190112610201576020611381611379611ebd565b60043561287e565b604051908152f35b50346102015760e0366003190112610201576001600160401b036044351161020157366023604435011215610201576001600160401b036044356004013511610201573660246044356004013560051b604435010111610201576064356001600160401b03811161064c57611402903690600401611e75565b91906084356001600160401b03811161063d57611423903690600401611e75565b9060a4356001600160401b03811161051a57611443903690600401611e75565b93909260c4356001600160401b038111610e4057611465903690600401611e75565b946004358852600c60205260ff60408920541660078110156119ae57600561148d9114612231565b60405160208101906004358252888360408301376114bd6040828b81018d83820152036020810184520182612075565b51902094858952600c60205260ff60408a205416600781101561199a57610e00578894604435600401356118ff575b6040516114f88161203f565b60018060a01b038716815260243560208201526040810190338252888c52600a602052600260408d20602060018060a01b03845116936001600160601b0360a01b948584541617835501516001820155019160018060a01b039051169082541617905560018060a01b03861615801590806118f4575b1561187a5750868a52600c60205260408a20805460ff19166003179055611597876024356125db565b868a52600c60205260ff60408b2054169a60078c1015611866576117a2946115e86029956115e06103cf9e9f966115d86116999c9b976115f09736916121fa565b9636916121fa565b9c36916121fa565b9936916121fa565b916115f9611f8a565b9a905499611605612e69565b9761161a611611611f8a565b9f90549c61324a565b956116656103cf61165f61165961165361164d6116476103cf6116416103cf60043561324a565b9c612cc1565b9b612e29565b98612e29565b96612e29565b93612e29565b93612e98565b926116746103cf602435612cc1565b946116816103cf33612e98565b9760206040519e8f8c83829e51948593019101612096565b8a0197600b60fa1b988960208201526116bc825180936020602185019101612096565b018860218201526116d7825180936020602285019101612096565b018760228201526116f2825180936020602385019101612096565b0186602382015261170d825180936020602485019101612096565b01856024820152611728825180936020602585019101612096565b01846025820152611743825180936020602685019101612096565b0183602682015261175e825180936020602785019101612096565b01826027820152611779825180936020602885019101612096565b019060288201526117938251809360208785019101612096565b01036009810185520183612075565b6040519060a08201938285106001600160401b03861117610dea576105f09761093495604052607584527f496e7374616e636549442c20696e7374616e63654f6653706163652c20696e7360208501527f74616e6365547970652c206d657461646174614349442c206368617449442c2060408501527f49504e532c2049504e53456e637279707465644b65792c206761746564436f6e6060850152743a3930b1ba1610383934b1b2961031b932b0ba37b960591b608085015260031b1c90612ba4565b634e487b7160e01b8b52602160045260248bfd5b80806118e9575b156118af5750868a52600c60205260408a20805460ff191660011790556118aa876024356125db565b611597565b156118d057868a52600c60205260408a20805460ff19166002179055611597565b600c60205260408a20805460ff19166004179055611597565b506024351515611881565b50602435151561156e565b945061191736604435600401356024604435016120de565b6119758a806119308a60018060a01b03600454166126f9565b9360405161196181611953602082019463a224cee760e01b8652602483016124b9565b03601f198101835282612075565b519082865af161196f61268b565b506126bb565b9461199561198f36604435600401356024604435016120de565b88613154565b6114ec565b634e487b7160e01b8a52602160045260248afd5b634e487b7160e01b89526021600452602489fd5b506020908160031936011261020157600435916119df338461287e565b838352600682526119f860026040852001543414612948565b8383526006825260408320546001600160a01b03908116803b1561051a57848091602460405180948193630684c62560e11b83523360048401525af1801561050f57611b89575b50848452600683526001604085200154166063340234810460631434151715611b7557906064611a709204906129a2565b62278d00810180911161093e57610934611b666105f09495611a90611f53565b959054946103cf61130b603f611aa46130cf565b94611afd6103cf611abf611ab6611f53565b97905498612cc1565b986112cc6029604051809c68032b73239a0ba101e960bd1b88830152611aed815180928a8686019101612096565b810103600981018d52018b612075565b90611b0a6103cf33612e98565b90604051998a936c024b739ba30b731b2a4a2101e9609d1b83860152611b398151809285602d89019101612096565b8401917101020a7221039bab139b1b934b132b9101e960751b602d84015283519384918785019101612096565b0103601f810188520186612075565b634e487b7160e01b85526011600452602485fd5b611b959094919461202c565b9238611a3f565b50346102015760203660031901126102015760406060916004358152600a6020522060018060a01b0390818154169160026001830154920154169060405192835260208301526040820152f35b503461020157608036600319011261020157611c03611ea7565b50611c0c611ebd565b506064356001600160401b03811161064c57611c2c903690600401611e75565b50507f00000000000000000000000000000000000000000000000000000000000000006001600160a01b03163303611c7057604051630a85bd0160e11b8152602090f35b604051634a93b62160e11b8152600490fd5b5034610201576020366003190112610201576020906004358152600b8252604060018060a01b0391205416604051908152f35b5034610201576060366003190112610201576004356001600160401b0360243581811161050b57611cea903690600401611e75565b909160443590811161051a57611d04903690600401611e75565b848652600b60209081526040872054909391906001600160a01b03163303611e20576105f095611d4a61093494611d42602998611e109636916121fa565b9336916121fa565b91611d8561130b611d59611f06565b99905498611dea6103cf611d6b612fb0565b976112cc6031611d8b611d7c611f06565b9a90549b612e29565b9c612e29565b9b6040519c8d916603730b6b2901e960cd1b89840152611db4815180928b602787019101612096565b8201690161030b137baba101e960b51b6027820152611ddb825180938b8785019101612096565b0103601181018d52018b612075565b604051988268031b7b232a4a2101e960bd1b8b9485015282519283918686019101612096565b8101036009810188520186612075565b6040516306815cbd60e41b8152600490fd5b90503461064c578160031936011261064c577f00000000000000000000000000000000000000000000000000000000000000006001600160a01b03168152602090f35b9181601f84011215611ea2578235916001600160401b038311611ea25760208381860195010111611ea257565b600080fd5b600435906001600160a01b0382168203611ea257565b602435906001600160a01b0382168203611ea257565b906040600319830112611ea25760043591602435906001600160401b038211611ea257611f0291600401611e75565b9091565b60095460021015611f3d5760096000527f6e1540171b6c0c960b71a7020d9f60077f6af931a8bbf590da0223dacf75c7b190600090565b634e487b7160e01b600052603260045260246000fd5b60095460031015611f3d5760096000527f6e1540171b6c0c960b71a7020d9f60077f6af931a8bbf590da0223dacf75c7b290600090565b60095460011015611f3d5760096000527f6e1540171b6c0c960b71a7020d9f60077f6af931a8bbf590da0223dacf75c7b090600090565b60095460041015611f3d5760096000527f6e1540171b6c0c960b71a7020d9f60077f6af931a8bbf590da0223dacf75c7b390600090565b60095415611f3d5760096000527f6e1540171b6c0c960b71a7020d9f60077f6af931a8bbf590da0223dacf75c7af90600090565b6001600160401b038111610dea57604052565b606081019081106001600160401b03821117610dea57604052565b604081019081106001600160401b03821117610dea57604052565b90601f801991011681019081106001600160401b03821117610dea57604052565b60005b8381106120a95750506000910152565b8181015183820152602001612099565b906020916120d281518092818552858086019101612096565b601f01601f1916010190565b9092916001600160401b038411610dea578360051b604051926020809461210782850182612075565b8097815201918101928311611ea257905b8282106121255750505050565b81356001600160a01b0381168103611ea2578152908301908301612118565b906040600319830112611ea25760043591602435906001600160401b038211611ea25780602383011215611ea257816024612184936004013591016120de565b90565b6000546001600160a01b0316330361219b57565b606460405162461bcd60e51b815260206004820152602060248201527f4f776e61626c653a2063616c6c6572206973206e6f7420746865206f776e65726044820152fd5b6001600160401b038111610dea57601f01601f191660200190565b929192612206826121df565b916122146040519384612075565b829481845281830111611ea2578281602093846000960137010152565b1561223857565b60405162461bcd60e51b815260206004820152601c60248201527f51554144423a204e6f6465206973206e6f742061207375626e6f6465000000006044820152606490fd5b906000828152600a60205260018060a01b0360408220541690600c60205260ff6040822054166007811015612356576003036122be575050612184916128fa565b838152600c60205260ff6040822054166007811015612356576001036122ff57506122e990826127ec565b9182156122f557505090565b61218492506128fa565b8392508093915052600c60205260ff604083205416600781101561030357600214908115612334575b50156121845750600190565b825250600c602052604081205460ff1660078110156123565760041438612328565b634e487b7160e01b82526021600452602482fd5b919060008091848352600a60205260018060a01b038060408520541695600c60205260ff604086205416936007851015978861246d57600386036123e55750508452600a60205280600260408620015416911614935b61235657600481119081156123dc575b506123d85750565b9150565b905015386123d0565b90975085939291939760018614600014612434575061240490836127ec565b928315612416575b505050935b6123c0565b8552600a60205260408520600201548116911614905038808061240c565b9750925050839560028414600014612457575090612451916127ec565b936123c0565b95505050816004820361241157600194506123c0565b634e487b7160e01b87526021600452602487fd5b1561248857565b60405162461bcd60e51b81526020600482015260096024820152684e6f2061636365737360b81b6044820152606490fd5b6020908160408183019282815285518094520193019160005b8281106124e0575050505090565b83516001600160a01b0316855293810193928101926001016124d2565b906020815191012060018060a01b03807f00000000000000000000000000000000000000000000000000000000000000001690813b15611ea25760009160a4839260405194859384926305ef2c7f60e41b84528960048501528860248501523060448501527f00000000000000000000000000000000000000000000000000000000000000001660648401528160848401525af180156125cf576125c0575b5060405190602082019283526040820152604081526125ba8161203f565b51902090565b6125c99061202c565b3861259c565b6040513d6000823e3d90fd5b6005546001600160a01b0392600292916125f890829086166126f9565b93612632600080604051602081019063189acdbd60e31b8252306024820152602481526126248161203f565b5190828a5af161196f61268b565b80604051956126408761203f565b1685526020850191338352604086019384526000526006602052806040600020955116906001600160601b0360a01b9182875416178655600186019251169082541617905551910155565b3d156126b6573d9061269c826121df565b916126aa6040519384612075565b82523d6000602084013e565b606090565b156126c257565b60405162461bcd60e51b815260206004820152600f60248201526e6572726f72206465706c6f79696e6760881b6044820152606490fd5b6e5af43d82803e903d91602b57fd5bf390763d602d80600a3d3981f3363d3d373d3d3d363d7300000062ffffff8260881c161760005260781b17602052603760096000f5906001600160a01b0382161561274f57565b60405162461bcd60e51b815260206004820152601760248201527f455243313136373a2063726561746532206661696c65640000000000000000006044820152606490fd5b604390605592604051913060388401526f5af43d82803e903d91602b57fd5bf3ff60248401526014830152733d602d80600a3d3981f3363d3d373d3d3d363d73825260588201526037600c8201206078820152012090565b6000916001600160a01b0390811691908261280a5750505050600090565b602460209260405194859384926370a0823160e01b84521660048301525afa91821561287257809261283e575b5050151590565b9091506020823d821161286a575b8161285960209383612075565b810103126102015750513880612837565b3d915061284c565b604051903d90823e3d90fd5b600090815260066020908152604080832054905163074288bd60e11b81526001600160a01b039485166004820152929383916024918391165afa9182156128725780926128ca57505090565b9091506020823d82116128f2575b816128e560209383612075565b8101031261020157505190565b3d91506128d8565b60009081526006602090815260408083205490516370a0823160e01b81526001600160a01b039485166004820152929383916024918391165afa91821561287257809261283e575050151590565b1561294f57565b60405162461bcd60e51b815260206004820152602560248201527f51554144423a204e6f2070726963652073657420666f72207468697320696e7360448201526474616e636560d81b6064820152608490fd5b814710612a38576000918291829182916001600160a01b03165af16129c561268b565b50156129cd57565b60405162461bcd60e51b815260206004820152603a60248201527f416464726573733a20756e61626c6520746f2073656e642076616c75652c207260448201527f6563697069656e74206d617920686176652072657665727465640000000000006064820152608490fd5b60405162461bcd60e51b815260206004820152601d60248201527f416464726573733a20696e73756666696369656e742062616c616e63650000006044820152606490fd5b602290612aeb9294936040519582612a9f889451809260208088019101612096565b830190600b60fa1b91826020820152612ac2825180936020602185019101612096565b01906021820152612adc8251809360208785019101612096565b01036002810185520183612075565b565b90610934612b54926103cf612aeb95612b04611ff8565b9690549560405192612b158461205a565b600984526864625f73706163657360b81b60208501526108ec612b4e6103cf612b48612b3f611ff8565b9990549a61324a565b9461324a565b91612e29565b9260405192612b628461203f565b602984527f4442537061636549442c20444253756253706163654f6649442c20444253756260208501526853706163654e616d6560b81b604085015260031b1c905b92612bb56036926121849495612c44565b906040519485926b024a729a2a92a1024a72a27960a51b6020850152612be5815180926020602c88019101612096565b8301600560fb1b602c820152612c05825180936020602d85019101612096565b0167052ac8298aa8aa6560c31b602d820152612c2b825180936020603585019101612096565b01602960f81b6035820152036016810184520182612075565b602261218491612c5c612c5646612cc1565b94612cc1565b6040519482612c75879451809260208088019101612096565b830190605f60f81b91826020820152612c98825180936020602185019101612096565b01906021820152612cb28251809360208785019101612096565b01036002810184520182612075565b806000917a184f03e93ff9f4daa797ed6e38ed64bf6a1f01000000000000000080821015612e1b575b506d04ee2d6d415b85acef810000000080831015612e0c575b50662386f26fc1000080831015612dfd575b506305f5e10080831015612dee575b5061271080831015612ddf575b506064821015612dcf575b600a80921015612dc5575b60019081602181860195612d5a876121df565b96612d686040519889612075565b808852612d77601f19916121df565b01366020890137860101905b612d8f575b5050505090565b600019019083906f181899199a1a9b1b9c1cb0b131b232b360811b8282061a835304918215612dc057919082612d83565b612d88565b9160010191612d47565b9190606460029104910191612d3c565b60049193920491019138612d31565b60089193920491019138612d24565b60109193920491019138612d15565b60209193920491019138612d03565b604093508104915038612cea565b61218460226040518093602760f81b90816020840152612e53815180926020602187019101612096565b8201906021820152036002810184520182612075565b60405190612e768261205a565b601382527264625f7370616365735f696e7374616e63657360681b6020830152565b604051906001600160a01b0316612eae8261203f565b602a8252602082016040368237825115611f3d57603090538151600190811015611f3d57607860218401536029905b808211612f31575050612eed5790565b606460405162461bcd60e51b815260206004820152602060248201527f537472696e67733a20686578206c656e67746820696e73756666696369656e746044820152fd5b9091600f81166010811015612f8a576f181899199a1a9b1b9c1cb0b131b232b360811b901a612f608486612f9f565b5360041c918015612f75576000190190612edd565b60246000634e487b7160e01b81526011600452fd5b60246000634e487b7160e01b81526032600452fd5b908151811015611f3d570160200190565b60405190612fbd8261205a565b600f82526e696e7374616e6365735f636f64657360881b6020830152565b90612fe891939293612c44565b9060405191602091828401928484106001600160401b03851117610dea5761218494602c946040526000815291805161308a575b5061307b6040519687946602aa82220aa22960cd1b84870152613048815180928660278a019101612096565b85016401029a2aa160dd1b602782015261306a82518093868a85019101612096565b019183519384918785019101612096565b0103600c810184520182612075565b9091506130c860276040518093660102ba422a922960cd1b868301526130b881518092888686019101612096565b8101036007810184520182612075565b903861301c565b604051906130dc8261205a565b600d82526c737562736372697074696f6e7360981b6020830152565b60001981146131075760010190565b634e487b7160e01b600052601160045260246000fd5b6040519061312a8261205a565b60078252666d656d6265727360c81b6020830152565b8051821015611f3d5760209160051b010190565b6131609092919261324a565b9160005b81518110156132445761323f906104aa61317c611fc1565b905461318661311d565b91613237613192611fc1565b90546003956131a08d612e29565b916131b96103cf8d6103c88d60018060a01b0392613140565b937124b739ba30b731b2a4a2161036b2b6b132b960711b604061321c8151978888516131ed8160209b8c8086019101612096565b8101600b60fa1b8a82015282519061320d826021958d8785019101612096565b0103600181018a520188612075565b51946132278661205a565b60128652850152881b1c90612ba4565b921b1c61336e565b613164565b50509050565b604051906132578261203f565b60408252602091828101916040368437604051906132748261205a565b601082526f181899199a1a9b1b9c1cb0b131b232b360811b8583015260005b8581106132d35750505061060f60f31b92612184926132c360229360405196879485015251809285850190612096565b8101036002810184520182612075565b81811a9083518015613358576001600160f81b03199081906132f790850487612f9f565b51169060019383851b92848404600214851517156131075760001a61331c848a612f9f565b538651801561335857613330910687612f9f565b51169281018091116131075761334d6133539360001a9187612f9f565b536130f8565b613293565b634e487b7160e01b600052601260045260246000fd5b7f00000000000000000000000000000000000000000000000000000000000000006001600160a01b031691823b15611ea2576133d79260009283604051809681958294631bbd786d60e11b845230600485015260248401526060604484015260648301906120b9565b03925af180156125cf576133e85750565b612aeb9061202c56fea2646970667358221220764d633fbfb7efabe428a91baaa15bcd52c6c43a5c13ee2e1152944244b2913564736f6c63430008140033",
  "devdoc": {
    "details": "Create a decentralized Database NameSpaces Where space and subSpaces can get created and anyone can create instances inside a space and contribute to the public this is possible by integrating tableland SQL in solidity FNS system to support a decentralized Namespace of Database spaces IPNS and Push protocol for code and space discussions",
    "kind": "dev",
    "methods": {
      "createDBSpace(string)": {
        "details": "Create a new space under the given node",
        "params": {
          "_name": "The name of the new space"
        }
      },
      "createDBSubSpace(bytes32,string)": {
        "details": "Create a new subnode under the given node",
        "params": {
          "_DBSpace": "The parent node",
          "_name": "The name of the new subnode"
        }
      },
      "createInstanceCode(bytes32,string,string,string,string,string)": {
        "details": "Create a new instance under the given node",
        "params": {
          "_about": "The about of the new instance",
          "_chatID": "The chatID of the new instance",
          "_codeIPNS": "The IPNS of the new instance",
          "_instance": "The parent node",
          "_name": "The name of the new instance"
        }
      },
      "createSpaceInstance(bytes32,uint256,address[],string,string,string,string)": {
        "details": "Create a new instance under the given node",
        "params": {
          "_IPNS": "The IPNS of the new instance",
          "_chatID": "The chatID of the new instance",
          "_members": "The hatID of the new instance",
          "_metadataCID": "The name of the new instance",
          "_node": "The parent node"
        }
      },
      "hasViewAccess(bytes32,address)": {
        "details": "Check if the sender has access to the given instance",
        "params": {
          "_instance": "The instance to check",
          "_sender": "The sender to check"
        },
        "returns": {
          "_0": "bool"
        }
      },
      "owner()": {
        "details": "Returns the address of the current owner."
      },
      "renounceOwnership()": {
        "details": "Leaves the contract without owner. It will not be possible to call `onlyOwner` functions. Can only be called by the current owner. NOTE: Renouncing ownership will leave the contract without an owner, thereby disabling any functionality that is only available to the owner."
      },
      "transferOwnership(address)": {
        "details": "Transfers ownership of the contract to a new account (`newOwner`). Can only be called by the current owner."
      }
    },
    "title": "QUADB",
    "version": 1
  },
  "userdoc": {
    "errors": {
      "ChainNotSupported(uint256)": [
        {
          "notice": "Current chain does not have a TablelandTables deployment."
        }
      ]
    },
    "kind": "user",
    "methods": {},
    "version": 1
  },
  "storageLayout": {
    "storage": [
      {
        "astId": 7,
        "contract": "contracts/QUADB.sol:QUADB",
        "label": "_owner",
        "offset": 0,
        "slot": "0",
        "type": "t_address"
      },
      {
        "astId": 3561,
        "contract": "contracts/QUADB.sol:QUADB",
        "label": "QUADB_NODE",
        "offset": 0,
        "slot": "1",
        "type": "t_bytes32"
      },
      {
        "astId": 3563,
        "contract": "contracts/QUADB.sol:QUADB",
        "label": "BASE_NODE",
        "offset": 0,
        "slot": "2",
        "type": "t_bytes32"
      },
      {
        "astId": 3565,
        "contract": "contracts/QUADB.sol:QUADB",
        "label": "DOMAIN_ID",
        "offset": 0,
        "slot": "3",
        "type": "t_uint256"
      },
      {
        "astId": 3819,
        "contract": "contracts/QUADB.sol:QUADB",
        "label": "gatedImplementation",
        "offset": 0,
        "slot": "4",
        "type": "t_address"
      },
      {
        "astId": 3821,
        "contract": "contracts/QUADB.sol:QUADB",
        "label": "subscriptionImplementation",
        "offset": 0,
        "slot": "5",
        "type": "t_address"
      },
      {
        "astId": 3837,
        "contract": "contracts/QUADB.sol:QUADB",
        "label": "instanceSubscription",
        "offset": 0,
        "slot": "6",
        "type": "t_mapping(t_bytes32,t_struct(SubscriptionStruct)3832_storage)"
      },
      {
        "astId": 4168,
        "contract": "contracts/QUADB.sol:QUADB",
        "label": "createTableStatements",
        "offset": 0,
        "slot": "7",
        "type": "t_array(t_string_storage)dyn_storage"
      },
      {
        "astId": 4171,
        "contract": "contracts/QUADB.sol:QUADB",
        "label": "tables",
        "offset": 0,
        "slot": "8",
        "type": "t_array(t_string_storage)dyn_storage"
      },
      {
        "astId": 4174,
        "contract": "contracts/QUADB.sol:QUADB",
        "label": "tableIDs",
        "offset": 0,
        "slot": "9",
        "type": "t_array(t_uint256)dyn_storage"
      },
      {
        "astId": 3140,
        "contract": "contracts/QUADB.sol:QUADB",
        "label": "instances",
        "offset": 0,
        "slot": "10",
        "type": "t_mapping(t_bytes32,t_struct(SpaceInstance)3135_storage)"
      },
      {
        "astId": 3144,
        "contract": "contracts/QUADB.sol:QUADB",
        "label": "codeOwner",
        "offset": 0,
        "slot": "11",
        "type": "t_mapping(t_bytes32,t_address)"
      },
      {
        "astId": 3149,
        "contract": "contracts/QUADB.sol:QUADB",
        "label": "isType",
        "offset": 0,
        "slot": "12",
        "type": "t_mapping(t_bytes32,t_enum(Types)3128)"
      }
    ],
    "types": {
      "t_address": {
        "encoding": "inplace",
        "label": "address",
        "numberOfBytes": "20"
      },
      "t_array(t_string_storage)dyn_storage": {
        "base": "t_string_storage",
        "encoding": "dynamic_array",
        "label": "string[]",
        "numberOfBytes": "32"
      },
      "t_array(t_uint256)dyn_storage": {
        "base": "t_uint256",
        "encoding": "dynamic_array",
        "label": "uint256[]",
        "numberOfBytes": "32"
      },
      "t_bytes32": {
        "encoding": "inplace",
        "label": "bytes32",
        "numberOfBytes": "32"
      },
      "t_contract(IGated)3817": {
        "encoding": "inplace",
        "label": "contract IGated",
        "numberOfBytes": "20"
      },
      "t_enum(Types)3128": {
        "encoding": "inplace",
        "label": "enum Core.Types",
        "numberOfBytes": "1"
      },
      "t_mapping(t_bytes32,t_address)": {
        "encoding": "mapping",
        "key": "t_bytes32",
        "label": "mapping(bytes32 => address)",
        "numberOfBytes": "32",
        "value": "t_address"
      },
      "t_mapping(t_bytes32,t_enum(Types)3128)": {
        "encoding": "mapping",
        "key": "t_bytes32",
        "label": "mapping(bytes32 => enum Core.Types)",
        "numberOfBytes": "32",
        "value": "t_enum(Types)3128"
      },
      "t_mapping(t_bytes32,t_struct(SpaceInstance)3135_storage)": {
        "encoding": "mapping",
        "key": "t_bytes32",
        "label": "mapping(bytes32 => struct Core.SpaceInstance)",
        "numberOfBytes": "32",
        "value": "t_struct(SpaceInstance)3135_storage"
      },
      "t_mapping(t_bytes32,t_struct(SubscriptionStruct)3832_storage)": {
        "encoding": "mapping",
        "key": "t_bytes32",
        "label": "mapping(bytes32 => struct Gated.SubscriptionStruct)",
        "numberOfBytes": "32",
        "value": "t_struct(SubscriptionStruct)3832_storage"
      },
      "t_string_storage": {
        "encoding": "bytes",
        "label": "string",
        "numberOfBytes": "32"
      },
      "t_struct(SpaceInstance)3135_storage": {
        "encoding": "inplace",
        "label": "struct Core.SpaceInstance",
        "members": [
          {
            "astId": 3130,
            "contract": "contracts/QUADB.sol:QUADB",
            "label": "gatedContract",
            "offset": 0,
            "slot": "0",
            "type": "t_address"
          },
          {
            "astId": 3132,
            "contract": "contracts/QUADB.sol:QUADB",
            "label": "price",
            "offset": 0,
            "slot": "1",
            "type": "t_uint256"
          },
          {
            "astId": 3134,
            "contract": "contracts/QUADB.sol:QUADB",
            "label": "creator",
            "offset": 0,
            "slot": "2",
            "type": "t_address"
          }
        ],
        "numberOfBytes": "96"
      },
      "t_struct(SubscriptionStruct)3832_storage": {
        "encoding": "inplace",
        "label": "struct Gated.SubscriptionStruct",
        "members": [
          {
            "astId": 3827,
            "contract": "contracts/QUADB.sol:QUADB",
            "label": "subscriptionContract",
            "offset": 0,
            "slot": "0",
            "type": "t_contract(IGated)3817"
          },
          {
            "astId": 3829,
            "contract": "contracts/QUADB.sol:QUADB",
            "label": "creator",
            "offset": 0,
            "slot": "1",
            "type": "t_address"
          },
          {
            "astId": 3831,
            "contract": "contracts/QUADB.sol:QUADB",
            "label": "prize",
            "offset": 0,
            "slot": "2",
            "type": "t_uint256"
          }
        ],
        "numberOfBytes": "96"
      },
      "t_uint256": {
        "encoding": "inplace",
        "label": "uint256",
        "numberOfBytes": "32"
      }
    }
  }
}