{
  "address": "0xbdd1A7Cf870b899E0375e1807fa5be0f858C7Ea0",
  "abi": [
    {
      "inputs": [
        {
          "internalType": "address",
          "name": "_nameWrapper",
          "type": "address"
        },
        {
          "internalType": "address",
          "name": "_publicResolver",
          "type": "address"
        },
        {
          "internalType": "address",
          "name": "_gateImplementation",
          "type": "address"
        },
        {
          "internalType": "address",
          "name": "_subscriptionImplementation",
          "type": "address"
        }
      ],
      "stateMutability": "nonpayable",
      "type": "constructor"
    },
    {
      "inputs": [
        {
          "internalType": "uint256",
          "name": "chainid",
          "type": "uint256"
        }
      ],
      "name": "ChainNotSupported",
      "type": "error"
    },
    {
      "inputs": [],
      "name": "InstanceAlreadyExists",
      "type": "error"
    },
    {
      "inputs": [],
      "name": "InvalidTokenAmount",
      "type": "error"
    },
    {
      "inputs": [],
      "name": "InvalidTokenSender",
      "type": "error"
    },
    {
      "inputs": [],
      "name": "NoCodeOwner",
      "type": "error"
    },
    {
      "inputs": [],
      "name": "NoInstanceAccess",
      "type": "error"
    },
    {
      "inputs": [],
      "name": "BASE_NODE",
      "outputs": [
        {
          "internalType": "bytes32",
          "name": "",
          "type": "bytes32"
        }
      ],
      "stateMutability": "view",
      "type": "function"
    },
    {
      "inputs": [],
      "name": "BASE_NODE_ID",
      "outputs": [
        {
          "internalType": "uint256",
          "name": "",
          "type": "uint256"
        }
      ],
      "stateMutability": "view",
      "type": "function"
    },
    {
      "inputs": [],
      "name": "DOMAIN_ID",
      "outputs": [
        {
          "internalType": "uint256",
          "name": "",
          "type": "uint256"
        }
      ],
      "stateMutability": "view",
      "type": "function"
    },
    {
      "inputs": [],
      "name": "NAME_WRAPPER",
      "outputs": [
        {
          "internalType": "contract INameWrapper",
          "name": "",
          "type": "address"
        }
      ],
      "stateMutability": "view",
      "type": "function"
    },
    {
      "inputs": [],
      "name": "PUBLIC_RESOLVER",
      "outputs": [
        {
          "internalType": "contract IENSResolver",
          "name": "",
          "type": "address"
        }
      ],
      "stateMutability": "view",
      "type": "function"
    },
    {
      "inputs": [],
      "name": "TABLELAND",
      "outputs": [
        {
          "internalType": "contract ITablelandTables",
          "name": "",
          "type": "address"
        }
      ],
      "stateMutability": "view",
      "type": "function"
    },
    {
      "inputs": [
        {
          "internalType": "bytes32",
          "name": "",
          "type": "bytes32"
        }
      ],
      "name": "codeOwner",
      "outputs": [
        {
          "internalType": "address",
          "name": "",
          "type": "address"
        }
      ],
      "stateMutability": "view",
      "type": "function"
    },
    {
      "inputs": [
        {
          "internalType": "string",
          "name": "_name",
          "type": "string"
        }
      ],
      "name": "createDBSpace",
      "outputs": [],
      "stateMutability": "nonpayable",
      "type": "function"
    },
    {
      "inputs": [
        {
          "internalType": "bytes32",
          "name": "_DBSpace",
          "type": "bytes32"
        },
        {
          "internalType": "string",
          "name": "_name",
          "type": "string"
        }
      ],
      "name": "createDBSubSpace",
      "outputs": [],
      "stateMutability": "nonpayable",
      "type": "function"
    },
    {
      "inputs": [
        {
          "internalType": "bytes32",
          "name": "_instance",
          "type": "bytes32"
        },
        {
          "internalType": "string",
          "name": "_name",
          "type": "string"
        },
        {
          "internalType": "string",
          "name": "_about",
          "type": "string"
        },
        {
          "internalType": "string",
          "name": "_chatID",
          "type": "string"
        },
        {
          "internalType": "string",
          "name": "_codeIPNS",
          "type": "string"
        },
        {
          "internalType": "string",
          "name": "_IPNSEncryptedKey",
          "type": "string"
        }
      ],
      "name": "createInstanceCode",
      "outputs": [],
      "stateMutability": "nonpayable",
      "type": "function"
    },
    {
      "inputs": [
        {
          "internalType": "bytes32",
          "name": "_node",
          "type": "bytes32"
        },
        {
          "internalType": "uint256",
          "name": "_price",
          "type": "uint256"
        },
        {
          "internalType": "address[]",
          "name": "_members",
          "type": "address[]"
        },
        {
          "internalType": "string",
          "name": "_metadataCID",
          "type": "string"
        },
        {
          "internalType": "string",
          "name": "_chatID",
          "type": "string"
        },
        {
          "internalType": "string",
          "name": "_IPNS",
          "type": "string"
        },
        {
          "internalType": "string",
          "name": "_IPNSEncryptedKey",
          "type": "string"
        }
      ],
      "name": "createSpaceInstance",
      "outputs": [],
      "stateMutability": "nonpayable",
      "type": "function"
    },
    {
      "inputs": [
        {
          "internalType": "bytes32",
          "name": "_instanceID",
          "type": "bytes32"
        }
      ],
      "name": "extendInstanceSubscription",
      "outputs": [],
      "stateMutability": "payable",
      "type": "function"
    },
    {
      "inputs": [
        {
          "internalType": "address",
          "name": "_sender",
          "type": "address"
        },
        {
          "internalType": "address",
          "name": "_gatedContract",
          "type": "address"
        }
      ],
      "name": "getAccess",
      "outputs": [
        {
          "internalType": "bool",
          "name": "",
          "type": "bool"
        }
      ],
      "stateMutability": "view",
      "type": "function"
    },
    {
      "inputs": [
        {
          "internalType": "bytes32",
          "name": "_salt",
          "type": "bytes32"
        }
      ],
      "name": "getDeterministicAddress",
      "outputs": [
        {
          "internalType": "address",
          "name": "",
          "type": "address"
        }
      ],
      "stateMutability": "view",
      "type": "function"
    },
    {
      "inputs": [
        {
          "internalType": "bytes32",
          "name": "_instanceID",
          "type": "bytes32"
        },
        {
          "internalType": "address",
          "name": "_owner",
          "type": "address"
        }
      ],
      "name": "getRemainingSubscriptionTime",
      "outputs": [
        {
          "internalType": "uint256",
          "name": "",
          "type": "uint256"
        }
      ],
      "stateMutability": "view",
      "type": "function"
    },
    {
      "inputs": [
        {
          "internalType": "bytes32",
          "name": "_salt",
          "type": "bytes32"
        }
      ],
      "name": "getSuscriptionDeterministicAddress",
      "outputs": [
        {
          "internalType": "address",
          "name": "",
          "type": "address"
        }
      ],
      "stateMutability": "view",
      "type": "function"
    },
    {
      "inputs": [],
      "name": "getTime",
      "outputs": [
        {
          "internalType": "uint256",
          "name": "",
          "type": "uint256"
        }
      ],
      "stateMutability": "view",
      "type": "function"
    },
    {
      "inputs": [
        {
          "internalType": "bytes32",
          "name": "_instanceID",
          "type": "bytes32"
        },
        {
          "internalType": "address",
          "name": "_subscriber",
          "type": "address"
        }
      ],
      "name": "hasActiveSubscription",
      "outputs": [
        {
          "internalType": "bool",
          "name": "",
          "type": "bool"
        }
      ],
      "stateMutability": "view",
      "type": "function"
    },
    {
      "inputs": [
        {
          "internalType": "bytes32",
          "name": "_instance",
          "type": "bytes32"
        },
        {
          "internalType": "address",
          "name": "_sender",
          "type": "address"
        }
      ],
      "name": "hasMutateAccess",
      "outputs": [
        {
          "internalType": "bool",
          "name": "access",
          "type": "bool"
        }
      ],
      "stateMutability": "view",
      "type": "function"
    },
    {
      "inputs": [
        {
          "internalType": "bytes32",
          "name": "_instance",
          "type": "bytes32"
        },
        {
          "internalType": "address",
          "name": "_sender",
          "type": "address"
        }
      ],
      "name": "hasViewAccess",
      "outputs": [
        {
          "internalType": "bool",
          "name": "",
          "type": "bool"
        }
      ],
      "stateMutability": "view",
      "type": "function"
    },
    {
      "inputs": [
        {
          "internalType": "bytes32",
          "name": "_instance",
          "type": "bytes32"
        },
        {
          "internalType": "address[]",
          "name": "_members",
          "type": "address[]"
        }
      ],
      "name": "insertNewMembers",
      "outputs": [],
      "stateMutability": "nonpayable",
      "type": "function"
    },
    {
      "inputs": [
        {
          "internalType": "bytes32",
          "name": "",
          "type": "bytes32"
        }
      ],
      "name": "instanceSubscription",
      "outputs": [
        {
          "internalType": "contract IGated",
          "name": "subscriptionContract",
          "type": "address"
        },
        {
          "internalType": "address",
          "name": "creator",
          "type": "address"
        },
        {
          "internalType": "uint256",
          "name": "prize",
          "type": "uint256"
        }
      ],
      "stateMutability": "view",
      "type": "function"
    },
    {
      "inputs": [
        {
          "internalType": "bytes32",
          "name": "",
          "type": "bytes32"
        }
      ],
      "name": "instances",
      "outputs": [
        {
          "internalType": "address",
          "name": "gatedContract",
          "type": "address"
        },
        {
          "internalType": "uint256",
          "name": "price",
          "type": "uint256"
        },
        {
          "internalType": "address",
          "name": "creator",
          "type": "address"
        }
      ],
      "stateMutability": "view",
      "type": "function"
    },
    {
      "inputs": [
        {
          "internalType": "bytes32",
          "name": "",
          "type": "bytes32"
        }
      ],
      "name": "isType",
      "outputs": [
        {
          "internalType": "enum Core.Types",
          "name": "",
          "type": "uint8"
        }
      ],
      "stateMutability": "view",
      "type": "function"
    },
    {
      "inputs": [
        {
          "internalType": "address",
          "name": "",
          "type": "address"
        },
        {
          "internalType": "address",
          "name": "",
          "type": "address"
        },
        {
          "internalType": "uint256[]",
          "name": "",
          "type": "uint256[]"
        },
        {
          "internalType": "uint256[]",
          "name": "",
          "type": "uint256[]"
        },
        {
          "internalType": "bytes",
          "name": "",
          "type": "bytes"
        }
      ],
      "name": "onERC1155BatchReceived",
      "outputs": [
        {
          "internalType": "bytes4",
          "name": "",
          "type": "bytes4"
        }
      ],
      "stateMutability": "pure",
      "type": "function"
    },
    {
      "inputs": [
        {
          "internalType": "address",
          "name": "",
          "type": "address"
        },
        {
          "internalType": "address",
          "name": "",
          "type": "address"
        },
        {
          "internalType": "uint256",
          "name": "tokenId",
          "type": "uint256"
        },
        {
          "internalType": "uint256",
          "name": "value",
          "type": "uint256"
        },
        {
          "internalType": "bytes",
          "name": "",
          "type": "bytes"
        }
      ],
      "name": "onERC1155Received",
      "outputs": [
        {
          "internalType": "bytes4",
          "name": "",
          "type": "bytes4"
        }
      ],
      "stateMutability": "nonpayable",
      "type": "function"
    },
    {
      "inputs": [
        {
          "internalType": "bytes32",
          "name": "_instanceID",
          "type": "bytes32"
        }
      ],
      "name": "purchaseInstanceSubscription",
      "outputs": [],
      "stateMutability": "payable",
      "type": "function"
    },
    {
      "inputs": [
        {
          "internalType": "bytes32",
          "name": "_instance",
          "type": "bytes32"
        },
        {
          "internalType": "address[]",
          "name": "_members",
          "type": "address[]"
        }
      ],
      "name": "removeMembers",
      "outputs": [],
      "stateMutability": "nonpayable",
      "type": "function"
    },
    {
      "inputs": [
        {
          "internalType": "uint256",
          "name": "",
          "type": "uint256"
        }
      ],
      "name": "tableIDs",
      "outputs": [
        {
          "internalType": "uint256",
          "name": "",
          "type": "uint256"
        }
      ],
      "stateMutability": "view",
      "type": "function"
    },
    {
      "inputs": [
        {
          "internalType": "uint256",
          "name": "",
          "type": "uint256"
        }
      ],
      "name": "tables",
      "outputs": [
        {
          "internalType": "string",
          "name": "",
          "type": "string"
        }
      ],
      "stateMutability": "view",
      "type": "function"
    },
    {
      "inputs": [
        {
          "internalType": "bytes32",
          "name": "_codeID",
          "type": "bytes32"
        },
        {
          "internalType": "string",
          "name": "_name",
          "type": "string"
        },
        {
          "internalType": "string",
          "name": "_about",
          "type": "string"
        }
      ],
      "name": "updateCode",
      "outputs": [],
      "stateMutability": "nonpayable",
      "type": "function"
    },
    {
      "inputs": [
        {
          "internalType": "bytes32",
          "name": "_instanceID",
          "type": "bytes32"
        },
        {
          "internalType": "string",
          "name": "_metadataCID",
          "type": "string"
        }
      ],
      "name": "updateInstance",
      "outputs": [],
      "stateMutability": "nonpayable",
      "type": "function"
    },
    {
      "stateMutability": "payable",
      "type": "receive"
    }
  ],
  "transactionHash": "0x60fddff7804ca2aab0dbd58c9ff15f33e2cad1112f5ce8b5efdeb4ca477d77fe",
  "args": [
    "0x0635513f179D50A207757E05759CbD106d7dFcE8",
    "0x8FADE66B79cC9f707aB26799354482EB93a5B7dD",
    "0xA60f0E85C00CBBa4943aFeDc3059E64346f7B334",
    "0x7FEa0DfAD64F3975d1c868eAD701DCC35deA0696"
  ],
  "numDeployments": 2,
  "solcInputHash": "a96f11530648b4923783f3215f6c9591",
  "bytecode": "0x60e060409080825234620007405760808162004151803803809162000025828562000793565b83398101031262000740576200003b81620007b7565b60206200004a818401620007b7565b926200006660606200005e878401620007b7565b9201620007b7565b9260018060a01b03948580921660a052166080528360018060a01b0319911681600354161760035583600493169083541617825582620000a562000e65565b1660c052620001236200011d8551620000be8162000745565b603881527f44425370616365494420746578742c20444253756253706163654f6649442074848201527f6578742c20444253756253706163654e616d65207465787400000000000000008782015262000116620007e8565b9062000de8565b62000865565b83516001600160401b03939060e08101858111828210176200072b5762000225916200011d91885260a781527f496e7374616e6365494420746578742c20696e7374616e63654f665370616365858201527f20746578742c20696e7374616e63655479706520746578742c206d6574616461888201527f746143494420746578742c2063686174494420746578742c2049504e5320746560608201527f78742c2049504e53456e637279707465644b657920746578742c20676174656460808201527f436f6e747261637420746578742c20707269636520746578742c20637265617460a0820152661bdc881d195e1d60ca1b60c08201526200011662000b17565b845160a08101818110868211176200072b57620002da916200011d918852607081527f496e7374616e6365494420746578742c20636f6465494420746578742c206e61858201527f6d6520746578742c2061626f757420746578742c206368617449442074657874888201527f2c2049504e5320746578742c2049504e53456e637279707465644b657920746560608201526f1e1d0b0818dc99585d1bdc881d195e1d60821b60808201526200011662000b52565b620003376200011d8651620002ef8162000745565b602d81527f496e7374616e6365494420746578742c20737562736372696265722074657874858201526c0b08195b991cd05d081d195e1d609a1b888201526200011662000b7f565b6200037f6200011d86516200034c8162000777565b601c81527f496e7374616e6365494420746578742c206d656d626572207465787400000000858201526200011662000baa565b60c051169284516361a23d0f60e01b8152604481019130858301526024958787840152600654809452606483019383600592606483851b8301016000978894600686528a86209186905b8282106200068057505050508383809203925af192831562000676578493620005c4575b50508151908111620005b257680100000000000000008111620005b25783600892835483855580841062000595575b5001828452848420845b8381106200058257505050506200043c620007e8565b81541562000570576200045b6200046191838552858520549062000bfc565b620009ed565b6200046b62000b17565b81546001101562000570576200045b6200049091838552600186862001549062000bfc565b6200049a62000b52565b81546002101562000570576200045b620004bf91838552600286862001549062000bfc565b620004c962000b7f565b81546003101562000570576200045b620004ee91838552600386862001549062000bfc565b620004f862000baa565b9481548510156200055f575081522001546200051a916200045b919062000bfc565b5161313a908162001017823960805181818161019b0152612269015260a051818181610218015281816119e601526122a9015260c05181818161050801526130770152f35b634e487b7160e01b83526032855282fd5b634e487b7160e01b8352603285528583fd5b8251828201559186019160010162000426565b848652828620620005ab9181019085016200084c565b386200041c565b634e487b7160e01b8352604185528583fd5b909192503d8085833e620005d9818362000793565b810190858183031262000672578051908482116200065c570181601f820112156200067257805192848411620006605783901b908951936200061e8884018662000793565b845286808501928201019283116200065c5786809101915b8383106200064b5750505050903880620003ed565b825181529181019187910162000636565b8580fd5b634e487b7160e01b8652604188528886fd5b8480fd5b88513d86823e3d90fd5b92955092909395506063198982030182528a8a865490620006a1826200080f565b8085526001928084169081156200070e5750600114620006d4575b506001935096019201920192899593899593620003c9565b888e52838e208e9592505b818610620006f75750506001938391010138620006bc565b805483870186015293909401938e938301620006df565b60ff191686860152506001949015158b1b018301905038620006bc565b604185634e487b7160e01b6000525260246000fd5b600080fd5b606081019081106001600160401b038211176200076157604052565b634e487b7160e01b600052604160045260246000fd5b604081019081106001600160401b038211176200076157604052565b601f909101601f19168101906001600160401b038211908210176200076157604052565b51906001600160a01b03821682036200074057565b6001600160401b0381116200076157601f01601f191660200190565b60405190620007f78262000777565b600982526864625f73706163657360b81b6020830152565b90600182811c9216801562000841575b60208310146200082b57565b634e487b7160e01b600052602260045260246000fd5b91607f16916200081f565b81811062000858575050565b600081556001016200084c565b60065468010000000000000000811015620007615760019182820180600655821015620009d7576006600090815281517ff652222313e28459528d920b65115c16c04f3efc82aaedc97be59f3f377c0d3f90930193602093929091906001600160401b038411620009c357620008dc86546200080f565b601f811162000985575b508491601f85116001146200092257939450849291908362000916575b50501b916000199060031b1c1916179055565b01519250388062000903565b86815285812093958591601f198316915b888383106200096a575050501062000950575b505050811b019055565b015160001960f88460031b161c1916905538808062000946565b85870151885590960195948501948793509081019062000933565b620009b190878452868420601f870160051c810191888810620009b8575b601f0160051c01906200084c565b38620008e6565b9091508190620009a3565b634e487b7160e01b82526041600452602482fd5b634e487b7160e01b600052603260045260246000fd5b60075468010000000000000000811015620007615760019182820180600755821015620009d7576007600090815281517fa66cc928b5edb82af9bd49922954155ab7b0942694bea4ce44661d9a8736c68890930193602093929091906001600160401b038411620009c35762000a6486546200080f565b601f811162000ae5575b508491601f851160011462000a9d579394508492919083620009165750501b916000199060031b1c1916179055565b86815285812093958591601f198316915b8883831062000aca57505050106200095057505050811b019055565b85870151885590960195948501948793509081019062000aae565b62000b1090878452868420601f870160051c810191888810620009b857601f0160051c01906200084c565b3862000a6e565b6040519062000b268262000777565b601382527f64625f7370616365735f696e7374616e636573000000000000000000000000006020830152565b6040519062000b618262000777565b600f82526e696e7374616e6365735f636f64657360881b6020830152565b6040519062000b8e8262000777565b600d82526c737562736372697074696f6e7360981b6020830152565b6040519062000bb98262000777565b60078252666d656d6265727360c81b6020830152565b9081519160005b83811062000be8575050016000815290565b806020809284010151818501520162000bd6565b62000c659062000c5662000c3893600162000c2262000c1b4662000c68565b9262000c68565b9162000c4b604051978896602088019062000bcf565b9183605f60f81b93848152019062000bcf565b908152019062000bcf565b03601f19810183528262000793565b90565b806000917a184f03e93ff9f4daa797ed6e38ed64bf6a1f0100000000000000008082101562000dd9575b506d04ee2d6d415b85acef81000000008083101562000dc9575b50662386f26fc100008083101562000db9575b506305f5e1008083101562000da9575b506127108083101562000d99575b50606482101562000d88575b600a8092101562000d7d575b6001908160218186019562000d0a87620007cc565b9662000d1a604051988962000793565b80885262000d2b601f1991620007cc565b01366020890137860101905b62000d44575b5050505090565b600019019083906f181899199a1a9b1b9c1cb0b131b232b360811b8282061a83530491821562000d775791908262000d37565b62000d3d565b916001019162000cf5565b919060646002910491019162000ce9565b6004919392049101913862000cdd565b6008919392049101913862000ccf565b6010919392049101913862000cbf565b6020919392049101913862000cac565b60409350810491503862000c92565b600162000e309262000e4e62000c65938362000e3f62000e084662000c68565b82604051998a976c021a922a0aa22902a20a126229609d1b60208a0152602d89019062000bcf565b605f60f81b8152019062000bcf565b600560fb1b8152019062000bcf565b602960f81b815203601e1981018452018262000793565b4660010362000e865773012969f7e3439a9b04025b5a049eb9bad82a8c1290565b46600a0362000ea75773fad44bf5b843de943a09d4f3e84949a11d3aa3e690565b4661a4b10362000ec957739abd75e8640871a5a20d3b4ee6330a04c962affd90565b4661a4ba0362000eeb57731a22854c5b1642760a827f20137a67930ae108d290565b4660890362000f0c57735c4e6a9e5c1e1bf445a062006faf19ea6c49afea90565b4661013a0362000f2e577359ef8bf2d6c102b4c42aef9189e1a9f0abfd652d90565b4662aa36a70362000f515773c50c62498448acc8dbde43da77f8d5d2e2c7597d90565b466101a40362000f735773c72e8a7be04f2469f8c2db3f1bdf69a7d516abba90565b4662066eee0362000f965773223a74b8323914afdc3ff1e5005564dc17231d6e90565b46620138810362000fb957734b48841d4b32c4650e4abc117a03fe8b51f38f6890565b466204cb2f0362000fdc5773030bcf3d50cad04c2e57391b12740982a930862190565b46617a690362000ffe5773e7f1725e7734ce288f8367e1bb143e90bb3f051290565b60405163264e42cf60e01b8152466004820152602490fdfe608080604052600436101561001d575b50361561001b57600080fd5b005b600090813560e01c9081630c9ddf6d14611a485750806311ad2f3414611a15578063192cf07d146119d05780632711447f14611983578063284e82e8146117a95780633ac27522146111ad5780633e2038351461117e5780633ec29e721461102c57806347d121c514611005578063557ed1ba14610fea57806371671bf214610ebe5780637a9b777414610e4f578063820cc55714610e3157806383a8b3d014610a3457806384ec965314610a0757806388975383146109e05780638a8fd2501461098e5780638e7a64a1146109715780639ad66a23146107df578063a58dcc95146107b4578063a5df63d614610783578063b35b8e741461074f578063ba0d18aa14610702578063bc197c8114610685578063bd9e1e3f14610667578063bfc51b7e146105db578063ca16ac8014610537578063d68d087c146104f2578063e0cf1e4c146102eb578063e2b1e4ed1461029e578063f23a6e61146101cd5763ffeb4a300361000f57346101ca57806003193601126101ca576040517f00000000000000000000000000000000000000000000000000000000000000006001600160a01b03168152602090f35b80fd5b50346101ca5760a03660031901126101ca576101e7611c40565b506101f0611c2a565b50604435906084356001600160401b03811161029a57610214903690600401611bc8565b50507f00000000000000000000000000000000000000000000000000000000000000006001600160a01b03163303610288576001606435036102765780541561026a575b60405163f23a6e6160e01b8152602090f35b81600155553880610258565b604051632160733960e01b8152600490fd5b604051634a93b62160e11b8152600490fd5b5080fd5b50346101ca5760203660031901126101ca576004358152600b60205260ff6040822054166040519060078110156102d757602092508152f35b634e487b7160e01b83526021600452602483fd5b50346101ca576102fa36611ec7565b818392935260209060098252604083209360018060a01b0394610328866002818454169301541633146121ac565b8061048c575b5061033890612f51565b91835b8251811015610488576104839061047e660102ba422a922960cd1b88610421886104778961039c8a61036b611d44565b969054978b6103a86103a361037e612e24565b93610387611d44565b9890549461039660039d612b30565b9a612e47565b5116612b9f565b612b30565b946104186040519687878101996c024b739ba30b731b2a4a2101e9609d1b8b526d01020a7221036b2b6b132b9101e960951b81516103ee81602d948d8688019101611e19565b83019182015282519061040982603b958c8785019101611e19565b0103601b810189520187611df8565b881b1c9061294b565b916040519889936b02222a622aa2290232927a6960a51b8486015261045081518092602c968789019101611e19565b84019283015251906104688260339586840190611e19565b01036013810187520185611df8565b1b1c613075565b612dff565b61033b565b8480f35b803b156104ee5784604051809263362eb0ab60e11b82528183816104b389600483016121e4565b03925af180156104e3579085916104cb575b5061032e565b6104d490611daf565b6104df5783386104c5565b8380fd5b6040513d87823e3d90fd5b8480fd5b50346101ca57806003193601126101ca576040517f00000000000000000000000000000000000000000000000000000000000000006001600160a01b03168152602090f35b50346101ca5761054636611ec7565b8183526009602052826040812061056e60018060a01b036002818454169301541633146121ac565b80610582575b505061057f91612e5b565b80f35b803b1561029a57816040518092632f41d6e160e21b82528183816105a989600483016121e4565b03925af180156105d05715610574576105c190611daf565b6105cc578238610574565b8280fd5b6040513d84823e3d90fd5b50346101ca576105ea36611c56565b909291808352600b60205260ff60408420541660078110156106535761057f939461061a600561064d9314611f5c565b61062e610628368684611f25565b84612228565b808752600b60205260408720805460ff19166005179055933691611f25565b916127f4565b634e487b7160e01b84526021600452602484fd5b50346101ca57806003193601126101ca576020600154604051908152f35b50346101ca5760a03660031901126101ca5761069f611c40565b506106a8611c2a565b506001600160401b036044358181116105cc576106c9903690600401611bfa565b50506064358181116105cc576106e3903690600401611bfa565b505060843590811161029a576106fd903690600401611bc8565b505080fd5b50346101ca5760203660031901126101ca576040606091600435815260056020522060018060a01b0390600282825416926001830154169101549060405192835260208301526040820152f35b50346101ca5760203660031901126101ca57602060018060a01b0361077a60043582600454166124d7565b60405191168152f35b50346101ca5760403660031901126101ca5760206107aa6107a2611c2a565b600435612601565b6040519015158152f35b50346101ca5760203660031901126101ca57602060018060a01b0361077a60043582600354166124d7565b5060203660031901126101ca5760043580825260056020526108096002604084200154341461264f565b808252600560205260408220546001600160a01b039083908216803b1561029a578180916024604051809481936320d3b93560e11b83523360048401525af180156105d05761095d575b5082905260056020526001604084200154166063340234810460631434151715610949579060646108859204906126a9565b62278d004201908142116109355761057f9161092b6103a3926108a6611cd6565b949054936108e96108b5612dd6565b916108ca6108c1611cd6565b95905496612f51565b906108e36103a36108dd6103a333612b9f565b926129c8565b91612784565b92604051926108f784611ddd565b601e84527f496e7374616e636549442c20737562736372696265722c20656e647341740000602085015260031b1c906128ab565b9160031b1c613075565b634e487b7160e01b83526011600452602483fd5b634e487b7160e01b84526011600452602484fd5b61096690611daf565b6105cc578238610853565b50346101ca57806003193601126101ca5760209054604051908152f35b50346101ca5760203660031901126101ca5760043560085481101561029a5760209060086000527ff3f7a9fe364faab93b216da50a3214154f22a0a2b415b23a84c8169e8b636ee30154604051908152f35b50346101ca5760403660031901126101ca5760206107aa6109ff611c2a565b600435612095565b50346101ca5760403660031901126101ca5760206107aa610a26611c40565b610a2e611c2a565b9061252f565b50346101ca5760c03660031901126101ca576004356024356001600160401b0381116105cc57610a68903690600401611bc8565b6044929192356001600160401b0381116104ee57610a8a903690600401611bc8565b9190926064356001600160401b038111610e2d57610aac903690600401611bc8565b91906084356001600160401b038111610e2957610acd903690600401611bc8565b969060a4356001600160401b038111610e2557610aee903690600401611bc8565b939092610afb3387612095565b15610e13578b9a8b988b6040518060209c8d8201938c8552808a60408501378201906040820152038c81018252604001610b359082611df8565b519020809d528d600b8b52604090205460ff166007811015610dff57610ded578c8e52600a8a526040808f208054336001600160a01b0319909116179055600b8b528e20805460ff19166006179055610b9091369190611f25565b983690610b9c92611f25565b953690610ba892611f25565b973690610bb492611f25565b913690610bc092611f25565b96610bc9611c89565b97905496610bd5612cb7565b93610bde611c89565b9b905496610beb90612f51565b610bf490612b30565b94610bfe90612f51565b610c0790612b30565b92610c1190612b30565b97610c1b90612b30565b93610c2590612b30565b91610c2f90612b30565b90610c3990612b30565b91610c4333612b9f565b610c4c90612b30565b948a6040519a888c9951908184808d01920191610c6892611e19565b890196600b60fa1b978884820152815191828560218401920191610c8b92611e19565b01908760218301528051809360228401920191610ca792611e19565b01856022820152815191828d60238401920191610cc392611e19565b01846023820152815191828c60248401920191610cdf92611e19565b01836024820152815191828b60258401920191610cfb92611e19565b01826025820152815191828a60268401920191610d1792611e19565b01906026820152815191828860278401920191610d3392611e19565b0103600781018452602701610d489084611df8565b6040519160808301978389106001600160401b038a1117610dd7577f496e7374616e636549442c20636f646549442c206e616d652c2061626f75742c61092b9661057f9a604052604886528501527f206368617449442c2049504e532c2049504e53456e637279707465644b65792c6040850152671031b932b0ba37b960c11b606085015260031b1c906128ab565b634e487b7160e01b600052604160045260246000fd5b604051631144626f60e01b8152600490fd5b634e487b7160e01b8f52602160045260248ffd5b6040516346627df160e01b8152600490fd5b8a80fd5b8880fd5b8680fd5b50346101ca57806003193601126101ca576020600254604051908152f35b50346101ca5760203660031901126101ca576004356001600160401b03811161029a57610e8361057f913690600401611bc8565b61064d610e9c8554610e96368587611f25565b90612228565b92838652600b60205260408620600560ff198254161790558554923691611f25565b50346101ca5760208060031936011261029a576004356007548110156105cc5760076000527fa66cc928b5edb82af9bd49922954155ab7b0942694bea4ce44661d9a8736c6880190604051918381549460019086821c93828816978815610fe0575b8686108914610fcc57868899878a98999a529182600014610fa8575050600114610f6c575b505050610f5492500383611df8565b610f68604051928284938452830190611e3c565b0390f35b869350819291528282205b858310610f90575050610f549350820101388080610f45565b80548389018501528794508693909201918101610f77565b935094505050610f5494915060ff191682840152151560051b820101388080610f45565b634e487b7160e01b83526022600452602483fd5b94607f1694610f20565b50346101ca57806003193601126101ca576020604051428152f35b50346101ca5760403660031901126101ca5760206107aa611024611c2a565b600435611fa8565b50346101ca5761103b36611c56565b82845260096020908152604085206002015490939291906001600160a01b031633036111395761111f61107861057f95949361092b933691611f25565b92611081611d0d565b959054946110ad61112f602d611095612b70565b946110f56103a36110a4611d0d565b96905497612b30565b986110f0602e604051809c6d036b2ba30b230ba30a1a4a2101e960951b888301526110e0815180928a8686019101611e19565b810103600e81018d52018b611df8565b612f51565b60405198826c024b739ba30b731b2a4a2101e9609d1b8b9485015282519283918686019101611e19565b810103600d810188520186611df8565b60031b1c90612ce2565b60405162461bcd60e51b815260048101859052601960248201527f51554144423a204e6f20696e7374616e636520616363657373000000000000006044820152606490fd5b50346101ca5760403660031901126101ca5760206111a561119d611c2a565b6004356125b5565b604051908152f35b50346101ca5760e03660031901126101ca576044356001600160401b03811161029a576111de903690600401611bfa565b6064929192356001600160401b0381116105cc57611200903690600401611bc8565b9390916084356001600160401b0381116104ee57611222903690600401611bc8565b60a4939193356001600160401b038111610e2d57611244903690600401611bc8565b959060c4356001600160401b038111610e2957611265903690600401611bc8565b9690926004358a52600b60205260ff60408b205416600781101561166d57600561128f9114611f5c565b888a6112bf60408051809360208201956004358752808a8585013782019083820152036020810184520182611df8565b51902096878b52600b60205260ff60408c205416600781101561179557610ded578a96888c83611706575b505050506040516112fa81611dc2565b60018060a01b038716815260243560208201526040810190338252888c526009602052600260408d20602060018060a01b03845116936bffffffffffffffffffffffff60a01b948584541617835501516001820155019160018060a01b039051169082541617905560018060a01b03861615801590806116fb575b156116815750868a52600b60205260408a20805460ff1916600317905561139e87602435612319565b868a52600b60205260ff60408b2054169a60078c101561166d576115a9946113ef6029956113e76103a39e9f966113df6114a09c9b976113f7973691611f25565b963691611f25565b9c3691611f25565b993691611f25565b91611400611d0d565b9a90549961140c612b70565b97611421611418611d0d565b9f90549c612f51565b9561146c6103a361146661146061145a61145461144e6103a36114486103a3600435612f51565b9c6129c8565b9b612b30565b98612b30565b96612b30565b93612b30565b93612b9f565b9261147b6103a36024356129c8565b946114886103a333612b9f565b9760206040519e8f8c83829e51948593019101611e19565b8a0197600b60fa1b988960208201526114c3825180936020602185019101611e19565b018860218201526114de825180936020602285019101611e19565b018760228201526114f9825180936020602385019101611e19565b01866023820152611514825180936020602485019101611e19565b0185602482015261152f825180936020602585019101611e19565b0184602582015261154a825180936020602685019101611e19565b01836026820152611565825180936020602785019101611e19565b01826027820152611580825180936020602885019101611e19565b0190602882015261159a8251809360208785019101611e19565b01036009810185520183611df8565b6040519060a08201938285106001600160401b03861117610dd75761057f9761092b95604052607584527f496e7374616e636549442c20696e7374616e63654f6653706163652c20696e7360208501527f74616e6365547970652c206d657461646174614349442c206368617449442c2060408501527f49504e532c2049504e53456e637279707465644b65792c206761746564436f6e6060850152743a3930b1ba1610383934b1b2961031b932b0ba37b960591b608085015260031b1c906128ab565b634e487b7160e01b8b52602160045260248bfd5b80806116f0575b156116b65750868a52600b60205260408a20805460ff191660011790556116b187602435612319565b61139e565b156116d757868a52600b60205260408a20805460ff1916600217905561139e565b600b60205260408a20805460ff1916600417905561139e565b506024351515611688565b506024351515611375565b8399509061177e82611786949361173961172561178c98369088611e61565b6003549095906001600160a01b031661243c565b9360405161176a8161175c602082019463a224cee760e01b8652602483016121e4565b03601f198101835282611df8565b519082865af16117786123ce565b506123fe565b983691611e61565b88612e5b565b3880888c6112ea565b634e487b7160e01b8c52602160045260248cfd5b50602090816003193601126101ca57600435916117c633846125b5565b838352600582526117df6002604085200154341461264f565b8383526005825260408320546001600160a01b03908116803b156104ee57848091602460405180948193630684c62560e11b83523360048401525af180156104e357611970575b5084845260058352600160408520015416606334023481046063143415171561195c579060646118579204906126a9565b62278d0081018091116109355761092b61194d61057f9495611877611cd6565b959054946103a361112f603f61188b612dd6565b946118e46103a36118a661189d611cd6565b979054986129c8565b986110f06029604051809c68032b73239a0ba101e960bd1b888301526118d4815180928a8686019101611e19565b810103600981018d52018b611df8565b906118f16103a333612b9f565b90604051998a936c024b739ba30b731b2a4a2101e9609d1b838601526119208151809285602d89019101611e19565b8401917101020a7221039bab139b1b934b132b9101e960751b602d84015283519384918785019101611e19565b0103601f810188520186611df8565b634e487b7160e01b85526011600452602485fd5b61197c90949194611daf565b9238611826565b50346101ca5760203660031901126101ca576040606091600435815260096020522060018060a01b0390818154169160026001830154920154169060405192835260208301526040820152f35b50346101ca57806003193601126101ca576040517f00000000000000000000000000000000000000000000000000000000000000006001600160a01b03168152602090f35b50346101ca5760203660031901126101ca576020906004358152600a8252604060018060a01b0391205416604051908152f35b90503461029a57606036600319011261029a576001600160401b036004356024358281116104ee57611a7e903690600401611bc8565b9092604435908111611bc457611a98903690600401611bc8565b939091838752602095600a875260018060a01b036040892054163303611bb557509361057f9593611adf61092b94611ad7611ba5956029993691611f25565b933691611f25565b91611b1a61112f611aee611c89565b99905498611b7f6103a3611b00612cb7565b976110f06031611b20611b11611c89565b9a90549b612b30565b9c612b30565b9b6040519c8d916603730b6b2901e960cd1b89840152611b49815180928b602787019101611e19565b8201690161030b137baba101e960b51b6027820152611b70825180938b8785019101611e19565b0103601181018d52018b611df8565b604051988268031b7b232a4a2101e960bd1b8b9485015282519283918686019101611e19565b8101036009810188520186611df8565b6306815cbd60e41b8152600490fd5b8580fd5b9181601f84011215611bf5578235916001600160401b038311611bf55760208381860195010111611bf557565b600080fd5b9181601f84011215611bf5578235916001600160401b038311611bf5576020808501948460051b010111611bf557565b602435906001600160a01b0382168203611bf557565b600435906001600160a01b0382168203611bf557565b906040600319830112611bf55760043591602435906001600160401b038211611bf557611c8591600401611bc8565b9091565b60085460021015611cc05760086000527ff3f7a9fe364faab93b216da50a3214154f22a0a2b415b23a84c8169e8b636ee590600090565b634e487b7160e01b600052603260045260246000fd5b60085460031015611cc05760086000527ff3f7a9fe364faab93b216da50a3214154f22a0a2b415b23a84c8169e8b636ee690600090565b60085460011015611cc05760086000527ff3f7a9fe364faab93b216da50a3214154f22a0a2b415b23a84c8169e8b636ee490600090565b60085460041015611cc05760086000527ff3f7a9fe364faab93b216da50a3214154f22a0a2b415b23a84c8169e8b636ee790600090565b60085415611cc05760086000527ff3f7a9fe364faab93b216da50a3214154f22a0a2b415b23a84c8169e8b636ee390600090565b6001600160401b038111610dd757604052565b606081019081106001600160401b03821117610dd757604052565b604081019081106001600160401b03821117610dd757604052565b90601f801991011681019081106001600160401b03821117610dd757604052565b60005b838110611e2c5750506000910152565b8181015183820152602001611e1c565b90602091611e5581518092818552858086019101611e19565b601f01601f1916010190565b9092916001600160401b038411610dd7578360051b6040519260208094611e8a82850182611df8565b8097815201918101928311611bf557905b828210611ea85750505050565b81356001600160a01b0381168103611bf5578152908301908301611e9b565b906040600319830112611bf55760043591602435906001600160401b038211611bf55780602383011215611bf557816024611f0793600401359101611e61565b90565b6001600160401b038111610dd757601f01601f191660200190565b929192611f3182611f0a565b91611f3f6040519384611df8565b829481845281830111611bf5578281602093846000960137010152565b15611f6357565b60405162461bcd60e51b815260206004820152601c60248201527f51554144423a204e6f6465206973206e6f742061207375626e6f6465000000006044820152606490fd5b906000828152600960205260018060a01b0360408220541690600b60205260ff604082205416600781101561208157600303611fe9575050611f0791612601565b838152600b60205260ff60408220541660078110156120815760010361202a5750612014908261252f565b91821561202057505090565b611f079250612601565b8392508093915052600b60205260ff60408320541660078110156102d75760021490811561205f575b5015611f075750600190565b825250600b602052604081205460ff1660078110156120815760041438612053565b634e487b7160e01b82526021600452602482fd5b919060008091848352600960205260018060a01b038060408520541695600b60205260ff604086205416936007851015978861219857600386036121105750508452600960205280600260408620015416911614935b6120815760048111908115612107575b506121035750565b9150565b905015386120fb565b9097508593929193976001861460001461215f575061212f908361252f565b928315612141575b505050935b6120eb565b85526009602052604085206002015481169116149050388080612137565b975092505083956002841460001461218257509061217c9161252f565b936120eb565b95505050816004820361213c57600194506120eb565b634e487b7160e01b87526021600452602487fd5b156121b357565b60405162461bcd60e51b81526020600482015260096024820152684e6f2061636365737360b81b6044820152606490fd5b6020908160408183019282815285518094520193019160005b82811061220b575050505090565b83516001600160a01b0316855293810193928101926001016121fd565b9060206122579260405193849384926309306bd160e21b8452600484015260e0602484015260e4830190611e3c565b3060448301528160018060a01b0391827f000000000000000000000000000000000000000000000000000000000000000016606483015260009687918260848301528260a48301528260c483015203927f0000000000000000000000000000000000000000000000000000000000000000165af191821561230d5780926122dd57505090565b9091506020823d8211612305575b816122f860209383611df8565b810103126101ca57505190565b3d91506122eb565b604051903d90823e3d90fd5b6004546001600160a01b039260029291612336908290861661243c565b93612370600080604051602081019063189acdbd60e31b82523060248201526024815261236281611dc2565b5190828a5af16117786123ce565b806040519561237e87611dc2565b1685526020850191338352604086019384526000526005602052806040600020955116906bffffffffffffffffffffffff60a01b9182875416178655600186019251169082541617905551910155565b3d156123f9573d906123df82611f0a565b916123ed6040519384611df8565b82523d6000602084013e565b606090565b1561240557565b60405162461bcd60e51b815260206004820152600f60248201526e6572726f72206465706c6f79696e6760881b6044820152606490fd5b6e5af43d82803e903d91602b57fd5bf390763d602d80600a3d3981f3363d3d373d3d3d363d7300000062ffffff8260881c161760005260781b17602052603760096000f5906001600160a01b0382161561249257565b60405162461bcd60e51b815260206004820152601760248201527f455243313136373a2063726561746532206661696c65640000000000000000006044820152606490fd5b604390605592604051913060388401526f5af43d82803e903d91602b57fd5bf3ff60248401526014830152733d602d80600a3d3981f3363d3d373d3d3d363d73825260588201526037600c8201206078820152012090565b6000916001600160a01b0390811691908261254d5750505050600090565b602460209260405194859384926370a0823160e01b84521660048301525afa91821561230d578092612581575b5050151590565b9091506020823d82116125ad575b8161259c60209383611df8565b810103126101ca575051388061257a565b3d915061258f565b600090815260056020908152604080832054905163074288bd60e11b81526001600160a01b039485166004820152929383916024918391165afa91821561230d5780926122dd57505090565b60009081526005602090815260408083205490516370a0823160e01b81526001600160a01b039485166004820152929383916024918391165afa91821561230d578092612581575050151590565b1561265657565b60405162461bcd60e51b815260206004820152602560248201527f51554144423a204e6f2070726963652073657420666f72207468697320696e7360448201526474616e636560d81b6064820152608490fd5b81471061273f576000918291829182916001600160a01b03165af16126cc6123ce565b50156126d457565b60405162461bcd60e51b815260206004820152603a60248201527f416464726573733a20756e61626c6520746f2073656e642076616c75652c207260448201527f6563697069656e74206d617920686176652072657665727465640000000000006064820152608490fd5b60405162461bcd60e51b815260206004820152601d60248201527f416464726573733a20696e73756666696369656e742062616c616e63650000006044820152606490fd5b6022906127f292949360405195826127a6889451809260208088019101611e19565b830190600b60fa1b918260208201526127c9825180936020602185019101611e19565b019060218201526127e38251809360208785019101611e19565b01036002810185520183611df8565b565b9061092b61285b926103a36127f29561280b611d7b565b969054956040519261281c84611ddd565b600984526864625f73706163657360b81b60208501526108e36128556103a361284f612846611d7b565b9990549a612f51565b94612f51565b91612b30565b926040519261286984611dc2565b602984527f4442537061636549442c20444253756253706163654f6649442c20444253756260208501526853706163654e616d6560b81b604085015260031b1c905b926128bc603692611f07949561294b565b906040519485926b024a729a2a92a1024a72a27960a51b60208501526128ec815180926020602c88019101611e19565b8301600560fb1b602c82015261290c825180936020602d85019101611e19565b0167052ac8298aa8aa6560c31b602d820152612932825180936020603585019101611e19565b01602960f81b6035820152036016810184520182611df8565b6022611f079161296361295d466129c8565b946129c8565b604051948261297c879451809260208088019101611e19565b830190605f60f81b9182602082015261299f825180936020602185019101611e19565b019060218201526129b98251809360208785019101611e19565b01036002810184520182611df8565b806000917a184f03e93ff9f4daa797ed6e38ed64bf6a1f01000000000000000080821015612b22575b506d04ee2d6d415b85acef810000000080831015612b13575b50662386f26fc1000080831015612b04575b506305f5e10080831015612af5575b5061271080831015612ae6575b506064821015612ad6575b600a80921015612acc575b60019081602181860195612a6187611f0a565b96612a6f6040519889611df8565b808852612a7e601f1991611f0a565b01366020890137860101905b612a96575b5050505090565b600019019083906f181899199a1a9b1b9c1cb0b131b232b360811b8282061a835304918215612ac757919082612a8a565b612a8f565b9160010191612a4e565b9190606460029104910191612a43565b60049193920491019138612a38565b60089193920491019138612a2b565b60109193920491019138612a1c565b60209193920491019138612a0a565b6040935081049150386129f1565b611f0760226040518093602760f81b90816020840152612b5a815180926020602187019101611e19565b8201906021820152036002810184520182611df8565b60405190612b7d82611ddd565b601382527264625f7370616365735f696e7374616e63657360681b6020830152565b604051906001600160a01b0316612bb582611dc2565b602a8252602082016040368237825115611cc057603090538151600190811015611cc057607860218401536029905b808211612c38575050612bf45790565b606460405162461bcd60e51b815260206004820152602060248201527f537472696e67733a20686578206c656e67746820696e73756666696369656e746044820152fd5b9091600f81166010811015612c91576f181899199a1a9b1b9c1cb0b131b232b360811b901a612c678486612ca6565b5360041c918015612c7c576000190190612be4565b60246000634e487b7160e01b81526011600452fd5b60246000634e487b7160e01b81526032600452fd5b908151811015611cc0570160200190565b60405190612cc482611ddd565b600f82526e696e7374616e6365735f636f64657360881b6020830152565b90612cef9193929361294b565b9060405191602091828401928484106001600160401b03851117610dd757611f0794602c9460405260008152918051612d91575b50612d826040519687946602aa82220aa22960cd1b84870152612d4f815180928660278a019101611e19565b85016401029a2aa160dd1b6027820152612d7182518093868a85019101611e19565b019183519384918785019101611e19565b0103600c810184520182611df8565b909150612dcf60276040518093660102ba422a922960cd1b86830152612dbf81518092888686019101611e19565b8101036007810184520182611df8565b9038612d23565b60405190612de382611ddd565b600d82526c737562736372697074696f6e7360981b6020830152565b6000198114612e0e5760010190565b634e487b7160e01b600052601160045260246000fd5b60405190612e3182611ddd565b60078252666d656d6265727360c81b6020830152565b8051821015611cc05760209160051b010190565b612e6790929192612f51565b9160005b8151811015612f4b57612f469061047e612e83611d44565b9054612e8d612e24565b91612f3e612e99611d44565b9054600395612ea78d612b30565b91612ec06103a38d61039c8d60018060a01b0392612e47565b937124b739ba30b731b2a4a2161036b2b6b132b960711b6040612f23815197888851612ef48160209b8c8086019101611e19565b8101600b60fa1b8a820152825190612f14826021958d8785019101611e19565b0103600181018a520188611df8565b5194612f2e86611ddd565b60128652850152881b1c906128ab565b921b1c613075565b612e6b565b50509050565b60405190612f5e82611dc2565b6040825260209182810191604036843760405190612f7b82611ddd565b601082526f181899199a1a9b1b9c1cb0b131b232b360811b8583015260005b858110612fda5750505061060f60f31b92611f0792612fca60229360405196879485015251809285850190611e19565b8101036002810184520182611df8565b81811a908351801561305f576001600160f81b0319908190612ffe90850487612ca6565b51169060019383851b9284840460021485151715612e0e5760001a613023848a612ca6565b538651801561305f57613037910687612ca6565b5116928101809111612e0e5761305461305a9360001a9187612ca6565b53612dff565b612f9a565b634e487b7160e01b600052601260045260246000fd5b7f00000000000000000000000000000000000000000000000000000000000000006001600160a01b031691823b15611bf5576130de9260009283604051809681958294631bbd786d60e11b84523060048501526024840152606060448401526064830190611e3c565b03925af180156130f8576130ef5750565b6127f290611daf565b6040513d6000823e3d90fdfea2646970667358221220537ddf2313b2641a393204974a7151173fb87042a143d6a73dfae5c1ae24adb364736f6c63430008140033",
  "devdoc": {
    "details": "Create a decentralized Database NameSpaces Where space and subSpaces can get created and anyone can create instances inside a space and contribute to the public this is possible by integrating tableland SQL in solidity ENSsystem to support a decentralized Namespace of Database spaces IPNS and Push protocol for code and space discussions",
    "kind": "dev",
    "methods": {
      "createDBSpace(string)": {
        "details": "Create a new space under the given node",
        "params": {
          "_name": "The name of the new space"
        }
      },
      "createDBSubSpace(bytes32,string)": {
        "details": "Create a new subnode under the given node",
        "params": {
          "_DBSpace": "The parent node",
          "_name": "The name of the new subnode"
        }
      },
      "createInstanceCode(bytes32,string,string,string,string,string)": {
        "details": "Create a new instance under the given node",
        "params": {
          "_about": "The about of the new instance",
          "_chatID": "The chatID of the new instance",
          "_codeIPNS": "The IPNS of the new instance",
          "_instance": "The parent node",
          "_name": "The name of the new instance"
        }
      },
      "createSpaceInstance(bytes32,uint256,address[],string,string,string,string)": {
        "details": "Create a new instance under the given node",
        "params": {
          "_IPNS": "The IPNS of the new instance",
          "_chatID": "The chatID of the new instance",
          "_members": "The hatID of the new instance",
          "_metadataCID": "The name of the new instance",
          "_node": "The parent node"
        }
      },
      "hasViewAccess(bytes32,address)": {
        "details": "Check if the sender has access to the given instance",
        "params": {
          "_instance": "The instance to check",
          "_sender": "The sender to check"
        },
        "returns": {
          "_0": "bool"
        }
      }
    },
    "title": "QUADB",
    "version": 1
  },
  "userdoc": {
    "errors": {
      "ChainNotSupported(uint256)": [
        {
          "notice": "Current chain does not have a TablelandTables deployment."
        }
      ]
    },
    "kind": "user",
    "methods": {},
    "version": 1
  },
  "storageLayout": {
    "storage": [
      {
        "astId": 4166,
        "contract": "contracts/QUADB.sol:QUADB",
        "label": "BASE_NODE",
        "offset": 0,
        "slot": "0",
        "type": "t_bytes32"
      },
      {
        "astId": 4168,
        "contract": "contracts/QUADB.sol:QUADB",
        "label": "BASE_NODE_ID",
        "offset": 0,
        "slot": "1",
        "type": "t_uint256"
      },
      {
        "astId": 4170,
        "contract": "contracts/QUADB.sol:QUADB",
        "label": "DOMAIN_ID",
        "offset": 0,
        "slot": "2",
        "type": "t_uint256"
      },
      {
        "astId": 4350,
        "contract": "contracts/QUADB.sol:QUADB",
        "label": "gatedImplementation",
        "offset": 0,
        "slot": "3",
        "type": "t_address"
      },
      {
        "astId": 4352,
        "contract": "contracts/QUADB.sol:QUADB",
        "label": "subscriptionImplementation",
        "offset": 0,
        "slot": "4",
        "type": "t_address"
      },
      {
        "astId": 4368,
        "contract": "contracts/QUADB.sol:QUADB",
        "label": "instanceSubscription",
        "offset": 0,
        "slot": "5",
        "type": "t_mapping(t_bytes32,t_struct(SubscriptionStruct)4363_storage)"
      },
      {
        "astId": 4699,
        "contract": "contracts/QUADB.sol:QUADB",
        "label": "createTableStatements",
        "offset": 0,
        "slot": "6",
        "type": "t_array(t_string_storage)dyn_storage"
      },
      {
        "astId": 4702,
        "contract": "contracts/QUADB.sol:QUADB",
        "label": "tables",
        "offset": 0,
        "slot": "7",
        "type": "t_array(t_string_storage)dyn_storage"
      },
      {
        "astId": 4705,
        "contract": "contracts/QUADB.sol:QUADB",
        "label": "tableIDs",
        "offset": 0,
        "slot": "8",
        "type": "t_array(t_uint256)dyn_storage"
      },
      {
        "astId": 3761,
        "contract": "contracts/QUADB.sol:QUADB",
        "label": "instances",
        "offset": 0,
        "slot": "9",
        "type": "t_mapping(t_bytes32,t_struct(SpaceInstance)3756_storage)"
      },
      {
        "astId": 3765,
        "contract": "contracts/QUADB.sol:QUADB",
        "label": "codeOwner",
        "offset": 0,
        "slot": "10",
        "type": "t_mapping(t_bytes32,t_address)"
      },
      {
        "astId": 3770,
        "contract": "contracts/QUADB.sol:QUADB",
        "label": "isType",
        "offset": 0,
        "slot": "11",
        "type": "t_mapping(t_bytes32,t_enum(Types)3749)"
      }
    ],
    "types": {
      "t_address": {
        "encoding": "inplace",
        "label": "address",
        "numberOfBytes": "20"
      },
      "t_array(t_string_storage)dyn_storage": {
        "base": "t_string_storage",
        "encoding": "dynamic_array",
        "label": "string[]",
        "numberOfBytes": "32"
      },
      "t_array(t_uint256)dyn_storage": {
        "base": "t_uint256",
        "encoding": "dynamic_array",
        "label": "uint256[]",
        "numberOfBytes": "32"
      },
      "t_bytes32": {
        "encoding": "inplace",
        "label": "bytes32",
        "numberOfBytes": "32"
      },
      "t_contract(IGated)4348": {
        "encoding": "inplace",
        "label": "contract IGated",
        "numberOfBytes": "20"
      },
      "t_enum(Types)3749": {
        "encoding": "inplace",
        "label": "enum Core.Types",
        "numberOfBytes": "1"
      },
      "t_mapping(t_bytes32,t_address)": {
        "encoding": "mapping",
        "key": "t_bytes32",
        "label": "mapping(bytes32 => address)",
        "numberOfBytes": "32",
        "value": "t_address"
      },
      "t_mapping(t_bytes32,t_enum(Types)3749)": {
        "encoding": "mapping",
        "key": "t_bytes32",
        "label": "mapping(bytes32 => enum Core.Types)",
        "numberOfBytes": "32",
        "value": "t_enum(Types)3749"
      },
      "t_mapping(t_bytes32,t_struct(SpaceInstance)3756_storage)": {
        "encoding": "mapping",
        "key": "t_bytes32",
        "label": "mapping(bytes32 => struct Core.SpaceInstance)",
        "numberOfBytes": "32",
        "value": "t_struct(SpaceInstance)3756_storage"
      },
      "t_mapping(t_bytes32,t_struct(SubscriptionStruct)4363_storage)": {
        "encoding": "mapping",
        "key": "t_bytes32",
        "label": "mapping(bytes32 => struct Gated.SubscriptionStruct)",
        "numberOfBytes": "32",
        "value": "t_struct(SubscriptionStruct)4363_storage"
      },
      "t_string_storage": {
        "encoding": "bytes",
        "label": "string",
        "numberOfBytes": "32"
      },
      "t_struct(SpaceInstance)3756_storage": {
        "encoding": "inplace",
        "label": "struct Core.SpaceInstance",
        "members": [
          {
            "astId": 3751,
            "contract": "contracts/QUADB.sol:QUADB",
            "label": "gatedContract",
            "offset": 0,
            "slot": "0",
            "type": "t_address"
          },
          {
            "astId": 3753,
            "contract": "contracts/QUADB.sol:QUADB",
            "label": "price",
            "offset": 0,
            "slot": "1",
            "type": "t_uint256"
          },
          {
            "astId": 3755,
            "contract": "contracts/QUADB.sol:QUADB",
            "label": "creator",
            "offset": 0,
            "slot": "2",
            "type": "t_address"
          }
        ],
        "numberOfBytes": "96"
      },
      "t_struct(SubscriptionStruct)4363_storage": {
        "encoding": "inplace",
        "label": "struct Gated.SubscriptionStruct",
        "members": [
          {
            "astId": 4358,
            "contract": "contracts/QUADB.sol:QUADB",
            "label": "subscriptionContract",
            "offset": 0,
            "slot": "0",
            "type": "t_contract(IGated)4348"
          },
          {
            "astId": 4360,
            "contract": "contracts/QUADB.sol:QUADB",
            "label": "creator",
            "offset": 0,
            "slot": "1",
            "type": "t_address"
          },
          {
            "astId": 4362,
            "contract": "contracts/QUADB.sol:QUADB",
            "label": "prize",
            "offset": 0,
            "slot": "2",
            "type": "t_uint256"
          }
        ],
        "numberOfBytes": "96"
      },
      "t_uint256": {
        "encoding": "inplace",
        "label": "uint256",
        "numberOfBytes": "32"
      }
    }
  }
}