{
  "address": "0x66c4555C64f8b3918092EdCE0c8dc8CF4fe35C03",
  "abi": [
    {
      "inputs": [],
      "stateMutability": "nonpayable",
      "type": "constructor"
    },
    {
      "anonymous": false,
      "inputs": [
        {
          "indexed": true,
          "internalType": "address",
          "name": "owner",
          "type": "address"
        },
        {
          "indexed": true,
          "internalType": "address",
          "name": "approved",
          "type": "address"
        },
        {
          "indexed": true,
          "internalType": "uint256",
          "name": "tokenId",
          "type": "uint256"
        }
      ],
      "name": "Approval",
      "type": "event"
    },
    {
      "anonymous": false,
      "inputs": [
        {
          "indexed": true,
          "internalType": "address",
          "name": "owner",
          "type": "address"
        },
        {
          "indexed": true,
          "internalType": "address",
          "name": "operator",
          "type": "address"
        },
        {
          "indexed": false,
          "internalType": "bool",
          "name": "approved",
          "type": "bool"
        }
      ],
      "name": "ApprovalForAll",
      "type": "event"
    },
    {
      "anonymous": false,
      "inputs": [
        {
          "indexed": false,
          "internalType": "uint8",
          "name": "version",
          "type": "uint8"
        }
      ],
      "name": "Initialized",
      "type": "event"
    },
    {
      "anonymous": false,
      "inputs": [
        {
          "indexed": true,
          "internalType": "address",
          "name": "from",
          "type": "address"
        },
        {
          "indexed": true,
          "internalType": "address",
          "name": "to",
          "type": "address"
        },
        {
          "indexed": true,
          "internalType": "uint256",
          "name": "tokenId",
          "type": "uint256"
        }
      ],
      "name": "Transfer",
      "type": "event"
    },
    {
      "inputs": [],
      "name": "MONTH",
      "outputs": [
        {
          "internalType": "uint256",
          "name": "",
          "type": "uint256"
        }
      ],
      "stateMutability": "view",
      "type": "function"
    },
    {
      "inputs": [],
      "name": "admin",
      "outputs": [
        {
          "internalType": "address",
          "name": "",
          "type": "address"
        }
      ],
      "stateMutability": "view",
      "type": "function"
    },
    {
      "inputs": [
        {
          "internalType": "address",
          "name": "to",
          "type": "address"
        },
        {
          "internalType": "uint256",
          "name": "tokenId",
          "type": "uint256"
        }
      ],
      "name": "approve",
      "outputs": [],
      "stateMutability": "nonpayable",
      "type": "function"
    },
    {
      "inputs": [
        {
          "internalType": "address",
          "name": "owner",
          "type": "address"
        }
      ],
      "name": "balanceOf",
      "outputs": [
        {
          "internalType": "uint256",
          "name": "",
          "type": "uint256"
        }
      ],
      "stateMutability": "view",
      "type": "function"
    },
    {
      "inputs": [
        {
          "internalType": "address",
          "name": "member",
          "type": "address"
        }
      ],
      "name": "extendSubscription",
      "outputs": [],
      "stateMutability": "nonpayable",
      "type": "function"
    },
    {
      "inputs": [
        {
          "internalType": "uint256",
          "name": "tokenId",
          "type": "uint256"
        }
      ],
      "name": "getApproved",
      "outputs": [
        {
          "internalType": "address",
          "name": "",
          "type": "address"
        }
      ],
      "stateMutability": "view",
      "type": "function"
    },
    {
      "inputs": [
        {
          "internalType": "address",
          "name": "owner",
          "type": "address"
        }
      ],
      "name": "getRemainingTime",
      "outputs": [
        {
          "internalType": "uint256",
          "name": "",
          "type": "uint256"
        }
      ],
      "stateMutability": "view",
      "type": "function"
    },
    {
      "inputs": [],
      "name": "getTime",
      "outputs": [
        {
          "internalType": "uint256",
          "name": "",
          "type": "uint256"
        }
      ],
      "stateMutability": "view",
      "type": "function"
    },
    {
      "inputs": [
        {
          "internalType": "address",
          "name": "_admin",
          "type": "address"
        }
      ],
      "name": "initialize",
      "outputs": [],
      "stateMutability": "nonpayable",
      "type": "function"
    },
    {
      "inputs": [
        {
          "internalType": "address",
          "name": "",
          "type": "address"
        }
      ],
      "name": "instanceSubscriptions",
      "outputs": [
        {
          "internalType": "uint256",
          "name": "",
          "type": "uint256"
        }
      ],
      "stateMutability": "view",
      "type": "function"
    },
    {
      "inputs": [
        {
          "internalType": "address",
          "name": "owner",
          "type": "address"
        },
        {
          "internalType": "address",
          "name": "operator",
          "type": "address"
        }
      ],
      "name": "isApprovedForAll",
      "outputs": [
        {
          "internalType": "bool",
          "name": "",
          "type": "bool"
        }
      ],
      "stateMutability": "view",
      "type": "function"
    },
    {
      "inputs": [],
      "name": "name",
      "outputs": [
        {
          "internalType": "string",
          "name": "",
          "type": "string"
        }
      ],
      "stateMutability": "view",
      "type": "function"
    },
    {
      "inputs": [
        {
          "internalType": "uint256",
          "name": "tokenId",
          "type": "uint256"
        }
      ],
      "name": "ownerOf",
      "outputs": [
        {
          "internalType": "address",
          "name": "",
          "type": "address"
        }
      ],
      "stateMutability": "view",
      "type": "function"
    },
    {
      "inputs": [
        {
          "internalType": "address",
          "name": "from",
          "type": "address"
        },
        {
          "internalType": "address",
          "name": "to",
          "type": "address"
        },
        {
          "internalType": "uint256",
          "name": "tokenId",
          "type": "uint256"
        }
      ],
      "name": "safeTransferFrom",
      "outputs": [],
      "stateMutability": "nonpayable",
      "type": "function"
    },
    {
      "inputs": [
        {
          "internalType": "address",
          "name": "from",
          "type": "address"
        },
        {
          "internalType": "address",
          "name": "to",
          "type": "address"
        },
        {
          "internalType": "uint256",
          "name": "tokenId",
          "type": "uint256"
        },
        {
          "internalType": "bytes",
          "name": "data",
          "type": "bytes"
        }
      ],
      "name": "safeTransferFrom",
      "outputs": [],
      "stateMutability": "nonpayable",
      "type": "function"
    },
    {
      "inputs": [
        {
          "internalType": "address",
          "name": "operator",
          "type": "address"
        },
        {
          "internalType": "bool",
          "name": "approved",
          "type": "bool"
        }
      ],
      "name": "setApprovalForAll",
      "outputs": [],
      "stateMutability": "nonpayable",
      "type": "function"
    },
    {
      "inputs": [
        {
          "internalType": "address",
          "name": "newMember",
          "type": "address"
        }
      ],
      "name": "subscribe",
      "outputs": [],
      "stateMutability": "nonpayable",
      "type": "function"
    },
    {
      "inputs": [
        {
          "internalType": "bytes4",
          "name": "interfaceId",
          "type": "bytes4"
        }
      ],
      "name": "supportsInterface",
      "outputs": [
        {
          "internalType": "bool",
          "name": "",
          "type": "bool"
        }
      ],
      "stateMutability": "view",
      "type": "function"
    },
    {
      "inputs": [],
      "name": "symbol",
      "outputs": [
        {
          "internalType": "string",
          "name": "",
          "type": "string"
        }
      ],
      "stateMutability": "view",
      "type": "function"
    },
    {
      "inputs": [
        {
          "internalType": "uint256",
          "name": "tokenId",
          "type": "uint256"
        }
      ],
      "name": "tokenURI",
      "outputs": [
        {
          "internalType": "string",
          "name": "",
          "type": "string"
        }
      ],
      "stateMutability": "view",
      "type": "function"
    },
    {
      "inputs": [
        {
          "internalType": "address",
          "name": "from",
          "type": "address"
        },
        {
          "internalType": "address",
          "name": "to",
          "type": "address"
        },
        {
          "internalType": "uint256",
          "name": "tokenId",
          "type": "uint256"
        }
      ],
      "name": "transferFrom",
      "outputs": [],
      "stateMutability": "nonpayable",
      "type": "function"
    }
  ],
  "transactionHash": "0x221d5e1238de8f879e249d24eb8de8a6e6317f51f94efdb71c0f01653947b572",
  "args": [],
  "numDeployments": 1,
  "solcInputHash": "d19031d00e7f09e7a8ad9feb09e653f8",
  "bytecode": "0x60803462000314576001600160401b039060409080820183811182821017620002fe5782526012815260209271537562736372697074696f6e546f6b656e7360701b84830152825183810181811083821117620002fe578452600281526114d560f21b85820152825190828211620002fe5760008054926001958685811c95168015620002f3575b89861014620002df578190601f958681116200028c575b508990868311600114620002285784926200021c575b5050600019600383901b1c191690861b1781555b8151938411620002085784548581811c91168015620001fd575b88821014620001e957838111620001a1575b50869284116001146200013b578394959650926200012f575b5050600019600383901b1c191690821b1790555b5161133b90816200031a8239f35b0151905038806200010d565b9190601f1984169685845280842093905b8882106200018957505083859697106200016f575b505050811b01905562000121565b015160001960f88460031b161c1916905538808062000161565b8087859682949686015181550195019301906200014c565b8582528782208480870160051c8201928a8810620001df575b0160051c019086905b828110620001d3575050620000f4565b838155018690620001c3565b92508192620001ba565b634e487b7160e01b82526022600452602482fd5b90607f1690620000e2565b634e487b7160e01b81526041600452602490fd5b015190503880620000b4565b8480528a85208994509190601f198416865b8d8282106200027557505084116200025b575b505050811b018155620000c8565b015160001960f88460031b161c191690553880806200024d565b8385015186558c979095019493840193016200023a565b9091508380528984208680850160051c8201928c8610620002d5575b918a91869594930160051c01915b828110620002c65750506200009e565b8681558594508a9101620002b6565b92508192620002a8565b634e487b7160e01b83526022600452602483fd5b94607f169462000087565b634e487b7160e01b600052604160045260246000fd5b600080fdfe608060408181526004918236101561001657600080fd5b600092833560e01c91826301ffc9a714610b535750816306fdde0314610a88578163081812fc14610a68578163095ea7b3146108fa5781630d098c4a146108945781630e85117a1461086e5781630ed0b07c1461083657816323b872dd1461080c57816341a7726a1461068057816342842e0e14610657578163557ed1ba1461063c5781636352211e1461060b57816370a08231146105de57816395d89b41146104c5578163a22cb465146103f5578163b88d4fde1461036b578163c4d66de814610214578163c87b56dd146101a557508063d5999a5c14610188578063e985e9c51461013b5763f851a4401461010c57600080fd5b34610137578160031936011261013757600654905160109190911c6001600160a01b03168152602090f35b5080fd5b503461013757806003193601126101375760ff8160209361015a610bfe565b610162610c19565b6001600160a01b0391821683526005875283832091168252855220549151911615158152f35b50346101375781600319360112610137576020905162278d008152f35b838334610137576020366003190112610137576101e36101de6102109435600052600260205260018060a01b0360406000205416151590565b610cd4565b8181516101ef81610c64565b528051916101fc83610c64565b825251918291602083526020830190610bbe565b0390f35b9190503461036757602036600319011261036757610230610bfe565b906006805460ff8160081c16159485809661035a575b8015610343575b156102e9575060ff1981166001178255846102d8575b50805462010000600160b01b0319811660109490941b62010000600160b01b031693841782559293610293578480f35b610100600160b01b0319909216909217905551600181527f7f26b83ff96e1f2b6a682f133852f6798a09c465da95921460cefb384740249890602090a1388080808480f35b61ffff191661010117815538610263565b608490602085519162461bcd60e51b8352820152602e60248201527f496e697469616c697a61626c653a20636f6e747261637420697320616c72656160448201526d191e481a5b9a5d1a585b1a5e995960921b6064820152fd5b50303b15801561024d5750600160ff83161461024d565b50600160ff831610610246565b8280fd5b9190503461036757608036600319011261036757610387610bfe565b61038f610c19565b846064359467ffffffffffffffff8611610137573660238701121561013757850135946103c76103be87610cb8565b95519586610c96565b858552366024878301011161013757856103f296602460209301838801378501015260443591610de6565b80f35b91905034610367578060031936011261036757610410610bfe565b90602435918215158093036104c1576001600160a01b03169233841461047f5750338452600560205280842083855260205280842060ff1981541660ff8416179055519081527f17307eab39ab6107e8899845ad3d59bd9653f200f220920489ca2b5937696c3160203392a380f35b6020606492519162461bcd60e51b8352820152601960248201527f4552433732313a20617070726f766520746f2063616c6c6572000000000000006044820152fd5b8480fd5b8284346105db57806003193601126105db578151918160019283549384811c918186169586156105d1575b60209687851081146105be578899509688969785829a52918260001461059757505060011461053c575b505050610210929161052d910385610c96565b51928284938452830190610bbe565b91908693508083527fb10e2d527612073b26eecdfd717e6a320cf44b4afac2b0732d9fcbe2b7fa0cf65b82841061057f575050508201018161052d61021061051a565b8054848a018601528895508794909301928101610566565b60ff19168782015293151560051b8601909301935084925061052d9150610210905061051a565b634e487b7160e01b835260228a52602483fd5b92607f16926104f0565b80fd5b505034610137576020366003190112610137576020906106046105ff610bfe565b611293565b9051908152f35b8284346105db5760203660031901126105db575061062b60209235610d20565b90516001600160a01b039091168152f35b50503461013757816003193601126101375760209051428152f35b505034610137576103f29061066b36610c2f565b9192519261067884610c64565b858452610de6565b9190503461036757602090816003193601126108085761069e610bfe565b9160018060a01b036106b88160065460101c1633146111f1565b62278d004201938442116107f557169283865260078252828620558151938185018481528286528386019186831067ffffffffffffffff8411176107e25750818452855190209484156107a457505060029061073261072c86600052600260205260018060a01b0360406000205416151590565b15611247565b600085815260026020526040902054610755906001600160a01b0316151561072c565b838652600381528286208054600101905584865252832080546001600160a01b03191682179055827fddf252ad1be2c89b69c2b068fc378daa952ba7f163c4a11628f55a4df523b3ef8180a480f35b60847f4552433732313a206d696e7420746f20746865207a65726f20616464726573739160649462461bcd60e51b8552806044830152858201520152fd5b634e487b7160e01b885260419052602487fd5b634e487b7160e01b875260118652602487fd5b8380fd5b83346105db576103f261081e36610c2f565b9161083161082c8433610e81565b610d84565b610f49565b5050346101375760203660031901126101375760209181906001600160a01b0361085e610bfe565b1681526007845220549051908152f35b5050346101375760203660031901126101375760209061060461088f610bfe565b6112bc565b91905034610367576020366003190112610367576108b0610bfe565b60018060a01b03906108ca8260065460101c1633146111f1565b62278d004201938442116108e75750168352600760205282205580f35b634e487b7160e01b865260119052602485fd5b905034610367578160031936011261036757610914610bfe565b6024359290916001600160a01b039190828061092f87610d20565b16941693808514610a1b578033149081156109fc575b501561099457848652602052842080546001600160a01b0319168317905561096c83610d20565b167f8c5be1e5ebec7d5bd14f71427d1e84f3dd0314c0f7b2291e5b200ac8c7c3b9258480a480f35b6020608492519162461bcd60e51b8352820152603d60248201527f4552433732313a20617070726f76652063616c6c6572206973206e6f7420746f60448201527f6b656e206f776e6572206f7220617070726f76656420666f7220616c6c0000006064820152fd5b90508652600560205281862033875260205260ff828720541638610945565b506020608492519162461bcd60e51b8352820152602160248201527f4552433732313a20617070726f76616c20746f2063757272656e74206f776e656044820152603960f91b6064820152fd5b8284346105db5760203660031901126105db575061062b60209235610d46565b8284346105db57806003193601126105db5781519181825492600184811c91818616958615610b49575b60209687851081146105be578899509688969785829a529182600014610597575050600114610aee57505050610210929161052d910385610c96565b91908693508280527f290decd9548b62a8d60345a988386fc84ba6bc95484008f6362f93160ef3e5635b828410610b31575050508201018161052d61021061051a565b8054848a018601528895508794909301928101610b18565b92607f1692610ab2565b849134610367576020366003190112610367573563ffffffff60e01b811680910361036757602092506380ac58cd60e01b8114908115610bad575b8115610b9c575b5015158152f35b6301ffc9a760e01b14905083610b95565b635b5e139f60e01b81149150610b8e565b919082519283825260005b848110610bea575050826000602080949584010152601f8019910116010190565b602081830181015184830182015201610bc9565b600435906001600160a01b0382168203610c1457565b600080fd5b602435906001600160a01b0382168203610c1457565b6060906003190112610c14576001600160a01b03906004358281168103610c1457916024359081168103610c14579060443590565b6020810190811067ffffffffffffffff821117610c8057604052565b634e487b7160e01b600052604160045260246000fd5b90601f8019910116810190811067ffffffffffffffff821117610c8057604052565b67ffffffffffffffff8111610c8057601f01601f191660200190565b15610cdb57565b60405162461bcd60e51b815260206004820152601860248201527f4552433732313a20696e76616c696420746f6b656e20494400000000000000006044820152606490fd5b6000908152600260205260409020546001600160a01b0316610d43811515610cd4565b90565b600081815260026020526040902054610d69906001600160a01b03161515610cd4565b6000908152600460205260409020546001600160a01b031690565b15610d8b57565b60405162461bcd60e51b815260206004820152602d60248201527f4552433732313a2063616c6c6572206973206e6f7420746f6b656e206f776e6560448201526c1c881bdc88185c1c1c9bdd9959609a1b6064820152608490fd5b90610e0a939291610dfa61082c8433610e81565b610e05838383610f49565b6110d4565b15610e1157565b60405162461bcd60e51b815280610e2a60048201610e2e565b0390fd5b60809060208152603260208201527f4552433732313a207472616e7366657220746f206e6f6e20455243373231526560408201527131b2b4bb32b91034b6b83632b6b2b73a32b960711b60608201520190565b906001600160a01b038080610e9584610d20565b16931691838314938415610ec8575b508315610eb2575b50505090565b610ebe91929350610d46565b1614388080610eac565b909350600052600560205260406000208260005260205260ff604060002054169238610ea4565b15610ef657565b60405162461bcd60e51b815260206004820152602560248201527f4552433732313a207472616e736665722066726f6d20696e636f72726563742060448201526437bbb732b960d91b6064820152608490fd5b90610f7191610f5784610d20565b6001600160a01b0393918416928492909183168414610eef565b16918215611083578115801561107b575b1561101c5781610f9c91610f9586610d20565b1614610eef565b7fddf252ad1be2c89b69c2b068fc378daa952ba7f163c4a11628f55a4df523b3ef60008481526004602052604081206bffffffffffffffffffffffff60a01b9081815416905583825260036020526040822060001981540190558482526040822060018154019055858252600260205284604083209182541617905580a4565b60405162461bcd60e51b815260206004820152603160248201527f54686973206120536f756c626f756e6420746f6b656e2e2049742063616e6e6f6044820152703a103132903a3930b739b332b93932b21760791b6064820152608490fd5b506000610f82565b60405162461bcd60e51b8152602060048201526024808201527f4552433732313a207472616e7366657220746f20746865207a65726f206164646044820152637265737360e01b6064820152608490fd5b92939190803b156111e757611126946040518092630a85bd0160e11b9485835233600484015260018060a01b03809816602484015260448301526080606483015281806020998a956084830190610bbe565b03916000988991165af18491816111a7575b50611196575050503d60001461118e573d61115281610cb8565b906111606040519283610c96565b81528091833d92013e5b8051918261118b5760405162461bcd60e51b815280610e2a60048201610e2e565b01fd5b50606061116a565b6001600160e01b0319161492509050565b9091508581813d83116111e0575b6111bf8183610c96565b810103126104c157516001600160e01b0319811681036104c1579038611138565b503d6111b5565b5050915050600190565b156111f857565b60405162461bcd60e51b815260206004820152602160248201527f4f6e6c792061646d696e2063616e20697373756520737562736372697074696f6044820152603760f91b6064820152608490fd5b1561124e57565b60405162461bcd60e51b815260206004820152601c60248201527f4552433732313a20746f6b656e20616c7265616479206d696e746564000000006044820152606490fd5b6001600160a01b03166000908152600760205260409020544210156112b757600190565b600090565b6001600160a01b0316600090815260076020526040902054428111156112ff574281039081116112e95790565b634e487b7160e01b600052601160045260246000fd5b5060009056fea2646970667358221220a56cd3d69a02397e3d2c058804e3dbbba60f9c268a8d22593a71acc9d2062f8264736f6c63430008140033",
  "devdoc": {
    "events": {
      "Approval(address,address,uint256)": {
        "details": "Emitted when `owner` enables `approved` to manage the `tokenId` token."
      },
      "ApprovalForAll(address,address,bool)": {
        "details": "Emitted when `owner` enables or disables (`approved`) `operator` to manage all of its assets."
      },
      "Initialized(uint8)": {
        "details": "Triggered when the contract has been initialized or reinitialized."
      },
      "Transfer(address,address,uint256)": {
        "details": "Emitted when `tokenId` token is transferred from `from` to `to`."
      }
    },
    "kind": "dev",
    "methods": {
      "approve(address,uint256)": {
        "details": "See {IERC721-approve}."
      },
      "balanceOf(address)": {
        "details": "See {IERC721-balanceOf}."
      },
      "getApproved(uint256)": {
        "details": "See {IERC721-getApproved}."
      },
      "isApprovedForAll(address,address)": {
        "details": "See {IERC721-isApprovedForAll}."
      },
      "name()": {
        "details": "See {IERC721Metadata-name}."
      },
      "ownerOf(uint256)": {
        "details": "See {IERC721-ownerOf}."
      },
      "safeTransferFrom(address,address,uint256)": {
        "details": "See {IERC721-safeTransferFrom}."
      },
      "safeTransferFrom(address,address,uint256,bytes)": {
        "details": "See {IERC721-safeTransferFrom}."
      },
      "setApprovalForAll(address,bool)": {
        "details": "See {IERC721-setApprovalForAll}."
      },
      "supportsInterface(bytes4)": {
        "details": "See {IERC165-supportsInterface}."
      },
      "symbol()": {
        "details": "See {IERC721Metadata-symbol}."
      },
      "tokenURI(uint256)": {
        "details": "See {IERC721Metadata-tokenURI}."
      },
      "transferFrom(address,address,uint256)": {
        "details": "See {IERC721-transferFrom}."
      }
    },
    "version": 1
  },
  "userdoc": {
    "kind": "user",
    "methods": {},
    "version": 1
  },
  "storageLayout": {
    "storage": [
      {
        "astId": 1190,
        "contract": "contracts/gatedNFTs/SubscriptionNFTs.sol:SubscriptionNFTs",
        "label": "_name",
        "offset": 0,
        "slot": "0",
        "type": "t_string_storage"
      },
      {
        "astId": 1192,
        "contract": "contracts/gatedNFTs/SubscriptionNFTs.sol:SubscriptionNFTs",
        "label": "_symbol",
        "offset": 0,
        "slot": "1",
        "type": "t_string_storage"
      },
      {
        "astId": 1196,
        "contract": "contracts/gatedNFTs/SubscriptionNFTs.sol:SubscriptionNFTs",
        "label": "_owners",
        "offset": 0,
        "slot": "2",
        "type": "t_mapping(t_uint256,t_address)"
      },
      {
        "astId": 1200,
        "contract": "contracts/gatedNFTs/SubscriptionNFTs.sol:SubscriptionNFTs",
        "label": "_balances",
        "offset": 0,
        "slot": "3",
        "type": "t_mapping(t_address,t_uint256)"
      },
      {
        "astId": 1204,
        "contract": "contracts/gatedNFTs/SubscriptionNFTs.sol:SubscriptionNFTs",
        "label": "_tokenApprovals",
        "offset": 0,
        "slot": "4",
        "type": "t_mapping(t_uint256,t_address)"
      },
      {
        "astId": 1210,
        "contract": "contracts/gatedNFTs/SubscriptionNFTs.sol:SubscriptionNFTs",
        "label": "_operatorApprovals",
        "offset": 0,
        "slot": "5",
        "type": "t_mapping(t_address,t_mapping(t_address,t_bool))"
      },
      {
        "astId": 839,
        "contract": "contracts/gatedNFTs/SubscriptionNFTs.sol:SubscriptionNFTs",
        "label": "_initialized",
        "offset": 0,
        "slot": "6",
        "type": "t_uint8"
      },
      {
        "astId": 842,
        "contract": "contracts/gatedNFTs/SubscriptionNFTs.sol:SubscriptionNFTs",
        "label": "_initializing",
        "offset": 1,
        "slot": "6",
        "type": "t_bool"
      },
      {
        "astId": 5309,
        "contract": "contracts/gatedNFTs/SubscriptionNFTs.sol:SubscriptionNFTs",
        "label": "admin",
        "offset": 2,
        "slot": "6",
        "type": "t_address"
      },
      {
        "astId": 5313,
        "contract": "contracts/gatedNFTs/SubscriptionNFTs.sol:SubscriptionNFTs",
        "label": "instanceSubscriptions",
        "offset": 0,
        "slot": "7",
        "type": "t_mapping(t_address,t_uint256)"
      }
    ],
    "types": {
      "t_address": {
        "encoding": "inplace",
        "label": "address",
        "numberOfBytes": "20"
      },
      "t_bool": {
        "encoding": "inplace",
        "label": "bool",
        "numberOfBytes": "1"
      },
      "t_mapping(t_address,t_bool)": {
        "encoding": "mapping",
        "key": "t_address",
        "label": "mapping(address => bool)",
        "numberOfBytes": "32",
        "value": "t_bool"
      },
      "t_mapping(t_address,t_mapping(t_address,t_bool))": {
        "encoding": "mapping",
        "key": "t_address",
        "label": "mapping(address => mapping(address => bool))",
        "numberOfBytes": "32",
        "value": "t_mapping(t_address,t_bool)"
      },
      "t_mapping(t_address,t_uint256)": {
        "encoding": "mapping",
        "key": "t_address",
        "label": "mapping(address => uint256)",
        "numberOfBytes": "32",
        "value": "t_uint256"
      },
      "t_mapping(t_uint256,t_address)": {
        "encoding": "mapping",
        "key": "t_uint256",
        "label": "mapping(uint256 => address)",
        "numberOfBytes": "32",
        "value": "t_address"
      },
      "t_string_storage": {
        "encoding": "bytes",
        "label": "string",
        "numberOfBytes": "32"
      },
      "t_uint256": {
        "encoding": "inplace",
        "label": "uint256",
        "numberOfBytes": "32"
      },
      "t_uint8": {
        "encoding": "inplace",
        "label": "uint8",
        "numberOfBytes": "1"
      }
    }
  }
}